:020000040800F2
:10000000E8110020A1010008C914000889120008A5
:10001000C5140008D50800082123000800000000CE
:10002000000000000000000000000000B5210008F2
:10003000930A000800000000C11D00087D2200088E
:10004000BB010008BB010008BB010008BB010008A0
:10005000BB010008BB010008950A0008BB010008AD
:10006000BB010008BB010008BB010008BB01000880
:10007000BB010008BB010008BB010008BB01000870
:10008000BB010008BB010008BB010008BB01000860
:10009000BB010008BB010008BB010008BB01000850
:1000A000BB010008BB010008BB010008BB01000840
:1000B000BB010008BB01000800000000BB010008F4
:1000C000BB0100080000000000000000BB010008A8
:1000D00000000000BB010008BB010008BB010008D4
:1000E000BB010008BB010008000000000000000088
:1000F0000000000000000000000000000000000000
:1001000000000000000000000000000000000000EF
:100110000000000000000000BB010008BB01000857
:1001200000000000000000000000000000000000CF
:1001300000000000000000000000000000000000BF
:10014000BB010008BB010008000000008D0B000887
:10015000BB010008BB010008BB010008BB0100088F
:10016000BB010008BB010008000000000000000007
:10017000000000000000000000000000000000007F
:1001800000000000BB010008DFF810D000F044FAC6
:10019000004800476B240008AFF30080E8110020FE
:1001A0000648804706480047FEE7FEE7FEE7FEE711
:1001B000FEE7FEE7FEE7FEE7FEE7FEE78522000832
:1001C0008901000893081BD0D0ED000A90ED011AB8
:1001D00090ED020AD0ED031AF0EEE00AC1ED000A3C
:1001E000B0EEC11AB0EEC00A81ED011AF0EEE10ADC
:1001F00081ED020AC1ED030A103010315B1EE3D11C
:1002000012F0030208BF7047B0EC010A521EB0EEB4
:10021000C00AA1EC010AF7D170470000DFED300AF7
:10022000B5EEC00A60EE200ABDEEE01A11EE100A2B
:10023000F1EE10FA38BF401E00EE100A9FED291AA9
:10024000B8EEC00A70EEC00A20EE810ABCEEC00A09
:1002500010EE100A00EE100A0028B8EEC00A10EEE8
:10026000810AB8BF002004DBB0F5807FC8BF4FF41F
:1002700080701D4960EE000AB6EE001ADFED1C2A00
:100280009FED1A2A60EE011A60EE225A20EE813AA2
:1002900020EE022A21EEA01A01EB800073EE655ACF
:1002A00062EE202AB7EE006A33EE003AD0EC043A50
:1002B00076EE611A71EE600A35EEE20A33EE413AEB
:1002C00032EEC21A70EEA10A20EE230A64EE831AFF
:1002D00004EE200A45EE011A31EE800A7047000054
:1002E00083F9223E00008043283B0008ABAA2A3E47
:1002F000ABAAAA3EDFED300AB5EEC00A60EE200AD6
:10030000BDEEE01A11EE100AF1EE10FA38BF401EF1
:1003100000EE100A9FED291AB8EEC00A70EEC00A6E
:1003200020EE810ABCEEC00A10EE100A00EE100AA0
:100330000028B8EEC00A10EE810AB8BF002004DB26
:10034000B0F5807FC8BF4FF480701D4960EE000A91
:10035000B6EE001ADFED1C2A9FED1A2A60EE011A94
:1003600060EE225A20EE813A20EE022A21EEA01AF7
:1003700001EB800073EE655A62EE202AB7EE006A48
:1003800033EE003AD0EC043A76EE611A71EE600A70
:1003900035EEE20A33EE413A32EEC21A70EEA10AAD
:1003A00020EE230A64EE831A04EE200A45EE011AB9
:1003B00031EE800A7047000083F9223E000080433E
:1003C000383F0008ABAA2A3EABAAAA3ED2B201E04F
:1003D00000F8012B491EFBD270470022F6E710B54A
:1003E00013460A4604461946FFF7F0FF204610BDA3
:1003F0002DE9FE4F81EA030404F0004421F000419E
:1004000000944FF0000B23F0004350EA01045ED04B
:1004100052EA03045BD0C3F30A54C1F30A552C44D7
:10042000A4F2F3340194A0FB0254C1F3130141F48C
:100430008011C3F3130343F4801301FB024400FB58
:10044000034E840A970A44EA815447EA8357A4FB7F
:10045000076802958D0A05FB07854FEA932C04FB7C
:100460000C542705029D4FEA065847EA1637B5EBAC
:1004700008056EEB070C870E920E47EA811742EAD9
:100480008312A7FB0201B6EB0B0164EB00042B0DFA
:1004900043EA0C335E1844EB1C50DA465146E7FB46
:1004A0000201C5F313044FEA0B3343EA14534FEA36
:1004B0000432019C43EA0603A4F10C040294009C5C
:1004C000CDE900B400F05AF803B0BDE8F08F002089
:1004D0000146F9E70EB540F2334102910021CDE922
:1004E00000110A460B4600F049F803B000BDC1F305
:1004F0000A5210B5C1F3130140F2FF3341F48011E9
:100500009A4201DA002010BD40F233439A42A2F22F
:10051000334203DC524200F012F810BD904010BD8F
:10052000202A04DB203A00FA02F1002070479140B3
:10053000C2F1200320FA03F3194390407047202AA8
:1005400004DB203A21FA02F00021704721FA02F37D
:10055000D040C2F12002914008431946704710B5BF
:10056000141E73F1000408DA401C41F100019218D6
:100570005B411A4301D120F0010010BD2DE9F04D7F
:1005800092469B4611B1B1FA81F202E0B0FA80F2D4
:1005900020329046FFF7C4FF04460F4640EA0A00A7
:1005A00041EA0B0153465A46084313D0114653EA19
:1005B000010019D0C8F140025046FFF7C0FF0546C0
:1005C0000E46504659464246FFF7AAFF084305D05B
:1005D000012004E020463946BDE8F08D00200543A7
:1005E00046EAE0762C4337430A986305E40AA0EB19
:1005F00008000022FD0A44EA47540A3002D50020D0
:100600000146E9E7010510196941DDE908450019CE
:100610006941BDE8F04DA2E7064C074D06E0E068F1
:1006200040F0010394E8070098471034AC42F6D339
:10063000FFF7AEFD444300086443000821B182681F
:1006400042F00102826003E0826842F002028260AE
:100650007047000010B50022B0F1A04F02D0124B3D
:10066000984204D1114B1A68114B1A4003E0114B08
:100670001A680F4B1A40D1E9003423438C68234396
:10068000CC6843EA04330C7C43EA04231A43B0F1F8
:10069000A04F02D0044B984202D1044B1A6001E0F3
:1006A000044B1A6010BD0000000100500803005008
:1006B000E010FCFF0807005021B1C26842F00102BF
:1006C000C26003E0C26822F00102C2607047C268E3
:1006D00022F00202C260C2680A43C2607047000092
:1006E00010B50446B4F1A04F02D00E48844209D19F
:1006F0000121080701F08EFB00214FF0805001F02E
:1007000089FB0EE00848844202D00848844208D1A0
:100710000121480701F07EFB00214FF0005001F05D
:1007200079FB10BD0001005000040050000500508E
:10073000014600208A6802F000420AB1012000E070
:10074000002070470246002013680B400BB10120C7
:1007500000E000207047000010B502460020D0687D
:100760000C4B1840D1E9003423438C682343CC68F8
:1007700023430C6923434C6923438C692343184367
:10078000D060106B20F00F000B7F5B1E18431063CE
:1007900010BD000007C0FFFDF0B50C461D4600BFB0
:1007A00000BF052A0FDA016B02EB420677001F2615
:1007B00006FA07F3994302EB4206760004FA06F3C1
:1007C000194301633CE00A2A11DA416B561F06EB1C
:1007D000460677001F2606FA07F39943561F06EBD5
:1007E0004606760004FA06F31943416328E00F2A0F
:1007F00013DA816BA2F10A0606EB460677001F2684
:1008000006FA07F39943A2F10A0606EB46067600BC
:1008100004FA06F31943816312E0C16BA2F10F06DB
:1008200006EB460677001F2606FA07F39943A2F166
:100830000F0606EB4606760004FA06F31943C16379
:10084000092C14DD8169A4F10A0606EB4607072688
:1008500006FA07F386699E4386618669A4F10A0752
:1008600007EB470705FA07F73E43866110E0416949
:10087000661E06EB4607382606FA07F346699E43CE
:100880004661466904EB440705FA07F73E434661B3
:10089000F0BD826822F08042826082680A438260F2
:1008A0007047816841F0004181607047816841F084
:1008B000040181607047826822F04052826021B159
:1008C000826842F08052826003E0826842F0005207
:1008D0008260704700BFFEE721B1026842F001026A
:1008E000026004E002684FF6FE731A40026070472F
:1008F00001684FF6FE721140016000210160416005
:100900008160C1604B49884208D14A490839496829
:1009100041F00F01474A083A51608AE045491431D5
:10092000884208D143490839496841F0F001414AF9
:10093000083A51607DE03F492831884208D13D495D
:100940000839496841F470613A4A083A516070E0E8
:1009500038493C31884208D136490839496841F460
:100960007041344A083A516063E03249503188425C
:1009700008D130490839496841F470212D4A083AB4
:10098000516056E02B496431884208D12949083921
:10099000496841F47001274A083A516049E0254905
:1009A0007831884208D123490839496841F070619B
:1009B000204A083A51603CE01F49884206D1011F95
:1009C000096841F00F01021F116032E01A49143129
:1009D000884208D11849091F096841F0F001164AF8
:1009E000121F116025E014492831884208D11249AC
:1009F000091F096841F470610F4A121F116018E065
:100A00000D493C31884208D10B49091F096841F45E
:100A10007041094A121F11600BE0074950318842AA
:100A200007D10549091F096841F47021024A121FC4
:100A300011607047080002400804024010B500220F
:100A4000026847F6F0739A430C6A8B6823430C697B
:100A500023434C6923438C692343CC6923434C6A69
:100A600023438C6A23431A4302608B8943600B68DB
:100A700083604B68C36010BD0021016041608160EC
:100A80008181016141618161C16101624162816273
:100A9000704770477047F0B50A46002100240025D2
:100AA000002300BF3FE0012606FA01F4166806EABB
:100AB0000405A54236D11679012E02D01679022EF0
:100AC00018D186684FEA410C032707FA0CF7BE439A
:100AD000866056794F00BE4087683E4386608688B0
:100AE00001278F40BE438680878896798E40B6B2B4
:100AF0003743878006684FEA410C032707FA0CF753
:100B0000BE43066016794F00BE4007683E4306604C
:100B1000C3684F000326BE40B343D6794F00BE40A2
:100B20003343C360491C1029BDD3F0BDF0B5002389
:100B300000244D07ED0E02FA05F3CE1000F120055A
:100B400055F826504E07F70E0F26BE40B543CF107E
:100B500000F1200646F82750CE1000F1200555F888
:100B6000265045EA0304CE1000F1200545F8264042
:100B7000F0BD02460020138A0B400BB1012000E0BB
:100B800000207047018570478161704710B501F002
:100B90000DF9494B5A8E198DD88B01F04FFC00EEA0
:100BA000100AF8EE400A9FED451A9FED450A00EE47
:100BB000810A444880ED000A3F4B9A8E598D188C6B
:100BC00001F03CFC00EE100AF8EE400A9FED3B1AE3
:100BD0009FED3D0A00EE810A3C4880ED000A364B4D
:100BE0001A8FD98D988C01F029FC00EE100AF8EECE
:100BF000400A9FED371ABAEE090A00EE810A35481D
:100C000080ED000A2C4BDA8E998D588C01F016FC81
:100C100000EE100AF8EE400A9FED2F1A9FED2F0A02
:100C200000EE810A2E4880ED000A2A4890ED000A65
:100C30002C4880ED010A254890ED000A294880EDF6
:100C4000000A00F03BFF2748D0ED000AB0EE600A32
:100C5000254801F0E7F925480068254909688842D8
:100C600005D222480068401C2049086010E000209E
:100C70001E4908601B48D0ED040AB0EE600A1D480A
:100C8000D0ED000A1C4800F03BFB1C4880ED000A38
:100C90001548D0ED130A194890ED001AB6EE000A77
:100CA00001EE200A164880ED000A0220144991ED59
:100CB000000A02F09BFA10BDA8010020DEFFC73C2D
:100CC0000000000018000020000048C210000020B2
:100CD000DEFFC73B14000020EF33533B3333D3C058
:100CE0001C0000205C0000201001002028000020D3
:100CF0002C0000200C000020E0000020000000205C
:100D00000400002030B50346D3F88003012906D043
:100D100002290DD0042915D0082927D11CE020F480
:100D2000E020146820434FF46F745568E5501EE0CE
:100D300020F46010146840EAC4004FF470745568E1
:100D4000E55014E020F0E070146840EA84104FF49D
:100D500071745568E55000BF20F06060146840EA87
:100D600044204FF472745568E55000E000BF00BFA6
:100D7000C3F8800330BD10B5062918D2DFE801F0B2
:100D80000708090A0B0383681343836010E000BF60
:100D900000BF00BF00BF00F1800303EBC1139B68DD
:100DA000134300F1800404EBC114A36000E000BF12
:100DB00000BF10BD02464FF4737398584B1C23B903
:100DC00020F0020040F0010004E020F00D0041F0AE
:100DD000020318434FF473739850704710B50346DD
:100DE00003F1800404EBC114A06B0E4C2040146886
:100DF00040EA8420546820439468204314692043C7
:100E0000D4682043948A40EA044094692043146AD9
:100E10002043D469204303F1800404EBC114A06390
:100E200010BD00000020FF3D024600204FF4627319
:100E30009B580B400BB1012000E00020704730B5FB
:100E400006292AD2DFE801F00C0D0E0F10031BB1AA
:100E5000C4681443C46002E0C4689443C4601DE0E5
:100E600000BF00BF00BF00BF5BB100F1800404EB16
:100E7000C114E468144300F1800505EBC115EC6072
:100E80000AE000F1800404EBC114E468944300F12B
:100E9000800505EBC115EC6000E000BF00BF30BD70
:100EA000026822F00702026002688B681A4302603F
:100EB000026822F0180202600268CB681A430260DE
:100EC0000A6842614A6882617047012906D0022996
:100ED00006D0042906D0082908D105E0C26106E041
:100EE000426204E0826202E0C26200E000BF00BF32
:100EF000704710B5024610684FF46874A35820F08C
:100F000020000C68204320F400604C68204320F44B
:100F100080608C68204320F0C060CC68204320F0C3
:100F200000600C69204320F040404C6940EA840096
:100F300020F00050CC69204323F480338C69234394
:100F400010604FF46874A35010BDF0B50446154608
:100F5000002204F1800606EBC116706E202D2CD005
:100F60000CDC042D16D004DC012D12D0022D34D15E
:100F700021E0082D20D0102D2FD10CE0402D0BD0DA
:100F8000802D1BD0B5F5807F07D0B5F5007F24D12B
:100F900015E000BF00BF00BF00BF04F1800606EBF4
:100FA000C1165F68F76304F1800606EBC1169F68FF
:100FB0003764002212E000BF00BF00BF00BF04F191
:100FC000800606EBC1165F68776404F1800606EBC5
:100FD000C1169F68B764102200E000BF00BFFE2664
:100FE0009640B0431E6896403043DE6896403043DA
:100FF0001E69964030435E69964030439E69964034
:101000003043DE699640304304F1800606EBC1169A
:101010007066F0BD10B5012A06D0022A0AD0042A53
:101020000ED0082A18D111E000F1800404EBC1149D
:10103000E36112E000F1800404EBC11463620CE090
:1010400000F1800404EBC114A36206E000F1800407
:1010500004EBC114E36200E000BF00BF10BD10B597
:1010600000F1800303EBC1131B6823F0070400F1B8
:10107000800303EBC1131C6000F1800303EBC11379
:101080001B689468234300F1800404EBC1142360BF
:1010900000F1800303EBC1131B6823F0180400F177
:1010A000800303EBC1131C6000F1800303EBC11349
:1010B0001B68D468234300F1800404EBC11423604F
:1010C00000F1800303EBC11314685C6100F180033D
:1010D00003EBC11354689C6110BD30B504460B4648
:1010E00004F1800505EBC31528684FF4687529598C
:1010F00020F020001568284320F40060556828433C
:1011000020F480609568284320F0C060D5682843AB
:1011100020F000601569284320F07040556928438D
:1011200020F40030D569B5F1005F01D140F4003002
:10113000052B22D2DFE803F003090F151B0021F471
:101140000031956941EA450118E021F48021956953
:1011500041EA850112E021F40021956941EAC501C7
:101160000CE021F48011956941EA051106E021F4B3
:101170000011956941EA451100E000BF00BF04F18C
:10118000800505EBC31528604FF46875295130BD03
:1011900002680A43026070472DE9F04104460D469B
:1011A00016461F463B46324629462046FFF7CDFEEF
:1011B000BDE8F0814FF4657211507047F0B500F151
:1011C000800707EBC1173B6800F1800707EBC117E9
:1011D000BC6E00F1800707EBC1177D6E00F1800740
:1011E00007EBC1177E6D23F0400317683B4323F4E0
:1011F0008023D7693B4323F0FC7357693B4324F0BA
:101200001F04177907F01F073C4324F00044976838
:101210003C4325F48075D7683D4325F4F0551769A4
:101220003D43966900F1800707EBC1173B6000F171
:10123000800707EBC117BC6600F1800707EBC117F9
:101240007D6600F1800707EBC1177E65F0BD2DE9D3
:10125000F04107460D4616461C46052D08D131467D
:101260003846FFF71DFE21463846FFF742FE09E0EB
:10127000324629463846FFF7F2FE224629463846CE
:10128000FFF72BFFBDE8F08100BFFEE710B54FF47C
:1012900080710948FFF778FC4FF400710648FFF7AA
:1012A00073FC4FF400710448FFF76CFC4FF480713D
:1012B0000148FFF767FC10BD0004004810B54FF46B
:1012C00080710748FFF760FC4FF400710448FFF796
:1012D00059FC4FF400710248FFF756FC10BD0000A6
:1012E0000004004810B54FF480710448FFF74CFC2F
:1012F0004FF480710148FFF745FC10BD0004004821
:10130000B0EE401AF0EE601A31EEC10AF0EE400A7B
:1013100090ED000AD0ED042A70EEE22A20EE220AB7
:10132000D0ED012A02EEA00AB0EE402AC0ED040A78
:1013300090ED050A30EE020A80ED050A90ED050AEF
:10134000D0ED022AB4EEE20AF1EE10FA02DD90EDE1
:10135000020A01E090ED050A80ED050A90ED050A0C
:10136000D0ED032AB4EEE20AF1EE10FA02D290EDCB
:10137000030A01E090ED050A80ED050A90ED050AEB
:10138000704700001CB50120009000208DF804007B
:1013900003208DF8050001208DF8070069461148EB
:1013A000FFF779FB0220009000208DF80400032055
:1013B0008DF8050001208DF8070069460948FFF700
:1013C0006AFB0420009000208DF8040003208DF8B3
:1013D000050001208DF8070069460248FFF75BFB16
:1013E0001CBD00000004004810B50446012115484A
:1013F000FFF7BFFB48B102211248FFF7BAFB20B14B
:1014000004211048FFF7B5FBC8B90A2001F00AF81B
:1014100001210C48FFF7ADFB08B9012010BD0221E6
:101420000848FFF7A6FB08B90220F7E704210548A2
:10143000FFF79FFB08B90320F0E70020EEE700204C
:10144000ECE70000000400481CB54FF40040009099
:1014500001208DF8040000208DF8060001208DF891
:10146000070003208DF8050069461548FFF713FBB8
:101470004FF48040009001208DF8040000208DF88A
:10148000060001208DF8070003208DF8050069464D
:101490000B48FFF700FB4FF40050009001208DF83F
:1014A000040000208DF8060001208DF807000320BD
:1014B0008DF8050069460248FFF7EDFA1CBD0000F3
:1014C0000008004800BFFEE77047000070B500212B
:1014D00000230F22C47804B3154C246804F4E0649C
:1014E000C4F5E064210AC1F10403CA40447804FA57
:1014F00003F184781440214309010E4C0678A1556C
:10150000047804F01F050124AC4005786D11AD008E
:1015100005F1E025C5F8004109E0047804F01F0555
:101520000124AC40044D0678761145F8264070BD84
:101530000CED00E000E400E080E100E070B5002484
:1015400018E004F1B000002100F00AFA002108467A
:1015500000F006FA0021102000F002FA002505E054
:101560000121002000F0FCF9681CC5B2802DF7DBDA
:10157000601CC4B2082CE4DB70BD00001CB54FF445
:101580004070009001208DF8040000208DF80600C6
:1015900001208DF8070003208DF8050069463C48BE
:1015A000FFF779FA4FF440713948FFF7EDFA4FF43D
:1015B000487000F037FF0021AE2000F0D1F9002183
:1015C000084600F0CDF90021102000F0C9F90021F3
:1015D000402000F0C5F90021B02000F0C1F9002141
:1015E000812000F0BDF90021FF2000F0B9F90021B1
:1015F000A12000F0B5F90021A62000F0B1F90021EA
:10160000A82000F0ADF900213F2000F0A9F9002149
:10161000C82000F0A5F90021D32000F0A1F9002195
:10162000084600F09DF90021D52000F099F900212D
:10163000802000F095F90021D82000F091F90021D8
:10164000052000F08DF90021D92000F089F9002152
:10165000F12000F085F90021DA2000F081F9002165
:10166000122000F07DF90021DB2000F079F9002143
:10167000302000F075F900218D2000F071F9002173
:10168000142000F06DF90021AF2000F069F91CBDB5
:101690000004004870B504460D4605F1B000002175
:1016A00000F05EF9102141EA1410002100F058F911
:1016B00004F00F00002100F053F970BD2DE9F04750
:1016C00007460E469046994600250024A8F12000C2
:1016D000C5B27F2F02DD0027B01CC6B2B9F1100FD2
:1016E00024D131463846FFF7D5FF002408E004EB4B
:1016F0000511194A505C012100F032F9601CC4B296
:10170000082CF4DB701CC1B23846FFF7C3FF00247D
:1017100009E004EB051108310F4A505C012100F08B
:101720001FF9601CC4B2082CF3DB12E031463846C6
:10173000FFF7B0FF00240AE005EB4501074A02EB82
:101740004101085D012100F00BF9601CC4B2062CB8
:10175000F2DBBDE8F0870000363500080E330008E4
:101760002DE9FF5F074691461E460E9D4FF0000A89
:10177000002437E0301B401EC1B20A2001F0BCFD3E
:1017800099FBF0F00A2190FBF1F201FB120000F04E
:10179000FF08BAF1000F14D1701EA04211DDB8F19C
:1017A000000F0CD1AB4605EBDB71491001FB047156
:1017B000C8B22B4620220199FFF780FF10E04FF0BE
:1017C000010AAB4605EBDB71491001FB0471C8B29D
:1017D00008F13001CAB22B460199FFF76FFF00BF35
:1017E000601CC4B2B442C5DBBDE8FF9F2DE9FF5FBA
:1017F000074691461E460E9D4FF0000A002435E034
:10180000301B401EC1B20A2001F076FDB9FBF0F09A
:101810000A21B0FBF1F201FB1208BAF1000F14D15A
:10182000701EA04211DDB8F1000F0CD1AB4605EBE4
:10183000DB71491001FB0471C8B22B4630220199BB
:10184000FFF73CFF10E04FF0010AAB4605EBDB7100
:10185000491001FB0471C8B208F13001CAB22B462D
:101860000199FFF72BFF00BF601CC4B2B442C7DB75
:10187000BDE8FF9F2DE9FF4F2DED020B2DED048BF1
:1018800081B00546B0EE408A16461C464FF0000A6D
:101890004FF00109B5EEC08AF1EE10FA02DBF0EE6E
:1018A000488A01E0F1EE488ABDEEE80A10EE107AAF
:1018B000BDEEE80AB8EEC00A38EEC09A4FF0000A52
:1018C00007E009EB89004FEA40090AF1010000F046
:1018D000FF0AB245F5DB00EE109AB8EEC00A29EE19
:1018E000000AB0EE409ABDEEC90A10EE108AB5EEBD
:1018F000C08AF1EE10FA06D223462D222846089916
:10190000FFF7DCFE05E023462B2228460899FFF767
:10191000D5FEA34604EBDB7105EB6101C8B20223DF
:101920003A4600940899FFF71BFF04EB440B0BEBBE
:10193000DB7105EB6101C8B223462E220899FFF73F
:10194000BDFE05EB4401C8B23346424600940899F7
:10195000FFF74CFF01B0BDEC048B06B0BDE8F08F83
:1019600070B504460D461DB1E0B200F01FFD02E067
:10197000E0B200F005FD70BD80ED000AC0ED010A87
:1019800080ED021AC0ED031A704700009FED0C0AAB
:1019900080ED000A9FED0A0A80ED010A9FED080A1A
:1019A00080ED020A9FED060A80ED030A9FED040A0E
:1019B00080ED040A9FED020A80ED050A70470000E1
:1019C0000000000080ED020AC0ED030A80EE212A2B
:1019D000BDEEC22A12EE101A416680EE012ABDEE5B
:1019E000C22A12EE101A0166B0EE002AC2EE002AD8
:1019F000C0ED1F2A704700009FED2F0A80ED040AFA
:101A00009FED2D0A80ED050A9FED2B0A80ED060A59
:101A10009FED290A80ED070A9FED270A80ED090A4C
:101A20009FED250A80ED0A0A9FED230A80ED0B0A3F
:101A30009FED210A80ED0C0A002181869FED1E0A90
:101A400080ED0E0A9FED1C0A80ED0F0A9FED1A0A29
:101A500080ED100A9FED180A80ED120A9FED160A1C
:101A600080ED130A9FED140A80ED140A9FED120A0F
:101A700080ED150AA0F85810A0F85A10C16501664B
:101A800041669FED0D0A80ED1A0A9FED0B0A80ED6D
:101A90001B0A9FED090A80ED1D0A9FED070A80EDE4
:101AA000110A9FED050A80ED080AA0F878109FED55
:101AB000020A80ED1F0A70470000000010B50446BE
:101AC000012204F150012046FEF77CFB012204F1C3
:101AD0005401201DFEF776FB94ED000AD4ED030AB5
:101AE000B4EEE00AF1EE10FA01DD012000E0002082
:101AF0001C34E087206C401C206494ED070AD4ED70
:101B00000D0A30EE200A84ED070A94ED080AD4EDA0
:101B10000D0A94ED0D1A00EE810A84ED080A94ED89
:101B20000D0A54ED010A70EE600A14ED010A94EDFD
:101B3000181A01EE200A04ED010A94ED090AD4ED09
:101B40000E0A94ED0E1A00EE810A84ED090A94ED56
:101B50000B0A54ED060A14ED071A00EE810A84ED13
:101B60000B0A00202083B4F93C00B4F93E101C3C61
:101B700088427CD0B4F85A00012878D1206EE16DFB
:101B8000884275DA0120A086E06D00EE100AB8EEFA
:101B9000C00AF7EE000A80EE801A84ED1A1AD4ED1E
:101BA0001A0AB0EE600A04F16C0000F025FC94ED16
:101BB0000E0AD4ED1A0A20EE200A84ED050AD4EDAF
:101BC0000F0AB0EE600A04F1800000F015FC94EDFD
:101BD0001B0AD4ED200A20EE200A84ED040AD4ED7D
:101BE000100AB0EE600A04F1800000F005FC343405
:101BF00094ED130AD4ED0E0A20EE200A04ED040A37
:101C000094ED100AD4ED050A94ED0D1A00EE810A48
:101C100084ED100A94ED060A54ED090A14ED041A35
:101C200000EE810A84ED060A14ED0B0AD4ED0D0ACC
:101C300020EE200A04ED060A94ED040A54ED060A8B
:101C400030EE200A84ED040AA08F401C00B2A08769
:101C5000B4F93C00343C642831DB0020A4F8700067
:101C600094ED1D0ADFED4F0A20EE200A01E047E067
:101C70003AE084ED0A0A9FED4C0A84ED1D0A94EDCA
:101C8000130ADFED480A20EE200A84ED0B0A9FEDCF
:101C9000460A84ED130A94ED0A0AD4ED0B0A80EE8D
:101CA000201A84ED0C1A94ED110ADFED3E0A20EEA5
:101CB000200A84ED080A9FED3C0A84ED110A0020F9
:101CC000A4F87800E0659FED380A84ED0E0A9FEDD8
:101CD000360A84ED0F0A9FED340A84ED100A9FED59
:101CE000320A84ED120A0BE0B4F978001E2805DAF6
:101CF000B4F87800401C00B2A4F878000020E06539
:101D0000E06D616E884203DCB4F97800142844DD8C
:101D10009FED250A84ED040A9FED230A84ED050A50
:101D20009FED210A84ED060A9FED1F0A84ED070A44
:101D30009FED1D0A84ED090A9FED1B0A84ED0A0A36
:101D40009FED190A84ED0B0A9FED170A84ED0C0A2A
:101D50000020A0869FED140A84ED0E0A9FED120A62
:101D600084ED0F0A9FED100A84ED100A9FED0E0A14
:101D700084ED120A9FED0C0A84ED130A9FED0A0A06
:101D800084ED1D0A9FED080A84ED080A9FED060AFE
:101D900084ED110AE065A4F87800B4F85A00A4F8BC
:101DA000580010BD0AD7233C0000000010B51022D7
:101DB00005210248FEF7DFFF10BD0000007401405E
:101DC000704700000021010F31B1094AD26A22F4A4
:101DD0007852074BDA6205E0054AD26A22F4F872BB
:101DE000034BDA62024AD26A0243014BDA6270475D
:101DF0000010024029B1064A52690243044B5A615D
:101E000004E0034A52698243014B5A617047000063
:101E10000010024029B1064A926A0243044B9A62BA
:101E200004E0034A926A8243014B9A6270470000C1
:101E30000010024029B1064A92690243044B9A619C
:101E400004E0034A92698243014B9A6170470000A3
:101E5000001002400549096B21F48051034A1163C7
:101E60001146096B014311637047000000100240E6
:101E700090ED102ADFED332A22EE222AF0EE421AEC
:101E8000B6EE002A80ED152AB7EE002A21EE822A4E
:101E9000D0ED142A22EE222AF0EE420AC0ED160AF4
:101EA00090ED142A22EE212A22EE212AD0ED142AC6
:101EB00022EE222AB0EE420A80ED170A30EE802A86
:101EC000F1EE002A32EE222AF7EE002A82EE823A62
:101ED000B0EE431A20EE812A80ED182A90ED182AE0
:101EE000FFEE002A22EE222A80ED192AB1EE002A06
:101EF00032EE402AF0EE002A22EE222A22EE012AB9
:101F000080ED1A2A30EEC02AF1EE002A32EE622A63
:101F100022EE012A80ED1B2AB6EE002A20EE022ACC
:101F200022EE012A80ED1C2A90ED1C2AF0EE002AF8
:101F300022EE222A80ED1D2A90ED1C2A80ED1E2A19
:101F400070470000DA0FC94010B52DED048B044630
:101F5000B0EE408AF0EE608AB0EE419AF0EE619AFF
:101F600084ED108AB7EE000AC0EE280AC4ED140A08
:101F70002046FFF77DFF84ED209AC4ED1F9ABDEC4B
:101F8000048B10BD9FED260A80ED000A9FED240A08
:101F900080ED010A9FED220A80ED020A9FED200AE2
:101FA00080ED030A9FED1E0A80ED040A9FED1C0AD6
:101FB00080ED050A9FED1A0A80ED060A9FED180ACA
:101FC00080ED070A9FED160A80ED080A9FED140ABE
:101FD00080ED090A9FED120A80ED0A0A9FED100AB2
:101FE00080ED0B0A9FED0E0A80ED0C0A9FED0C0AA6
:101FF00080ED0D0A9FED0A0A80ED0E0A9FED080A9A
:1020000080ED0F0A9FED060A80ED110A9FED040A8C
:1020100080ED130A9FED020A80ED120A704700005E
:102020000000000010B52DED028B0446B0EE408A92
:1020300084ED008A94ED000AD4ED020A30EE600AC5
:10204000D4ED180A20EE200AD4ED1A0A94ED041AF1
:1020500000EE810AD4ED1B0A94ED051A00EE810A08
:1020600084ED030A94ED040A84ED050A94ED030A55
:1020700084ED040A94ED1C0AD4ED000A20EE200A37
:10208000D4ED1D0A94ED011A00EE810AD4ED1E0A6A
:1020900094ED021A00EE810AD4ED1A0A94ED071AA3
:1020A00000EE810AD4ED1B0A94ED081A00EE810AB5
:1020B00084ED060A94ED070A84ED080A94ED060AF9
:1020C00084ED070A94ED010A84ED020A94ED000AFA
:1020D00084ED010A94ED120AD4ED030A20EE200AE1
:1020E000D4ED130A94ED061A00EE810A84ED090A74
:1020F00094ED120AD4ED060A20EE200AD4ED130A5C
:1021000094ED031A00EEC10A84ED0B0A94ED0E0A59
:10211000D4ED200A94ED091A00EE810AD4ED1F0ACD
:1021200094ED0A1A00EE810A84ED0D0A94ED0D0A71
:1021300084ED0E0A94ED090A84ED0A0A94ED100A62
:10214000D4ED0D0A30EE200A84ED0F0A94ED0F0A4B
:10215000D4ED140A60EE200A94ED110A9FED141AD2
:1021600000EE810A84ED110A94ED110ADFED100AE8
:10217000B4EEE00AF1EE10FA07DD94ED110ADFED9E
:102180000C0A30EE600A84ED110AD4ED110AB0EEAB
:10219000600AFEF7AFF884ED130AD4ED110AB0EE31
:1021A000600AFEF73BF884ED120ABDEC028B10BD0D
:1021B000DA0FC940704700000CB500200190009074
:1021C0002C48006840F480302A49086000BF294844
:1021D000006800F4003000900198401C01900098C5
:1021E00018B90198B0F5A04FF1D12248006800F469
:1021F000003010B10120009001E000200090009814
:10220000012836D112201C4908601A484068194933
:1022100048600846406848600846406840F480606E
:1022200048600846406820F47C10486008464068D2
:1022300040F4E81048600846006840F0807008608C
:1022400000BF0C48006800F000700028F9D0094871
:10225000406820F00300074948600846406840F0A5
:102260000200486000BF0348406800F00C000828E6
:10227000F9D10CBD001002400020024010B500F062
:1022800043F810BD10B51B48006840F470001949B0
:1022900008601948006840F00100174908600846C6
:1022A00040681649084014494860084600681449C7
:1022B0000840114908600846006820F48020086042
:1022C0000846406820F4FE0048600846C06A20F0D6
:1022D0000F00C8620846006B0A49084006490863B7
:1022E00000208860FFF768FF4FF0006001498039E7
:1022F000086010BD88ED00E0001002400CC07FF8BF
:10230000FFFFF6FECCFC00FF0448006820B1034844
:102310000068401E01490860704700004C00002022
:1023200000BFFEE72DE9F04105462C464FF48071D1
:102330001248FEF727FC00261CE0274607F080071E
:10234000802F04D1B9000D48FEF71EFC04E04FF4C5
:1023500000710A48FEF716FC6006040E4FF4807107
:102360000648FEF711FC4FF480710448FEF70AFCA2
:10237000701CC6B2082EE0DBBDE8F0810004004806
:1023800010B50446FEF782FF7820FFF7CBFFFEF77B
:10239000A9FF0020FFF7C6FFFEF7A4FF2046FFF7C6
:1023A000C1FFFEF79FFFFEF789FF10BD10B5044681
:1023B000FEF76CFF7820FFF7B5FFFEF793FF402094
:1023C000FFF7B0FFFEF78EFF2046FFF7ABFFFEF7EB
:1023D00089FFFEF773FF10BD02E008C8121F08C195
:1023E000002AFAD170477047002001E001C1121F96
:1023F000002AFBD1704700000146B5EEC00AF1EE9D
:1024000010FA05DDF1EEC00AC1ED000A00207047A8
:10241000DFED030AC1ED000A4FF0FF30F7E70000DF
:102420000000000001B504490098086000BF0248A0
:1024300000680028FBD108BD4C00002003468B42F9
:1024400009DD914201DD084670479A4201DD1846D8
:10245000FAE71046F8E7914201DA0846F4E79A42B3
:1024600001DA1846F0E71046EEE700F0A3FA01E0C3
:1024700000F002F8FCE7000010B54FF49670FFF78B
:10248000D1FF0020FEF7B0FF4549087008460078EC
:10249000012807D14348007808B9012000E0002056
:1024A000404908703E480078022815D13D48007820
:1024B00048B93D4890ED000ADFED3C0A30EE200AB5
:1024C00080ED000A08E03A4890ED000ADFED370A97
:1024D00030EE200A80ED000A31480078032815D13B
:1024E0003048007848B9304890ED000ADFED2F0AF7
:1024F00030EE600A80ED000A08E02D4890ED000AF9
:10250000DFED2A0A30EE600A80ED000A264890EDE1
:10251000000AF1EE040AB4EEE00AF1EE10FA03D27A
:10252000B1EE040A80ED000A1F4890ED000ADFEDCD
:10253000210AB4EEE00AF1EE10FA03DD9FED1D0A68
:1025400080ED000A1C48D0ED040AB0EE600A1023AA
:10255000042200210846FFF78DF91748D0ED090A3B
:10256000B0EE600A1023042202210020FFF782F956
:102570001248D0ED130AB0EE600A1023042211466F
:102580000020FFF777F90D48D0ED110AB0EE600A90
:102590001023042206210020FFF76CF910BD000073
:1025A00034000020350000200C000020CDCCCC3DB4
:1025B00030000020000048425C0000201001002094
:1025C00000B59BB04FF48070FFF7FCFB01210807BA
:1025D000FFF710FC01210846FFF72CFC01210846FB
:1025E000FFF708FC3F20199003208DF868000020B9
:1025F0008DF86B0003208DF8690000208DF86A00CB
:1026000019A9E748FEF747FA0F20199003208DF823
:10261000680000208DF86B0003208DF86900002011
:102620008DF86A0019A94FF09040FEF734FADD48A2
:10263000FEF75EF9DB481430FEF75AF90EA8FEF7F4
:102640001BFAD9480E90D9480F90002010900F2007
:10265000ADF84400002012908020139040001490A8
:1026600080001590202016904FF4405017900020C5
:1026700018900EA9CB481430FEF7E0F9CC480E9024
:10268000CA481E300F90002010900F20ADF8440073
:10269000002012908020139040001490800015902C
:1026A000202016900020179018900EA9BD48FEF724
:1026B000C5F90121BB481430FEF70EF90121B948D4
:1026C000FEF70AF9B8484038FEF70AF84FF0A04084
:1026D000FEF706F801214FF0A040FEF7ECF80121CB
:1026E000B1484038FEF7E7F80A20FFF79BFE0021CB
:1026F000AD484038FEF7CDF800214FF0A040FEF77E
:10270000C8F8A9484038FEF7CCF84FF0A040FEF7D3
:10271000C8F800BFA4484038FEF70AF80028F9D1ED
:1027200000BF4FF0A040FEF703F80028F9D1019058
:1027300002904FF4004003900220049001208DF895
:10274000140001A998484038FDF784FF01A94FF013
:10275000A040FDF77FFF0020069007904FF4E07047
:1027600008904FF48060099000200A900B900C9024
:102770000F208DF8340006A98B484038FDF7ECFF98
:102780000020069007904FF4007008908000099098
:1027900000200A900B900C900F208DF8340006A9B1
:1027A0004FF0A040FDF7D8FF02217F484038FDF7E9
:1027B0008EFF02214FF0A040FDF789FF0523012283
:1027C00011461807FDF7E8FF0523022211461807F6
:1027D000FDF7E2FF0523032211461807FDF7DCFF92
:1027E0000523042211461807FDF7D6FF05231A46D4
:1027F00006211807FDF7D0FF05230622012118073F
:10280000FDF7CAFF0523072202211807FDF7C4FFC1
:102810000523082203211807FDF7BEFF052309221F
:1028200004211807FDF7B8FF05230A220621D00668
:10283000FDF7B2FF05230B2201211807FDF7ACFFBE
:1028400005230C2202211807FDF7A6FF05230D2200
:1028500003211807FDF7A0FF05230E220421180706
:10286000FDF79AFF05230F2206211807FDF794FFB5
:10287000052301220B214C484038FDF78DFF05232D
:102880000222194648484038FDF786FF05230322F7
:10289000072145484038FDF77FFF05230422082122
:1028A00041484038FDF778FF05231A4609213E4884
:1028B0004038FDF771FF052306220B213A484038C6
:1028C000FDF76AFF05230722194637484038FDF710
:1028D00063FF05230822072133484038FDF75CFFDA
:1028E00005230922082130484038FDF755FF05230C
:1028F0000A2209212C484038FDF74EFF05230B2200
:10290000114629484038FDF747FF05230C22194698
:1029100025484038FDF740FF05230D2207212248B6
:102920004038FDF739FF05230E2208211E484038A4
:10293000FDF732FF05230F2209211B484038FDF720
:102940002BFF012118484038FDF7B6FE01214FF05A
:10295000A040FDF7B1FE012113484038FDF76EFE9F
:1029600001214FF0A040FDF769FE00BF01210E4894
:102970004038FDF7E7FE0028F8D000BF01214FF0F6
:10298000A040FDF7DFFE0028F8D007484038FDF7EB
:102990008DFF4FF0A040FDF789FF1BB000BD000088
:1029A000000800480800024040010050A801002033
:1029B0004000005010B500F05FFC294890ED000A7F
:1029C000DFED280A80EE801ABCEEC10A264880EDB1
:1029D000000A6420FFF726FDFFF7F2FD2348FEF70B
:1029E000D5FFDFED231A9FED231AF3EE0E0A9FEDBC
:1029F000220A1E48FEF7C0FF0122042144F620608F
:102A000000F04AF89FED1D0A184880ED050A1C48A1
:102A1000FEF7F2FFF3EE041A9FED1A1ADFED170A24
:102A20009FED100A1648FEF7CDFFFEF7ABFCFEF750
:102A3000A5FDFEF783FDFEF707FD1348FFF7A2FA99
:102A4000DFED121A9FED121ADFED060A9FED110A53
:102A50000D48FFF779FA0C48FFF70AFA10BD00009D
:102A60003000002000409C462C000020E0000020A8
:102A70006666E6BE6666E63E6F12833A00000000B8
:102A80005C0000200000DC42100100208C5226C3B4
:102A9000A8E02643000048422DE9F0412DED068BC9
:102AA000AAB004460D46174600202890299024908D
:102AB00025902690279020211CA8FDF78EFC202130
:102AC00014A8FDF78AFC20210CA8FDF786FC242120
:102AD00003A8FDF782FC002001900290009049F2CB
:102AE0008800844203D89FEDFE8A022609E0FD4853
:102AF000844203D89FEDFC8A012602E09FEDFB8A09
:102B000000264FF48050FFF7A5F901214807FFF791
:102B100091F90C21F648FEF74DF900BF4FF48031D2
:102B2000F348FEF781F90028F8D0002014901590A2
:102B3000169017904FF000601890002019901A908E
:102B40004FF000501B9000EE104AB8EE400AC8EE5D
:102B5000000ABCEEE00A8DED240A781E2590269628
:102B60000820279014AB24AA0521E148FEF76FFB4B
:102B700005F0010000286ED04FF44070289003202B
:102B80008DF8A50002208DF8A40000208DF8A60085
:102B90008DF8A70028A94FF09040FDF77CFF0D228B
:102BA00008214FF09040FDF7C1FF0D220921C80612
:102BB000FDF7BCFF4FF000501B9000EE104AB8EE3E
:102BC000400AC8EE000ABCEEE00A8DED240A01209E
:102BD000259026960820279014AB24AA0021C448EB
:102BE000FEF735FB4FF480701F90002020901D9061
:102BF0001E901C90229023904FF4002021901CAA3C
:102C00000021BB48FEF7DAFA00200C9008200D9056
:102C100040200E9000200F90109011901290139071
:102C20000CAB01220021B248FEF7B6FA0120039056
:102C300000200A9009900B904FF4967008900020A5
:102C40000690059007904FF49670049003AA002117
:102C5000A748FEF7C3F805F00200022871D14FF42F
:102C60004060289003208DF8A50002208DF8A40074
:102C700000208DF8A6008DF8A70028A94FF09040FD
:102C8000FDF709FF0D220A214FF09040FDF74EFF9E
:102C90000D220B214FF09040FDF748FF4FF0005000
:102CA0001B9000EE104AB8EE400AC8EE000ABCEED7
:102CB000E00A8DED240A0120259026960820279011
:102CC00014AB24AA01218A48FEF7C1FA4FF48070A0
:102CD0001F90002020901D901E901C90102022908C
:102CE000002023904FF4801021901CAA01218048DD
:102CF000FEF764FA00200C9008200D9040200E9002
:102D000000200F9010901190129013900CAB0422A1
:102D100001217748FEF740FA0120039000200A9035
:102D200009900B904FF49670089000200690059043
:102D300007904FF49670049003AA01216C48FEF7A7
:102D40004DF805F0040004286CD14FF44050289051
:102D500003208DF8A50002208DF8A40000208DF836
:102D6000A6008DF8A70028A96248FDF794FE0D2261
:102D70000C216048FDF7DAFE0D2211465D48FDF793
:102D8000D5FE4FF000501B9000EE104AB8EE400AFE
:102D9000C8EE000ABCEEE00A8DED240A0120259061
:102DA00026960820279014AB24AA02215048FEF74B
:102DB0004EFA4FF480701F90002020901D901E90BE
:102DC0001C90229023904FF4001021901CAA022105
:102DD0004748FEF7F3F900200C9008200D904020A2
:102DE0000E9000200F9010901190129013900CAB49
:102DF000102202213E48FEF7CFF901200390002067
:102E00000A9009900B904FF496700890002006905D
:102E1000059007904FF49670049003AA022134485D
:102E2000FDF7DCFF05F00800082879D14FF4404099
:102E3000289003208DF8A50002208DF8A400002022
:102E40008DF8A6008DF8A70028A92A48FDF723FED3
:102E50000D220E212748FDF769FE0D220F2125487E
:102E6000FDF764FE4FF000501B9000EE104AB8EEE4
:102E7000400AC8EE000ABCEEE00A8DED240A0120EB
:102E8000259026960820279014AB24AA03211848E1
:102E9000FEF7DDF94FF480701F90002020901D9008
:102EA0001E901C90229023904FF4800021901CAA29
:102EB00003210F48FEF782F900200C9008200D90A6
:102EC00040200E9000200F901090119012901390BF
:102ED0000CAB402203210648FEF75EF901200BE00F
:102EE0004054894E581501004054094F4054894FB1
:102EF0000074014000040048039000200A900990EB
:102F00000B904FF496700890002006900590079063
:102F10004FF49670049003AA0321B048FDF75EFFBA
:102F20002498FDF7D7FA41EC1A0B9FEDAD0B53EC4B
:102F3000102BFDF75DFA41EC190BFDF7D8FA80462E
:102F400042460121A548FDF7C0FF2498FDF7C2FACB
:102F500041EC1A0B9FEDA20B53EC102BFDF748FA36
:102F600041EC190BFDF7C3FA8046424608219B4805
:102F7000FDF7ABFF2498FDF7ADFA41EC1A0B9FED7E
:102F8000980B53EC102BFDF733FA41EC190BFDF7BE
:102F9000AEFA80464346012203219048FEF73AF8F4
:102FA0002498FDF797FA41EC1A0B9FED8D0B53EC2B
:102FB000102BFDF71DFA41EC190BFDF798FA80462E
:102FC0004346082203218548FEF724F82498FDF79C
:102FD00081FA41EC1A0B9FED820B53EC102BFDF79D
:102FE00007FA41EC190BFDF782FA804643460122AD
:102FF00000217A48FEF70EF82498FDF76BFA41ECB1
:103000001A0B9FED770B53EC102BFDF7F1F941EC08
:10301000190BFDF76CFA80464346082200216F48E1
:10302000FDF7F8FF2498FDF755FA41EC1A0B9FEDD8
:103030006C0B53EC102BFDF7DBF941EC190BFDF792
:1030400056FA80464346012211466448FDF7E2FFE6
:103050002498FDF73FFA41EC1A0B9FED610B53ECFE
:10306000102BFDF7C5F941EC190BFDF740FA80462E
:103070004346082201215948FDF7CCFF2498FDF76B
:1030800029FA41EC1A0B9FED560B53EC102BFDF770
:10309000AFF941EC190BFDF72AFA804643460122AD
:1030A00002214E48FDF7B6FF2498FDF713FA41ECD4
:1030B0001A0B9FED4B0B53EC102BFDF799F941ECDC
:1030C000190BFDF714FA80464346082202214348B3
:1030D000FDF7A0FF2498FDF7FDF941EC1A0B9FEDD9
:1030E000400B53EC102BFDF783F941EC190BFDF766
:1030F000FEF980464346012203213848FDF78AFF46
:103100002498FDF7E7F941EC1A0B9FED350B53ECD2
:10311000102BFDF76DF941EC190BFDF7E8F980462E
:103120004346082203212D48FDF774FF0120029039
:103130000020019001AA04212848FDF7E3FD10209A
:1031400002900020019001AA01212448FDF7DAFD38
:1031500043208DF8000000208DF802008DF801005A
:1031600001208DF803006846FEF7B0F90123102214
:1031700005211A48FDF763FE4FF4F0111748FEF7DA
:1031800007F805F0010018B103211448FEF712F802
:1031900005F00200022803D10C211048FEF70AF8BE
:1031A00005F00400042803D130210C48FEF702F892
:1031B00005F00800082803D1C0210848FDF7FAFFF0
:1031C0004FF480310548FDF7E3FF07492498086074
:1031D0002AB0BDEC068BBDE8F08100000074014010
:1031E000000000000000E03F5800002010B52DED69
:1031F000028BF0EE408A04461D4890ED000AB8EEBE
:10320000400AF6EE000A20EE200ABCEEC00AB0EE3C
:10321000408AB6EE000A68EE800A90ED000AB8EE29
:10322000401AB8EE480A00EEC10ABCEEC00A10EE21
:10323000103A012221460F48FDF7ECFEB6EE000AD7
:1032400068EE800A0A4890ED000AB8EE401AB8EE1F
:10325000480A00EE810ABCEEC00A10EE103A0822BD
:1032600021460448FDF7D6FEBDEC028B10BD0000E0
:10327000580000200074014070B51C4800684FF4ED
:103280007A72B0FBF2F1481EB0F1807F00D31BE0F0
:10329000481E4FF0E022506150170F22002807DA35
:1032A00013071D0E124B00F00F04241F1D5503E0E1
:1032B00013071C0E0F4B1C5400BF00204FF0E022E0
:1032C00090610720106100BF01214804FEF792FDC4
:1032D00001218804FEF78EFD0121C804FEF78AFD56
:1032E00001210805FEF786FD70BD000038000020B2
:1032F00018ED00E000E400E010B50246012000E017
:1033000050430B1EA1F10104E1B2F9D110BD000040
:10331000000000000000002F000000000700070070
:1033200000147F147F1400242A7F2A12006264088C
:103330001323003649552250000005030000000009
:103340001C224100000041221C000014083E081409
:103350000008083E0808000000A0600000080808F7
:103360000808000060600000002010080402003E11
:103370005149453E0000427F4000004261514946AC
:10338000002141454B31001814127F10002745459C
:103390004539003C4A4949300001710905030036AE
:1033A0004949493600064949291E000036360000C1
:1033B00000005636000000081422410000141414C6
:1033C00014140000412214080002015109060032C1
:1033D0004959513E007C1211127C007F49494936FF
:1033E000003E41414122007F4141221C007F49496A
:1033F0004941007F09090901003E4149497A007F9E
:103400000808087F0000417F4100002040413F0143
:10341000007F08142241007F40404040007F020CA2
:10342000027F007F0408107F003E4141413E007F43
:1034300009090906003E4151215E007F091929460C
:103440000046494949310001017F0101003F4040E8
:10345000403F001F2040201F003F4038403F006396
:1034600014081463000708700807006151494543B8
:1034700000007F41410000552A552A550000414176
:103480007F00000402010204004040404040000070
:1034900001020400002054545478007F484444380A
:1034A00000384444442000384444487F0038545491
:1034B000541800087E0901020018A4A4A47C007F0F
:1034C000080404780000447D4000004080847D00B2
:1034D000007F102844000000417F4000007C041859
:1034E0000478007C0804047800384444443800FC24
:1034F000242424180018242418FC007C0804040840
:1035000000485454542000043F444020003C4040B4
:10351000207C001C2040201C003C4030403C0044EB
:1035200028102844001CA0A0A07C004464544C44F3
:103530001414141414140000000000000000000013
:10354000000000000000000000F800000000000083
:1035500000333000000000100C06100C06000000C4
:1035600000000000000040C07840C0784000043FE8
:1035700004043F040400007088FC083000000018B8
:1035800020FF211E0000F008F000E01800000021DC
:103590001C031E211E0000F00888700000001E2180
:1035A00023241927211010160E000000000000002F
:1035B000000000000000000000E01804020000000D
:1035C00000071820400000020418E000000000403E
:1035D000201807000000404080F0804040000202B8
:1035E000010F01020200000000F0000000000101D4
:1035F000011F01010100000000000000000080B078
:103600007000000000000000000000000000000149
:103610000101010101010000000000000000003074
:10362000300000000000000000008060180400600E
:1036300018060100000000E010080810E000000F6C
:10364000102020100F00001010F8000000000020D3
:10365000203F20200000007008080888700000301B
:1036600028242221300000300888884830000018C3
:10367000202020110E000000C02010F800000007DC
:103680000424243F240000F8088888080800001952
:10369000212020110E0000E0108888180000000F83
:1036A000112020110E0000380808C838080000005A
:1036B000003F000000000070880808887000001CAF
:1036C000222121221C0000E010080810E000000068
:1036D000312222110F00000000C0C00000000000D5
:1036E00000303000000000000080000000000000FA
:1036F00080600000000000008040201008000001F1
:1037000002040810200040404040404040000404B3
:10371000040404040400000810204080000000207D
:10372000100804020100007048080808F0000000BA
:10373000003036010000C030C828E810E00007184B
:10374000272423140B000000C038E0000000203CB8
:1037500023020227382008F8888888700000203F5C
:10376000202020110E00C030080808083800071873
:1037700020202010080008F808080810E000203F6A
:10378000202020100F0008F88888E8081000203F4B
:1037900020202320180008F88888E8081000203F1F
:1037A000200003000000C030080808380000071897
:1037B0002020221E020008F808000008F808203F18
:1037C000210101213F20000808F80808000000201E
:1037D000203F2020000000000808F8080800C080F2
:1037E00080807F00000008F888C028180800203F6B
:1037F00020012638200008F8080000000000203FC3
:1038000020202020300008F8F800F8F80800203FB9
:10381000003F003F200008F830C00008F808203FB3
:10382000200007183F00E01008080810E0000F1003
:10383000202020100F0008F808080808F000203F9A
:10384000210101010000E01008080810E0000F1835
:10385000242438504F0008F8888888887000203F5A
:103860002000030C30200070880808083800003859
:10387000202121221C00180808F808081800000060
:10388000203F2000000008F808000008F808001F8A
:10389000202020201F000878880000C83808000079
:1038A00007380E010000F80800F80008F800033C93
:1038B0000700073C0300081868808068180820305B
:1038C0002C03032C30200838C800C838080000003A
:1038D000203F2000000010080808C83808002038E1
:1038E000262120201800000000FE02020200000035
:1038F000007F40404000000C30C00000000000008D
:1039000000010638C00000020202FE000000004074
:1039100040407F000000000004020202040000009A
:103920000000000000000000000000000000808097
:10393000808080808080000202040000000000007F
:10394000000000000000000080808080000000195E
:10395000242222223F2008F8008080000000003F3F
:10396000112020110E000000008080800000000E59
:10397000112020201100000000808088F800000E37
:10398000112020103F200000808080800000001F58
:10399000222222221300008080F0888888180020CC
:1039A000203F202000000000808080808000006B8D
:1039B00094949493600008F8008080800000203F79
:1039C000210000203F200080989800000000002087
:1039D000203F20200000000000809898000000C0D8
:1039E0008080807F000008F8000080808000203FF9
:1039F00024022D302000000808F8000000000020FC
:103A0000203F202000008080808080808000203F38
:103A100020003F20003F8080008080800000203F09
:103A2000210000203F200000808080800000001FD7
:103A3000202020201F00808000808000000080FF68
:103A4000A12020110E000000008080808000000E68
:103A5000112020A0FF8080808000808080002020B6
:103A60003F21200001000000808080808000003322
:103A7000242424241900008080E0808000000000BD
:103A8000001F202000008080000000808000001FB8
:103A9000202020103F208080800000808080000156
:103AA0000E300806010080800080008080800F308A
:103AB0000C030C300F00008080008080800000200C
:103AC000312E0E3120008080800000808080808137
:103AD0008E701806010000808080808080000021A8
:103AE000302C2221300000000000807C0202000007
:103AF0000000003F404000000000FF000000000008
:103B00000000FF0000000002027C80000000004076
:103B1000403F000000000006010102020404000012
:103B2000000000000000000043EC7F3F0000803FE9
:103B300043EC7F3F0FB17F3F6D4E7F3F6DC47E3FB3
:103B400024137E3FAC3A7D3F283B7C3FBE147B3F35
:103B50009DC7793FF853783F07BA763F0BFA743F19
:103B60004714733F0809713F9ED86E3F5E836C3FD8
:103B7000A7096A3FD86B673F59AA643F98C5613F60
:103B800005BE5E3F1A945B3F5348583F31DB543FBC
:103B90003D4D513F029F4D3F12D1493F03E4453F08
:103BA00070D8413FF9AE3D3F4268393FF304353F9D
:103BB000BB85303F4AEB2B3F5636273F9967223F64
:103BC000D17F1D3FC07F183F2A68133FDA390E3F6F
:103BD0009BF5083F3D9C033F275DFC3EEA5AF13EC2
:103BE0007533E63E80E8DA3ECA7BCF3E15EFC33E32
:103BF0002A44B83ED47CAC3EE59AA03E31A0943E27
:103C0000938E883ECCCF783E135C603EC2C5473E63
:103C1000A2102F3E8340163E73B2FA3D36BDC83D1A
:103C200005A9963D30FB483DB00AC93C0BA88C2441
:103C3000B00AC9BC30FB48BD05A996BD36BDC8BD9C
:103C400073B2FABD834016BEA2102FBEC2C547BED6
:103C5000135C60BECCCF78BE938E88BE31A094BE7C
:103C6000E59AA0BED47CACBE2A44B8BE15EFC3BE54
:103C7000CA7BCFBE80E8DABE7533E6BEEA5AF1BE33
:103C8000275DFCBE3D9C03BF9BF508BFDA390EBF24
:103C90002A6813BFC07F18BFD17F1DBF996722BF9D
:103CA000563627BF4AEB2BBFBB8530BFF30435BF69
:103CB000426839BFF9AE3DBF70D841BF03E445BF8C
:103CC00012D149BF029F4DBF3D4D51BF31DB54BFA3
:103CD000534858BF1A945BBF05BE5EBF98C561BF0D
:103CE00059AA64BFD86B67BFA7096ABF5E836CBF60
:103CF0009ED86EBF080971BF471473BF0BFA74BF1B
:103D000007BA76BFF85378BF9DC779BFBE147BBF93
:103D1000283B7CBFAC3A7DBF24137EBF6DC47EBF01
:103D20006D4E7FBF0FB17FBF43EC7FBF000080BFF0
:103D300043EC7FBF0FB17FBF6D4E7FBF6DC47EBFB1
:103D400024137EBFAC3A7DBF283B7CBFBE147BBF33
:103D50009DC779BFF85378BF07BA76BF0BFA74BF17
:103D6000471473BF080971BF9ED86EBF5E836CBFD6
:103D7000A7096ABFD86B67BF59AA64BF98C561BF5E
:103D800005BE5EBF1A945BBF534858BF31DB54BFBA
:103D90003D4D51BF029F4DBF12D149BF03E445BF06
:103DA00070D841BFF9AE3DBF426839BFF30435BF9B
:103DB000BB8530BF4AEB2BBF563627BF996722BF62
:103DC000D17F1DBFC07F18BF2A6813BFDA390EBF6D
:103DD0009BF508BF3D9C03BF275DFCBEEA5AF1BEC0
:103DE0007533E6BE80E8DABECA7BCFBE15EFC3BE30
:103DF0002A44B8BED47CACBEE59AA0BE31A094BE25
:103E0000938E88BECCCF78BE135C60BEC2C547BE61
:103E1000A2102FBE834016BE73B2FABD36BDC8BD18
:103E200005A996BD30FB48BDB00AC9BC372354A5CF
:103E3000B00AC93C30FB483D05A9963D36BDC83D9A
:103E400073B2FA3D8340163EA2102F3EC2C5473ED4
:103E5000135C603ECCCF783E938E883E31A0943E7A
:103E6000E59AA03ED47CAC3E2A44B83E15EFC33E52
:103E7000CA7BCF3E80E8DA3E7533E63EEA5AF13E31
:103E8000275DFC3E3D9C033F9BF5083FDA390E3F22
:103E90002A68133FC07F183FD17F1D3F9967223F9B
:103EA0005636273F4AEB2B3FBB85303FF304353F67
:103EB0004268393FF9AE3D3F70D8413F03E4453F8A
:103EC00012D1493F029F4D3F3D4D513F31DB543FA1
:103ED0005348583F1A945B3F05BE5E3F98C5613F0B
:103EE00059AA643FD86B673FA7096A3F5E836C3F5E
:103EF0009ED86E3F0809713F4714733F0BFA743F19
:103F000007BA763FF853783F9DC7793FBE147B3F91
:103F1000283B7C3FAC3A7D3F24137E3F6DC47E3FFF
:103F20006D4E7F3F0FB17F3F43EC7F3F0000803FEE
:103F300043EC7F3F0FB17F3FB00AC9BC00000000D7
:103F4000B00AC93C30FB483D05A9963D36BDC83D89
:103F500073B2FA3D8340163EA2102F3EC2C5473EC3
:103F6000135C603ECCCF783E938E883E31A0943E69
:103F7000E59AA03ED47CAC3E2A44B83E15EFC33E41
:103F8000CA7BCF3E80E8DA3E7533E63EEA5AF13E20
:103F9000275DFC3E3D9C033F9BF5083FDA390E3F11
:103FA0002A68133FC07F183FD17F1D3F9967223F8A
:103FB0005636273F4AEB2B3FBB85303FF304353F56
:103FC0004268393FF9AE3D3F70D8413F03E4453F79
:103FD00012D1493F029F4D3F3D4D513F31DB543F90
:103FE0005348583F1A945B3F05BE5E3F98C5613FFA
:103FF00059AA643FD86B673FA7096A3F5E836C3F4D
:104000009ED86E3F0809713F4714733F0BFA743F07
:1040100007BA763FF853783F9DC7793FBE147B3F80
:10402000283B7C3FAC3A7D3F24137E3F6DC47E3FEE
:104030006D4E7F3F0FB17F3F43EC7F3F0000803FDD
:1040400043EC7F3F0FB17F3F6D4E7F3F6DC47E3F9E
:1040500024137E3FAC3A7D3F283B7C3FBE147B3F20
:104060009DC7793FF853783F07BA763F0BFA743F04
:104070004714733F0809713F9ED86E3F5E836C3FC3
:10408000A7096A3FD86B673F59AA643F98C5613F4B
:1040900005BE5E3F1A945B3F5348583F31DB543FA7
:1040A0003D4D513F029F4D3F12D1493F03E4453FF3
:1040B00070D8413FF9AE3D3F4268393FF304353F88
:1040C000BB85303F4AEB2B3F5636273F9967223F4F
:1040D000D17F1D3FC07F183F2A68133FDA390E3F5A
:1040E0009BF5083F3D9C033F275DFC3EEA5AF13EAD
:1040F0007533E63E80E8DA3ECA7BCF3E15EFC33E1D
:104100002A44B83ED47CAC3EE59AA03E31A0943E11
:10411000938E883ECCCF783E135C603EC2C5473E4E
:10412000A2102F3E8340163E73B2FA3D36BDC83D05
:1041300005A9963D30FB483DB00AC93C0BA80C25AB
:10414000B00AC9BC30FB48BD05A996BD36BDC8BD87
:1041500073B2FABD834016BEA2102FBEC2C547BEC1
:10416000135C60BECCCF78BE938E88BE31A094BE67
:10417000E59AA0BED47CACBE2A44B8BE15EFC3BE3F
:10418000CA7BCFBE80E8DABE7533E6BEEA5AF1BE1E
:10419000275DFCBE3D9C03BF9BF508BFDA390EBF0F
:1041A0002A6813BFC07F18BFD17F1DBF996722BF88
:1041B000563627BF4AEB2BBFBB8530BFF30435BF54
:1041C000426839BFF9AE3DBF70D841BF03E445BF77
:1041D00012D149BF029F4DBF3D4D51BF31DB54BF8E
:1041E000534858BF1A945BBF05BE5EBF98C561BFF8
:1041F00059AA64BFD86B67BFA7096ABF5E836CBF4B
:104200009ED86EBF080971BF471473BF0BFA74BF05
:1042100007BA76BFF85378BF9DC779BFBE147BBF7E
:10422000283B7CBFAC3A7DBF24137EBF6DC47EBFEC
:104230006D4E7FBF0FB17FBF43EC7FBF000080BFDB
:1042400043EC7FBF0FB17FBF6D4E7FBF6DC47EBF9C
:1042500024137EBFAC3A7DBF283B7CBFBE147BBF1E
:104260009DC779BFF85378BF07BA76BF0BFA74BF02
:10427000471473BF080971BF9ED86EBF5E836CBFC1
:10428000A7096ABFD86B67BF59AA64BF98C561BF49
:1042900005BE5EBF1A945BBF534858BF31DB54BFA5
:1042A0003D4D51BF029F4DBF12D149BF03E445BFF1
:1042B00070D841BFF9AE3DBF426839BFF30435BF86
:1042C000BB8530BF4AEB2BBF563627BF996722BF4D
:1042D000D17F1DBFC07F18BF2A6813BFDA390EBF58
:1042E0009BF508BF3D9C03BF275DFCBEEA5AF1BEAB
:1042F0007533E6BE80E8DABECA7BCFBE15EFC3BE1B
:104300002A44B8BED47CACBEE59AA0BE31A094BE0F
:10431000938E88BECCCF78BE135C60BEC2C547BE4C
:10432000A2102FBE834016BE73B2FABD36BDC8BD03
:1043300005A996BD30FB48BDB00AC9BC9E3B8DA502
:10434000B00AC93C64430008000000205C00000083
:10435000D8230008C04300085C0000208C11000036
:10436000E82300080000000000000000000000003A
:10437000000070410000000000000000000000008C
:10438000000000000000000000000000000000002D
:1043900090010000000048420000000000A24A0412
:1043A00000000000000000000102030406070809E5
:1043B00000000000000000000000000000000000FD
:040000050800018965
:00000001FF
