:020000040800F2
:1000000028110020A10100085D180008B1130008A4
:1000100059180008490A00083D1F000800000000A8
:10002000000000000000000000000000D11D0008DA
:10003000070C000800000000211D0008991E0008A0
:10004000BB010008BB010008BB010008BB010008A0
:10005000BB010008BB010008090C0008BB01000837
:10006000BB010008BB010008BB010008BB01000880
:10007000BB010008BB010008BB010008BB01000870
:10008000BB010008BB010008BB010008BB01000860
:10009000BB010008BB010008BB010008BB01000850
:1000A000BB010008BB010008BB010008BB01000840
:1000B000BB010008BB01000800000000BB010008F4
:1000C000BB0100080000000000000000BB010008A8
:1000D00000000000BB010008BB010008BB010008D4
:1000E000BB010008BB010008000000000000000088
:1000F0000000000000000000000000000000000000
:1001000000000000000000000000000000000000EF
:100110000000000000000000BB010008BB01000857
:1001200000000000000000000000000000000000CF
:1001300000000000000000000000000000000000BF
:10014000BB010008BB01000800000000010D000811
:10015000BB010008BB010008BB010008BB0100088F
:10016000BB010008BB010008000000000000000007
:10017000000000000000000000000000000000007F
:1001800000000000BB010008DFF810D000F0E0FA2A
:1001900000480047052A0008AFF30080281100201E
:1001A0000648804706480047FEE7FEE7FEE7FEE711
:1001B000FEE7FEE7FEE7FEE7FEE7FEE7A11E00081A
:1001C00089010008D2B201E000F8012B491EFBD2E0
:1001D00070470022F6E710B513460A460446194652
:1001E000FFF7F0FF204610BD2DE9FE4F804681EA63
:1001F0000300C00F0C46009021F0004123F00045A1
:10020000B8EB0200A94105D24046214690461C4663
:100210000B46024623F00040104347D0270DC7F39A
:100220000A00C3F30A510290401A019040286BDA89
:10023000C3F3130040F4801B0098924620B10023C2
:10024000D2EB030A63EB0B0B01985946C0F1400255
:10025000504600F0B7F906460D4650465946019AF9
:1002600000F0CFF910EB08006141002487EA115239
:1002700084EAE7731A4340D0009A62B3019A012AD4
:100280004FEA075215DC001B61EB02014FF0004200
:1002900002EA0752CDE90042001C41F580113246C6
:1002A0002B4600F006FA03B0BDE8F08F4046214629
:1002B000F9E7001B61EB0201001C41F580130018F7
:1002C0005B412018A2F5001747EB030140EAD57007
:1002D000B6196D4111E06D084FEA360645EAC07562
:1002E0004FEA0752001B61EB0201001C41F580112F
:1002F00049084FEA30000019514132462B4603B0FD
:10030000BDE8F04F00F0C6B900980122400000237C
:10031000D0EB020263EBE073009821464FEAE074F1
:10032000B8EB000061EB0401E9E783F000435BE711
:1003300081F0004158E72DE9FE4F81EA030404F003
:10034000004421F0004100944FF0000B23F00043E3
:1003500050EA01045ED052EA03045BD0C3F30A54AE
:10036000C1F30A552C44A4F2F3340194A0FB0254C7
:10037000C1F3130141F48011C3F3130343F4801359
:1003800001FB024400FB034E840A970A44EA8154AD
:1003900047EA8357A4FB076802958D0A05FB07858A
:1003A0004FEA932C04FB0C542705029D4FEA065894
:1003B00047EA1637B5EB08056EEB070C870E920E71
:1003C00047EA811742EA8312A7FB0201B6EB0B0151
:1003D00064EB00042B0D43EA0C335E1844EB1C5015
:1003E000DA465146E7FB0201C5F313044FEA0B332B
:1003F00043EA14534FEA0432019C43EA0603A4F192
:100400000C040294009CCDE900B400F052F903B052
:10041000BDE8F08F00200146F9E72DE9F04D81EAB3
:10042000030404F0004B21F0004514464FF0000A8D
:1004300023F0004150EA050220D054EA01021DD009
:10044000C5F30A570246C5F31303C1F31300C1F302
:100450000A5640F4801543F48013A7EB0608101BDE
:10046000D64608F2FD3873EB050002D308F1010807
:1004700001E092185B41B8F1000F03DA0020014659
:10048000BDE8F08D00204FF48011064684460EE052
:10049000171B73EB050705D3121B63EB050306431C
:1004A0004CEA010C49084FEA300092185B4150EACF
:1004B0000107EDD152EA030012D082EA040083EA78
:1004C0000501084305D0101BAB4106D201220023D1
:1004D00006E000224FF0004302E06FF001025310EB
:1004E0001AEB06004CEB085110EB0A0041EB0B0134
:1004F000BDE8F04D00F0CEB80EB5C10F80EAE07057
:100500000844CA07002140F233438DE80E000A4632
:100510000B4600F0CEF803B000BD0EB540F23341FB
:1005200002910021CDE900110A460B4600F0C1F806
:1005300003B000BDC1F30A5210B5C1F3130140F27C
:10054000FF3341F480119A4201DA002010BD40F2DD
:1005500033439A42A2F2334203DC524200F041F8A4
:1005600010BD904010BD00F0004230F000400AD0B5
:10057000C10D01F56071C0F3160042EA0151C208D5
:1005800040071143704700200146704701F00043C7
:1005900030B421F0004150EA010206D00A0DA2F564
:1005A0006072C1F31301002A02DC30BC00207047E6
:1005B000440F44EAC104C100E01830BC00EBC25053
:1005C00000F031B8202A04DB203A00FA02F10020C2
:1005D00070479140C2F1200320FA03F31943904081
:1005E0007047202A04DB203A21FA02F000217047EC
:1005F00021FA02F3D040C2F120029140084319468B
:100600007047202A06DBCB17203A41FA02F043EA72
:10061000E07306E041FA02F3D040C2F120029140BB
:100620000843194670470029A8BF7047401C49007D
:1006300008BF20F00100704710B4B0FA80FC00FA47
:100640000CF050EA010404BF10BC704749B1CCF172
:10065000200421FA04F411FA0CF118BF01212143FE
:100660000843A3EB0C01CB1D4FEA00614FEA1020B9
:1006700042BF002010BC704700EBC350104400295B
:10068000A4BF10BC7047401C490008BF20F0010007
:1006900010BC704710B5141E73F1000408DA401C3A
:1006A00041F1000192185B411A4301D120F0010091
:1006B00010BD2DE9F04D92469B4611B1B1FA81F281
:1006C00002E0B0FA80F220329046FFF77BFF04464A
:1006D0000F4640EA0A0041EA0B0153465A460843D6
:1006E00013D0114653EA010019D0C8F14002504618
:1006F000FFF777FF05460E46504659464246FFF73C
:1007000061FF084305D0012004E020463946BDE8DA
:10071000F08D0020054346EAE0762C4337430A98E3
:100720006305E40AA0EB08000022FD0A44EA4754EE
:100730000A3002D500200146E9E701051019694198
:10074000DDE9084500196941BDE8F04DA2E7000068
:10075000064C074D06E0E06840F0010394E807000E
:1007600098471034AC42F6D3FFF712FD68410008F9
:100770008841000870B5C1F30A5201F00045002419
:10078000C1F3130140F2FF3341F480119A4201DAC0
:10079000002070BD40F233439A42A2F2334203DCA0
:1007A0005242FFF71EFF00E090402C43F1D0404240
:1007B00070BD21B1826842F00102826003E082686C
:1007C00042F002028260704710B50022B0F1A04FE3
:1007D00002D0124B984204D1114B1A68114B1A40A7
:1007E00003E0114B1A680F4B1A40D1E90034234340
:1007F0008C682343CC6843EA04330C7C43EA04232B
:100800001A43B0F1A04F02D0044B984202D1044BDE
:100810001A6001E0044B1A6010BD00000001005096
:1008200008030050E010FCFF0807005021B1C26827
:1008300042F00102C26003E0C26822F00102C2601D
:100840007047C26822F00202C260C2680A43C260F6
:100850007047000010B50446B4F1A04F02D00E4816
:10086000844209D10121080701F084FA00214FF0E8
:10087000805001F07FFA0EE00848844202D0084818
:10088000844208D10121480701F074FA00214FF099
:10089000005001F06FFA10BD00010050000400503C
:1008A00000050050014600208A6802F000420AB1AB
:1008B000012000E0002070470246002013680B4032
:1008C0000BB1012000E000207047000010B5024687
:1008D0000020D0680C4B1840D1E9003423438C68C9
:1008E0002343CC6823430C6923434C6923438C691D
:1008F00023431843D060106B20F00F000B7F5B1E6A
:100900001843106310BD000007C0FFFDF0B50C4692
:100910001D4600BF00BF052A0FDA016B02EB42063D
:1009200077001F2606FA07F3994302EB420676008A
:1009300004FA06F3194301633CE00A2A11DA416B19
:10094000561F06EB460677001F2606FA07F3994363
:10095000561F06EB4606760004FA06F31943416378
:1009600028E00F2A13DA816BA2F10A0606EB46068D
:1009700077001F2606FA07F39943A2F10A0606EB51
:100980004606760004FA06F31943816312E0C16B50
:10099000A2F10F0606EB460677001F2606FA07F3BC
:1009A0009943A2F10F0606EB4606760004FA06F319
:1009B0001943C163092C14DD8169A4F10A0606EB11
:1009C0004607072606FA07F386699E43866186690D
:1009D000A4F10A0707EB470705FA07F73E438661CC
:1009E00010E04169661E06EB4607382606FA07F353
:1009F00046699E434661466904EB440705FA07F7DA
:100A00003E434661F0BD826822F080428260826887
:100A10000A4382607047816841F0004181607047FD
:100A2000816841F0040181607047826822F0405281
:100A3000826021B1826842F08052826003E0826865
:100A400042F000528260704700BFFEE721B10268A9
:100A500042F00102026004E002684FF6FE731A40A1
:100A60000260704701684FF6FE721140016000217C
:100A7000016041608160C1604B49884208D14A49A8
:100A80000839496841F00F01474A083A51608AE045
:100A900045491431884208D143490839496841F031
:100AA000F001414A083A51607DE03F4928318842CF
:100AB00008D13D490839496841F470613A4A083A19
:100AC000516070E038493C31884208D136490839D4
:100AD000496841F47041344A083A516063E0324950
:100AE0005031884208D130490839496841F47021B1
:100AF0002D4A083A516056E02B496431884208D1AA
:100B000029490839496841F47001274A083A516077
:100B100049E025497831884208D123490839496894
:100B200041F07061204A083A51603CE01F49884218
:100B300006D1011F096841F00F01021F116032E068
:100B40001A491431884208D11849091F096841F02F
:100B5000F001164A121F116025E01449283188421D
:100B600008D11249091F096841F470610F4A121F28
:100B7000116018E00D493C31884208D10B49091F2A
:100B8000096841F47041094A121F11600BE00749DE
:100B90005031884207D10549091F096841F4702185
:100BA000024A121F11607047080002400804024008
:100BB00010B50022026847F6F0739A430C6A8B68FE
:100BC00023430C6923434C6923438C692343CC6939
:100BD00023434C6A23438C6A23431A4302608B8964
:100BE00043600B6883604B68C36010BD00210160E7
:100BF000416081608181016141618161C161016206
:100C000041628162704770477047F0B50A46002123
:100C100000240025002300BF3FE0012606FA01F46E
:100C2000166806EA0405A54236D11679012E02D0CF
:100C30001679022E18D186684FEA410C032707FA6D
:100C40000CF7BE43866056794F00BE4087683E432E
:100C50008660868801278F40BE4386808788967984
:100C60008E40B6B23743878006684FEA410C0327AF
:100C700007FA0CF7BE43066016794F00BE400768BE
:100C80003E430660C3684F000326BE40B343D67997
:100C90004F00BE403343C360491C1029BDD3F0BD93
:100CA000F0B5002300244D07ED0E02FA05F3CE1037
:100CB00000F1200555F826504E07F70E0F26BE40CE
:100CC000B543CF1000F1200646F82750CE1000F1B2
:100CD000200555F8265045EA0304CE1000F1200502
:100CE00045F82640F0BD02460020138A0B400BB1A8
:100CF000012000E000207047018570478161704746
:100D000010B501F003F83F4890ED000A3E4880ED31
:100D10000A0A3C4890ED010A3B4880ED0B0A39482D
:100D200090ED020A384880ED0C0A384B5A8E198D26
:100D3000D88B01F01FFE00EE100AF8EE400A9FED7E
:100D4000341A9FED340A00EE810A2F4880ED000A24
:100D50002E4B9A8E598D188C01F00CFE00EE100A65
:100D6000F8EE400A9FED2A1A9FED2B0A00EE810A49
:100D7000254880ED010A254BDA8E998D588C01F0BB
:100D8000F9FD00EE100AF8EE400A9FED241A9FEDDF
:100D9000240A00EE810A1C4880ED020A1B4B1A8FC0
:100DA000D98D988C01F0E6FD00EE100AF8EE400AAD
:100DB0009FED1C1ABAEE090A00EE810A124880ED76
:100DC000030A124B9A8A5989188801F0D3FD00EE64
:100DD000100AF8EE400A9FED131ABAEE090A00EE67
:100DE000810A094880ED040A00F095FC00F01EFB22
:100DF0000D48D0ED000AB0EE600A022002F060FC5F
:100E000010BD0000C80000205C000020E8000020A9
:100E1000DEFFC73C00000000000048C2EF33533B38
:100E20003333D3C0DEFFC73B9000002030B503460C
:100E3000D3F88003012906D002290DD0042915D04A
:100E4000082927D11CE020F4E020146820434FF447
:100E50006F745568E5501EE020F46010146840EA95
:100E6000C4004FF470745568E55014E020F0E07051
:100E7000146840EA84104FF471745568E55000BF5F
:100E800020F06060146840EA44204FF472745568A2
:100E9000E55000E000BF00BFC3F8800330BD10B5CF
:100EA000062918D2DFE801F00708090A0B03836856
:100EB0001343836010E000BF00BF00BF00BF00F11C
:100EC000800303EBC1139B68134300F1800404EB20
:100ED000C114A36000E000BF00BF10BD02464FF484
:100EE000737398584B1C23B920F0020040F00100A6
:100EF00004E020F00D0041F0020318434FF4737337
:100F00009850704710B5034603F1800404EBC114F8
:100F1000A06B0E4C2040146840EA842054682043A3
:100F20009468204314692043D4682043948A40EA9B
:100F3000044094692043146A2043D469204303F198
:100F4000800404EBC114A06310BD00000020FF3D2D
:100F5000024600204FF462739B580B400BB10120F6
:100F600000E00020704730B506292AD2DFE801F002
:100F70000C0D0E0F10031BB1C4681443C46002E0D3
:100F8000C4689443C4601DE000BF00BF00BF00BF41
:100F90005BB100F1800404EBC114E468144300F178
:100FA000800505EBC115EC600AE000F1800404EB5C
:100FB000C114E468944300F1800505EBC115EC60B1
:100FC00000E000BF00BF30BD026822F007020260EF
:100FD00002688B681A430260026822F018020260FD
:100FE0000268CB681A4302600A6842614A688261FB
:100FF0007047012906D0022906D0042906D0082905
:1010000008D105E0C26106E0426204E0826202E0CB
:10101000C26200E000BF00BF704710B50246106812
:101020004FF46874A35820F020000C68204320F48B
:1010300000604C68204320F480608C68204320F0DE
:10104000C060CC68204320F000600C69204320F091
:1010500040404C6940EA840020F00050CC692043B5
:1010600023F480338C69234310604FF46874A350D9
:1010700010BDF0B504461546002204F1800606EBCB
:10108000C116706E202D2CD00CDC042D16D004DC83
:10109000012D12D0022D34D121E0082D20D0102DA9
:1010A0002FD10CE0402D0BD0802D1BD0B5F5807FCB
:1010B00007D0B5F5007F24D115E000BF00BF00BF09
:1010C00000BF04F1800606EBC1165F68F76304F108
:1010D000800606EBC1169F683764002212E000BF4D
:1010E00000BF00BF00BF04F1800606EBC1165F68B9
:1010F000776404F1800606EBC1169F68B76410227E
:1011000000E000BF00BFFE269640B0431E68964038
:101110003043DE68964030431E69964030435E6936
:10112000964030439E6996403043DE699640304396
:1011300004F1800606EBC1167066F0BD10B5012AF9
:1011400006D0022A0AD0042A0ED0082A18D111E0AB
:1011500000F1800404EBC114E36112E000F18004AB
:1011600004EBC11463620CE000F1800404EBC114D1
:10117000A36206E000F1800404EBC114E36200E026
:1011800000BF00BF10BD10B500F1800303EBC11319
:101190001B6823F0070400F1800303EBC1131C60FC
:1011A00000F1800303EBC1131B689468234300F133
:1011B000800404EBC114236000F1800303EBC1132E
:1011C0001B6823F0180400F1800303EBC1131C60BB
:1011D00000F1800303EBC1131B68D468234300F1C3
:1011E000800404EBC114236000F1800303EBC113FE
:1011F00014685C6100F1800303EBC11354689C61C7
:1012000010BD30B504460B4604F1800505EBC3154F
:1012100028684FF46875295920F020001568284384
:1012200020F400605568284320F4806095682843C6
:1012300020F0C060D568284320F00060156928437D
:1012400020F070405569284320F40030D569B5F18D
:10125000005F01D140F40030052B22D2DFE803F01B
:1012600003090F151B0021F40031956941EA45017E
:1012700018E021F48021956941EA850112E021F40A
:101280000021956941EAC5010CE021F480119569BE
:1012900041EA051106E021F40011956941EA451182
:1012A00000E000BF00BF04F1800505EBC315286016
:1012B0004FF46875295130BD02680A4302607047D7
:1012C0002DE9F04104460D4616461F463B46324680
:1012D00029462046FFF7CDFEBDE8F0814FF4657248
:1012E00011507047F0B500F1800707EBC1173B685C
:1012F00000F1800707EBC117BC6E00F1800707EB18
:10130000C1177D6E00F1800707EBC1177E6D23F0DA
:10131000400317683B4323F48023D7693B4323F002
:10132000FC7357693B4324F01F04177907F01F072C
:101330003C4324F0004497683C4325F48075D7680B
:101340003D4325F4F05517693D43966900F1800748
:1013500007EBC1173B6000F1800707EBC117BC66C4
:1013600000F1800707EBC1177D6600F1800707EBEE
:10137000C1177E65F0BD2DE9F04107460D461646C2
:101380001C46052D08D131463846FFF71DFE214683
:101390003846FFF742FE09E0324629463846FFF755
:1013A000F2FE224629463846FFF72BFFBDE8F081C2
:1013B00000BFFEE710B54FF480710948FFF79EFCAF
:1013C0004FF400710648FFF799FC4FF40071044890
:1013D000FFF792FC4FF480710148FFF78DFC10BDC0
:1013E0000004004810B54FF480710748FFF786FCF1
:1013F0004FF400710448FFF77FFC4FF4007102487E
:10140000FFF77CFC10BD00000004004810B54FF44D
:1014100080710448FFF772FC4FF480710148FFF7B8
:101420006BFC10BD000400487047000070B52DED46
:101430000E8BA14890ED010A10EE101A0846FFF736
:1014400092F841EC1A0BB0EE4A0AF0EE6A0A20F06C
:10145000004000EE100AB8EEC00AF0EE408A28EE16
:10146000A80A9648D0ED040A9FED951A01EE600A8D
:10147000DFED940A80EE201AF0EE419A90ED040A16
:1014800030EE290A10EE101A0846FFF76CF841EC0E
:101490001C0BB0EE4C0AF0EE6C0A02F0AAF90546FD
:1014A000FFF72AF841EC1B0B9FED870B53EC102B39
:1014B000FEF73EFF41EC1A0BFFF768F804462046A2
:1014C000FFF751F841EC1B0B9FED810B53EC102BF8
:1014D000FEF731FF41EC1A0BFFF758F800EE100A47
:1014E0007648D0ED010A30EE600ADFED7B0A20EE8F
:1014F000200AB0EE40EA2046FFF735F841EC1B0B1E
:101500009FED760B53EC102BFEF715FF41EC1A0BF9
:10151000FFF73CF800EE100A6848D0ED000A30EE04
:10152000200A30EE0E0AB0EE408AB2EE040AB4EEA3
:10153000C08AF1EE10FA04DDB2EE040AB0EE408A81
:101540000AE09FED680AB4EEC08AF1EE10FA03D209
:101550009FED640AB0EE408A584890ED050AB8EE57
:10156000C00A10EE101A0846FEF7FDFF41EC1D0BF5
:101570009FED5D0B53EC102BFEF7DDFE41EC1C0BD9
:101580009FED5B0B53EC102BFEF7D5FE41EC1B0BD4
:101590009FED590B53EC102BFEF73FFF41EC1A0B5C
:1015A000B0EE4A0AF0EE6A0A02F01BF900EE100AE9
:1015B000F8EEC00A404890ED030A10EE880AF0EEFB
:1015C000408A3E4890ED030ADFED4D0A10EEA80A6E
:1015D000DFED410A20EE209A90ED020ADFED490A84
:1015E00000EEA80A30EE090AB0EE408A9FED460AE6
:1015F000B4EEC08AF1EE10FA05DD9FED430A4348D0
:1016000080ED000A0FE09FED370AB4EEC08AF1EEDC
:1016100010FA05D29FED330A3C4880ED000A02E043
:101620003A4880ED008A2548C0ED049A2046FEF72E
:101630009AFF41EC1B0B9FED2C0B53EC102BFEF78C
:101640007AFE41EC1A0BFEF7A1FF00EE100A1B48D0
:10165000D0ED000A9FED2E1A40EE010AC0ED000AFF
:1016600090ED010ADFED2A0A00EE8E0A80ED010AF4
:101670004069401C1149486108464069B0F5C87F7F
:1016800001D1002048610D4890ED020ADFED120AF9
:1016900068EEA00A9FED1E1A00EE810A80ED020A94
:1016A00090ED030ADFED1A0A00EE890A80ED030AC5
:1016B000BDEC0E8B70BD00005C00002044000020DB
:1016C00000E0F9C40020FA440000000000002E40B1
:1016D00000000000000000000000C842FCA9F1D298
:1016E0004D62603FCDCC4C3D00000000000000404A
:1016F000182D4454FB2109400000000000007940EF
:10170000000000000AD7233C3333733F90000020D1
:1017100017B75138704770471CB501200090002062
:101720008DF8040003208DF8050001208DF80700D6
:1017300069461148FFF769FA0220009000208DF8F1
:10174000040003208DF8050001208DF8070069468C
:101750000948FFF75AFA0420009000208DF8040091
:1017600003208DF8050001208DF807006946024826
:10177000FFF74BFA1CBD00000004004810B50446FA
:1017800001211548FFF7AFFA48B102211248FFF7CF
:10179000AAFA20B104211048FFF7A5FAC8B90A2017
:1017A00001F0D0F801210C48FFF79DFA08B901209B
:1017B00010BD02210848FFF796FA08B90220F7E7A2
:1017C00004210548FFF78FFA08B90320F0E700204D
:1017D000EEE70020ECE70000000400481CB54FF4E1
:1017E0000040009001208DF8040000208DF80600D4
:1017F00001208DF8070003208DF805006946154883
:10180000FFF703FA4FF48040009001208DF80400A8
:1018100000208DF8060001208DF8070003208DF8C8
:10182000050069460B48FFF7F0F94FF400500090AF
:1018300001208DF8040000208DF8060001208DF8AD
:10184000070003208DF8050069460248FFF7DDF91F
:101850001CBD00000008004800BFFEE77047000004
:1018600070B5002100230F22C47804B3154C2468FE
:1018700004F4E064C4F5E064210AC1F10403CA4041
:10188000447804FA03F184781440214309010E4C92
:101890000678A155047804F01F050124AC400578B2
:1018A0006D11AD0005F1E025C5F8004109E00478AF
:1018B00004F01F050124AC40044D0678761145F86C
:1018C000264070BD0CED00E000E400E080E100E0A7
:1018D00070B5002418E004F1B000002100F00AFA0D
:1018E0000021084600F006FA0021102000F002FA5C
:1018F000002505E00121002000F0FCF9681CC5B2BC
:10190000802DF7DB601CC4B2082CE4DB70BD000046
:101910001CB54FF44070009001208DF804000020A9
:101920008DF8060001208DF8070003208DF80500D2
:1019300069463C48FFF769F94FF440713948FFF7B1
:10194000DDF94FF4487000F0FDFF0021AE2000F0FB
:10195000D1F90021084600F0CDF90021102000F057
:10196000C9F90021402000F0C5F90021B02000F0A5
:10197000C1F90021812000F0BDF90021FF2000F015
:10198000B9F90021A12000F0B5F90021A62000F04E
:10199000B1F90021A82000F0ADF900213F2000F0AE
:1019A000A9F90021C82000F0A5F90021D32000F0FA
:1019B000A1F90021084600F09DF90021D52000F092
:1019C00099F90021802000F095F90021D82000F03D
:1019D00091F90021052000F08DF90021D92000F0B7
:1019E00089F90021F12000F085F90021DA2000F0CA
:1019F00081F90021122000F07DF90021DB2000F0A8
:101A000079F90021302000F075F900218D2000F0D7
:101A100071F90021142000F06DF90021AF2000F0D1
:101A200069F91CBD0004004870B504460D4605F177
:101A3000B000002100F05EF9102141EA14100021ED
:101A400000F058F904F00F00002100F053F970BDC8
:101A50002DE9F04707460E4690469946002500249A
:101A6000A8F12000C5B27F2F02DD0027B01CC6B24E
:101A7000B9F1100F24D131463846FFF7D5FF0024C5
:101A800008E004EB0511194A505C012100F032F91D
:101A9000601CC4B2082CF4DB701CC1B23846FFF7DE
:101AA000C3FF002409E004EB051108310F4A505C24
:101AB000012100F01FF9601CC4B2082CF3DB12E016
:101AC00031463846FFF7B0FF00240AE005EB450138
:101AD000074A02EB4101085D012100F00BF9601C8F
:101AE000C4B2062CF2DBBDE8F0870000583A0008CB
:101AF000303800082DE9FF5F074691461E460E9DCF
:101B00004FF0000A002437E0301B401EC1B20A200B
:101B100001F05CFE99FBF0F00A2190FBF1F201FB71
:101B2000120000F0FF08BAF1000F14D1701EA0429D
:101B300011DDB8F1000F0CD1AB4605EBDB7149109C
:101B400001FB0471C8B22B4620220199FFF780FFE8
:101B500010E04FF0010AAB4605EBDB71491001FBC9
:101B60000471C8B208F13001CAB22B460199FFF7DF
:101B70006FFF00BF601CC4B2B442C5DBBDE8FF9F6D
:101B80002DE9FF5F074691461E460E9D4FF0000A65
:101B9000002435E0301B401EC1B20A2001F016FEC1
:101BA000B9FBF0F00A21B0FBF1F201FB1208BAF127
:101BB000000F14D1701EA04211DDB8F1000F0CD13E
:101BC000AB4605EBDB71491001FB0471C8B22B4633
:101BD00030220199FFF73CFF10E04FF0010AAB46BD
:101BE00005EBDB71491001FB0471C8B208F130014B
:101BF000CAB22B460199FFF72BFF00BF601CC4B28D
:101C0000B442C7DBBDE8FF9F2DE9FF4F2DED020B6E
:101C10002DED048B81B00546B0EE408A16461C4679
:101C20004FF0000A4FF00109B5EEC08AF1EE10FA4C
:101C300002DBF0EE488A01E0F1EE488ABDEEE80AE8
:101C400010EE107ABDEEE80AB8EEC00A38EEC09A7F
:101C50004FF0000A07E009EB89004FEA40090AF15A
:101C6000010000F0FF0AB245F5DB00EE109AB8EE75
:101C7000C00A29EE000AB0EE409ABDEEC90A10EE85
:101C8000108AB5EEC08AF1EE10FA06D223462D2254
:101C900028460899FFF7DCFE05E023462B2228465C
:101CA0000899FFF7D5FEA34604EBDB7105EB610154
:101CB000C8B202233A4600940899FFF71BFF04EBD1
:101CC000440B0BEBDB7105EB6101C8B223462E22FE
:101CD0000899FFF7BDFE05EB4401C8B23346424602
:101CE00000940899FFF74CFF01B0BDEC048B06B0DF
:101CF000BDE8F08F70B504460D461DB1E0B200F0AE
:101D000063F902E0E0B200F049F970BD10B51022AD
:101D100005210248FFF7C3F810BD00000074014020
:101D2000704700000021010F31B1094AD26A22F444
:101D30007852074BDA6205E0054AD26A22F4F8725B
:101D4000034BDA62024AD26A0243014BDA627047FD
:101D50000010024029B1064A52690243044B5A61FD
:101D600004E0034A52698243014B5A617047000004
:101D70000010024029B1064A926A0243044B9A625B
:101D800004E0034A926A8243014B9A627047000062
:101D90000010024029B1064A92690243044B9A613D
:101DA00004E0034A92698243014B9A617047000044
:101DB000001002400549096B21F48051034A116368
:101DC0001146096B01431163704700000010024087
:101DD000704700000CB50020019000902C4800686E
:101DE00040F480302A49086000BF2948006800F4A8
:101DF000003000900198401C0190009818B901989B
:101E0000B0F5A04FF1D12248006800F4003010B1C5
:101E10000120009001E0002000900098012836D1B8
:101E200012201C4908601A48406819494860084651
:101E3000406848600846406840F480604860084652
:101E4000406820F47C1048600846406840F4E81080
:101E500048600846006840F08070086000BF0C4889
:101E6000006800F000700028F9D00948406820F0B0
:101E70000300074948600846406840F00200486097
:101E800000BF0348406800F00C000828F9D10CBDE1
:101E9000001002400020024010B500F043F810BDD1
:101EA00010B51B48006840F47000194908601948D3
:101EB000006840F00100174908600846406816496C
:101EC0000840144948600846006814490840114910
:101ED00008600846006820F48020086008464068D2
:101EE00020F4FE0048600846C06A20F00F00C86277
:101EF0000846006B0A4908400649086300208860CC
:101F0000FFF768FF4FF0006001498039086010BD9D
:101F100088ED00E0001002400CC07FF8FFFFF6FEE5
:101F2000CCFC00FF0448006820B103480068401E54
:101F300001490860704700003000002000BFFEE744
:101F40002DE9F04105462C464FF480711248FEF70A
:101F5000D3FE00261CE0274607F08007802F04D11F
:101F6000B9000D48FEF7CAFE04E04FF400710A48BC
:101F7000FEF7C2FE6006040E4FF480710648FEF7BD
:101F8000BDFE4FF480710448FEF7B6FE701CC6B269
:101F9000082EE0DBBDE8F0810004004810B50446DF
:101FA000FFF708FA7820FFF7CBFFFFF72FFA0020A2
:101FB000FFF7C6FFFFF72AFA2046FFF7C1FFFFF73A
:101FC00025FAFFF70FFA10BD10B50446FFF7F2F936
:101FD0007820FFF7B5FFFFF719FA4020FFF7B0FFB1
:101FE000FFF714FA2046FFF7ABFFFFF70FFAFFF7F2
:101FF000F9F910BD03B401984100009850EAC120DE
:1020000018BF04204A0D18BF40F0010040F2FF72D3
:10201000B2EB515F08BF40F00200012808BF052065
:1020200002B070470000000010B52F499FED2C1B37
:102030002DED020B84B0059820F000408842DCBFF3
:1020400000209DED040B32DD2849884209D1049817
:1020500040B94FF0010000F06FFC00F03DFC06B00D
:1020600010BD05DB9DED040B00F02AFC06B010BD91
:1020700068469DED040B00F03BF810F0030011D012
:10208000012818D09DED021B9DED000B02281AD0EF
:1020900000F04AFA51EC100B81F0004106B041EC1F
:1020A000100B10BD9DED021B9DED000B012000F0FB
:1020B0006FFB06B010BD9DED021B9DED000B00F007
:1020C00033FA06B010BD012000F062FB51EC100B9A
:1020D00081F0004106B041EC100B10BD0000000083
:1020E0000000000000000000FB21E93F0000F07F3D
:1020F0002DE9F14F04462DED020B2DED088B8AB032
:102100009FEDE70B80ED020B139EE74826F000459C
:1021100085420ADC9DED120B002084ED000B0AB015
:10212000BDEC088B03B0BDE8F08FE0489FEDE0AB5D
:102130009FEDE1BBA84247DDE14F9FEDE39B9FEDA3
:10214000E48B9DED120B53EC1A2B51EC100B002E6F
:102150001CDDFEF7EAF841EC100BBD4208D053EC51
:102160001B2B51EC100BFEF7E0F8C4E900010BE06B
:1021700053EC192B51EC100BFEF7D7F853EC182B3E
:10218000FEF7D3F8C4E900010120C8E7FEF72CF8F8
:1021900041EC100BBD4208D053EC1B2B51EC100B43
:1021A000FEF722F8C4E900010BE053EC192B51ECC7
:1021B000100BFEF719F853EC182BFEF715F8C4E9CD
:1021C00000014FF0FF30AAE7C348A84279DB9DED3C
:1021D000120B51EC100B00F0C1FB41EC180B9FED02
:1021E000C00B53EC102BFEF7A6F89FEDBF1B53EC72
:1021F000112BFDF7F9FFFEF7BDFA0746FEF77CF954
:1022000041EC190B53EC1A2BFEF795F853EC182BF5
:10221000FEF78EF841EC180B53EC1B2B51EC190B0D
:10222000FEF789F8DFF8C8A241EC100B4FEA155809
:102230000125FA4453EC102B51EC180BFEF775F8FE
:10224000032DC4E900013DD0C1F30A5005EB45114F
:10225000A8EB00001139814234DA0AEB051BB0EE1D
:1022600048AA9BED000BF0EE68AA53EC102B51EC42
:10227000190BFEF760F841EC1B0B51EC1A0B53ECF9
:102280001B2BFEF752F841EC180B51EC1A0B53ECD8
:10229000182BFEF74AF853EC1B2BFEF746F89BED84
:1022A000020B41EC1A0B53EC102B51EC190BFEF7FF
:1022B00042F853EC1A2BFEF738F841EC100B6D1C6A
:1022C000B8E70EE0002EA8BF3846BFF628AF94ED61
:1022D000000B51EC100B81F00041C4E90001784281
:1022E0001DE7C6F3130040F4801EC6F30A50A0F2A7
:1022F000F530471100F01F05C5F12000DDF848B0AA
:1023000008900020069007900520EC467949002DA2
:1023100007EB0002794408BF51F8221009D051F8A8
:10232000223001EB8201AB404A68089922FA01F1A0
:102330001943A1FB0E26A1FB0B131A449A4234BF8A
:102340000123002303EB06080CEB8003D3E901A66D
:102350000E448E4234BF0121002192448A4411B1BF
:10236000924502D903E0924501D2012100E000210B
:10237000C3E901A641444CF82010011EA0F1010060
:10238000C4DC029800F10050850F0298DDE9036774
:102390008000DDF81480FEF7AFF841EC1A0B3046F0
:1023A000FEF7BBF89FED541B53EC112BFDF7C3FF59
:1023B00041EC1B0B3846FEF7B0F89FED511B53EC78
:1023C000112BFDF7B8FF41EC180B4046FEF7A5F8BE
:1023D0009FED4D1B53EC112BFDF7ADFF41EC190B9D
:1023E00051EC180B53EC192BFDF7FEFE53EC1B2B95
:1023F000FDF7FAFE53EC1A2BFDF7F6FECDE90801C6
:10240000002008909DED080B53EC1A2B51EC100B9B
:10241000FDF78BFF53EC1B2BFDF787FF53EC182BBD
:10242000FDF783FF53EC192BFDF782FF9FED381B5F
:1024300053EC112BFDF77FFF9FED370B41EC180B91
:1024400053EC102B9DED080B51EC100BFDF773FFB7
:1024500053EC182BFDF7C8FE9FED310B41EC180B28
:1024600053EC102B9DED080B51EC100BFDF763FFA7
:1024700053EC182BFDF7B8FE41EC100B139810F03D
:10248000004F06D06D4251EC100B81F0004141EC41
:10249000100B284684ED000B41E600000000000010
:1024A0000000000000000000FB21E93F7CD9024051
:1024B00000004054FB21F93F3163621A61B4D03D02
:1024C000FB21F93F000000000000601A61B4D03D1C
:1024D0007370032E8A19A33BFB21394100000000D1
:1024E00083C8C96D305FE43F000000000000E03F9A
:1024F000421E0000901D0000000000000000103E81
:10250000000000000000103C000000000000103A35
:10251000182D4454FB21F93D3326A611460B113CDE
:1025200000000054FB21F93D10B52DED040B2DEDFD
:10253000088B82B0B0EE419AF0EE619A0B9820F0D1
:1025400000449FED4BABB4F1795F11DA9DED0A0BBE
:1025500051EC100BFEF70EF9002801BFB0EE4A0A4D
:10256000F0EE6A0A02B0BDEC088B04BF04B010BDE7
:102570009DED0A0B53EC102B51EC100BFDF7DBFE1D
:1025800041EC180B3C480621B0EE480AF0EE680A10
:10259000784400F081F853EC182B51EC100BFDF748
:1025A000CAFE9DED0A0B41EC1B0B53EC192B51ECB1
:1025B000100BFDF7C0FE41EC190B53EC1B2B51EC3B
:1025C000180BFDF7B8FE53EC192BFDF7AEFE9FED8F
:1025D0002C0B41EC190B53EC102B51EC180BFDF7A5
:1025E000AAFE41EC100B2848844210DA53EC192B58
:1025F00051EC100BFDF799FE53EC1A2BFDF798FEEA
:1026000041EC100B02B0BDEC088B04B010BD1F48AC
:10261000A042BCBF9FED1E1B8DED001B06DBA4F589
:1026200000100190002000909DED001B51EC100B5C
:1026300053EC112BFDF779FE9DED000B41EC180BCF
:1026400053EC102B51EC1A0BFDF76FFE41EC1A0BFB
:1026500053EC192B51EC180BFDF767FE53EC1A2BBA
:10266000FDF766FE41EC100BCCE700000000000017
:10267000000000000000F03FB41A0000000000005D
:10268000000000000000E03F3333D33F0000E93F8B
:10269000000000000000D23F70B504462DED028B13
:1026A0004D1E00EBC500B0EE408AF0EE608A90ED62
:1026B000000B35F0060017D053EC182B51EC100B23
:1026C000FDF739FE41EC100B6D1E04EBC50090EDDB
:1026D000001B51EC100B53EC112BFDF785FD41EC69
:1026E000100B35F00600E7D1022D36D0042D1CD09A
:1026F000062D1CBFBDEC028B70BD53EC182B51ECAA
:10270000100BFDF718FE94ED0A1B53EC112BFDF78F
:102710006BFD53EC182BFDF70EFE94ED081B53ECEC
:10272000112BFDF761FD41EC100B53EC182B51EC14
:10273000100BFDF700FE94ED061B53EC112BFDF77B
:1027400053FD53EC182BFDF7F6FD94ED040B53EC01
:10275000102BFDF749FD41EC100B53EC182B51ECFD
:10276000100BFDF7E8FD94ED021B53EC112BFDF768
:102770003BFD53EC182BFDF7DEFD94ED001B53ECF5
:10278000112BFDF731FDBDEC028B41EC100B70BD40
:1027900031B504462DED040B2DED0A8BB0EE41BA98
:1027A000F0EE61BA0B989DED0A0B20F00040B0F1FD
:1027B000795F0DDA51EC100BFFF71CFC042808BF01
:1027C00000F09AF89DED0A0BBDEC0A8B05B030BD08
:1027D00053EC102B51EC100BFDF7ADFD41EC180B39
:1027E0009DED0A0B53EC182B51EC100BFDF7A3FDDC
:1027F00041EC190B2C48B0EE480AF0EE680A0521AE
:102800007844FFF749FF9FED2ACBB0EE40AAF0EEE7
:1028100060AA9CB353EC1C2B51EC190BFDF78BFDFC
:1028200041EC1C0B53EC1A2B51EC190BFDF783FDFB
:102830009FED210B41EC190B53EC102B51EC1B0BB2
:10284000FDF779FD53EC192BFDF76FFD53EC182BB9
:10285000FDF771FD53EC1B2BFDF767FD53EC1C2BB3
:10286000FDF763FD9DED0A1B53EC112BFDF760FD99
:10287000BDEC0A8B05B041EC100B30BDFFE753EC0B
:102880001A2B51EC180BFDF756FD53EC1C2BFDF7E2
:10289000ABFC53EC192BFDF74EFD9DED0A1B53ECE1
:1028A000112BFDF7A1FCE3E73C190000000000003C
:1028B000495555555555C5BF000000000000E03F83
:1028C00010B553EC102B51EC100BFDF78DFC41ECC7
:1028D000100B10BD000000009FED050B10B553EC70
:1028E000102B51EC100BFDF798FD41EC100B10BDB7
:1028F00000000000000000009FED050B10B553EC38
:10290000102B51EC100BFDF716FD41EC100B10BD18
:10291000000000000000001002E008C8121F08C1FB
:10292000002AFAD170477047002001E001C1121F50
:10293000002AFBD170470000014908607047000081
:102940004000002001B504490098086000BF02481B
:1029500000680028FBD108BD3000002082B0CDE91E
:10296000000121F0004001909DED000B02B051EC00
:10297000100B704703468B4209DD914201DD08468A
:1029800070479A4201DD1846FAE71046F8E791428F
:1029900001DA0846F4E79A4201DA1846F0E71046F1
:1029A000EEE700004FF40040014908807047000046
:1029B000280800484FF400400149086070470000B3
:1029C000180800484FF48040014908807047000013
:1029D000280800484FF48040014908607047000013
:1029E000180800484FF40050014908807047000063
:1029F000280800484FF40050014908607047000063
:102A00001808004800F096FA01E000F001F8FCE731
:102A100010B56420FFF796FF0020FEF7AFFE444993
:102A200008700846007801280CD1B7EE000A41482A
:102A300080ED000A9FED400A80ED010A9FED3E0AFD
:102A400080ED020A3A48007802280CD19FED3A0A3C
:102A5000384880ED000AB7EE000A80ED010A9FEDCC
:102A6000360A80ED020A3248007803280CD19FED27
:102A7000320A304880ED000A9FED2F0A80ED010AEE
:102A8000B7EE000A80ED020A2C48D0ED040AB0EE41
:102A9000600A1023042200210846FFF7B5F82748F2
:102AA000D0ED050AB0EE600A1023042202210020B6
:102AB000FFF7AAF82148D0ED060AB0EE600A10230D
:102AC000042211460020FFF79FF81C48D0ED070AAA
:102AD000B0EE600A1023042206210020FFF794F8CC
:102AE000164890ED080AB5EEC00AF1EE10FA02D0D1
:102AF000FFF760FF01E0FFF755FF104890ED090A6E
:102B0000B5EEC00AF1EE10FA02D0FFF763FF01E064
:102B1000FFF758FF094890ED0A0AB5EEC00AF1EE3A
:102B200010FA02D0FFF766FF01E0FFF75BFF10BD70
:102B300019000020BC0000200000000090000020D0
:102B400000B59BB04FF48070FFF7ECF80121080747
:102B5000FFF700F901210846FFF71CF9012108469B
:102B6000FFF7F8F83F20199003208DF86800002047
:102B70008DF86B0003208DF8690000208DF86A0045
:102B800019A9E748FEF741F80F20199003208DF8A6
:102B9000680000208DF86B0003208DF8690000208C
:102BA0008DF86A0019A94FF09040FEF72EF8DD4825
:102BB000FDF758FFDB481430FDF754FF0EA8FEF771
:102BC00015F8D9480E90D9480F90002010900F208A
:102BD000ADF8440000201290802013904000149023
:102BE00080001590202016904FF440501790002040
:102BF00018900EA9CB481430FDF7DAFFCC480E90A0
:102C0000CA481E300F90002010900F20ADF84400ED
:102C100000201290802013904000149080001590A6
:102C2000202016900020179018900EA9BD48FDF79F
:102C3000BFFF0121BB481430FDF708FF0121B9484F
:102C4000FDF704FFB8484038FDF704FE4FF0A04000
:102C5000FDF700FE01214FF0A040FDF7E6FE012147
:102C6000B1484038FDF7E1FE0A20FFF76BFE002176
:102C7000AD484038FDF7C7FE00214FF0A040FDF7FA
:102C8000C2FEA9484038FDF7C6FE4FF0A040FDF750
:102C9000C2FE00BFA4484038FDF704FE0028F9D169
:102CA00000BF4FF0A040FDF7FDFD0028F9D10190D5
:102CB00002904FF4004003900220049001208DF810
:102CC000140001A998484038FDF77EFD01A94FF096
:102CD000A040FDF779FD0020069007904FF4E070CA
:102CE00008904FF48060099000200A900B900C909F
:102CF0000F208DF8340006A98B484038FDF7E6FD1B
:102D00000020069007904FF4007008908000099012
:102D100000200A900B900C900F208DF8340006A92B
:102D20004FF0A040FDF7D2FD02217F484038FDF76B
:102D300088FD02214FF0A040FDF783FD052301220D
:102D400011461807FDF7E2FD052302221146180778
:102D5000FDF7DCFD0523032211461807FDF7D6FD1C
:102D60000523042211461807FDF7D0FD05231A4656
:102D700006211807FDF7CAFD0523062201211807C1
:102D8000FDF7C4FD0523072202211807FDF7BEFD4C
:102D90000523082203211807FDF7B8FD05230922A2
:102DA00004211807FDF7B2FD05230A220621D006EB
:102DB000FDF7ACFD05230B2201211807FDF7A6FD49
:102DC00005230C2202211807FDF7A0FD05230D2283
:102DD00003211807FDF79AFD05230E220421180789
:102DE000FDF794FD05230F2206211807FDF78EFD40
:102DF000052301220B214C484038FDF787FD0523B0
:102E00000222194648484038FDF780FD0523032279
:102E1000072145484038FDF779FD052304220821A4
:102E200041484038FDF772FD05231A4609213E4806
:102E30004038FDF76BFD052306220B213A48403848
:102E4000FDF764FD05230722194637484038FDF792
:102E50005DFD05230822072133484038FDF756FD64
:102E600005230922082130484038FDF74FFD05238E
:102E70000A2209212C484038FDF748FD05230B2282
:102E8000114629484038FDF741FD05230C2219461B
:102E900025484038FDF73AFD05230D220721224839
:102EA0004038FDF733FD05230E2208211E48403827
:102EB000FDF72CFD05230F2209211B484038FDF7A3
:102EC00025FD012118484038FDF7B0FC01214FF0E5
:102ED000A040FDF7ABFC012113484038FDF769FC29
:102EE00001214FF0A040FDF764FC00BF01210E4816
:102EF0004038FDF7E1FC0028F8D000BF01214FF079
:102F0000A040FDF7D9FC0028F8D007484038FDF76D
:102F100087FD4FF0A040FDF783FD1BB000BD000012
:102F2000000800480800024040010050E80000206E
:102F30004000005010B500F009FC4FF49670FFF708
:102F400001FDFFF7FDFDFEF76FFAFEF7E3FB01223F
:102F5000042144F6206000F009F8FEF7DDFBFEF7DF
:102F6000D7FCFEF73BFCFEF7B3FC10BD2DE9F041AA
:102F70002DED068BAAB004460D461746002028907A
:102F80002990249025902690279020211CA8FDF7B9
:102F900020F9202114A8FDF71CF920210CA8FDF729
:102FA00018F9242103A8FDF714F9002001900290DC
:102FB000009049F28800844203D89FEDFE8A0226E1
:102FC00009E0FD48844203D89FEDFC8A012602E017
:102FD0009FEDFB8A00264FF48050FEF7EBFE0121A7
:102FE0004807FEF7D7FE0C21F648FDF777FF00BF34
:102FF0004FF48031F348FDF7ABFF0028F8D00020F4
:1030000014901590169017904FF0006018900020C3
:1030100019901A904FF000501B9000EE104AB8EE35
:10302000400AC8EE000ABCEEE00A8DED240A781EC4
:10303000259026960820279014AB24AA0521E14864
:10304000FEF799F905F0010000286ED04FF44070AA
:10305000289003208DF8A50002208DF8A400002000
:103060008DF8A6008DF8A70028A94FF09040FDF735
:10307000CCFD0D2208214FF09040FDF711FE0D22EE
:103080000921C806FDF70CFE4FF000501B9000EE22
:10309000104AB8EE400AC8EE000ABCEEE00A8DED18
:1030A000240A0120259026960820279014AB24AAF4
:1030B0000021C448FEF75FF94FF480701F90002094
:1030C00020901D901E901C90229023904FF4002081
:1030D00021901CAA0021BB48FEF704F900200C90A7
:1030E00008200D9040200E9000200F90109011901D
:1030F000129013900CAB01220021B248FEF7E0F8C9
:103100000120039000200A9009900B904FF49670D4
:10311000089000200690059007904FF49670049058
:1031200003AA0021A748FDF7EDFE05F002000228E2
:1031300071D14FF44060289003208DF8A500022043
:103140008DF8A40000208DF8A6008DF8A70028A90E
:103150004FF09040FDF759FD0D220A214FF09040AD
:10316000FDF79EFD0D220B214FF09040FDF798FDDD
:103170004FF000501B9000EE104AB8EE400AC8EE27
:10318000000ABCEEE00A8DED240A01202590269667
:103190000820279014AB24AA01218A48FEF7EBF8F7
:1031A0004FF480701F90002020901D901E901C9066
:1031B00010202290002023904FF4801021901CAA10
:1031C00001218048FEF78EF800200C9008200D9019
:1031D00040200E9000200F901090119012901390AC
:1031E0000CAB042201217748FEF76AF80120039016
:1031F00000200A9009900B904FF4967008900020E0
:103200000690059007904FF49670049003AA012150
:103210006C48FDF777FE05F0040004286CD14FF4EC
:103220004050289003208DF8A50002208DF8A400BE
:1032300000208DF8A6008DF8A70028A96248FDF7A8
:10324000E4FC0D220C216048FDF72AFD0D221146F9
:103250005D48FDF725FD4FF000501B9000EE104A31
:10326000B8EE400AC8EE000ABCEEE00A8DED240A72
:103270000120259026960820279014AB24AA02212D
:103280005048FEF778F84FF480701F90002020908F
:103290001D901E901C90229023904FF400102190BE
:1032A0001CAA02214748FEF71DF800200C900820B8
:1032B0000D9040200E9000200F90109011901290D1
:1032C00013900CAB102202213E48FDF7F9FF0120BC
:1032D000039000200A9009900B904FF4967008908C
:1032E00000200690059007904FF49670049003AA72
:1032F00002213448FDF706FE05F00800082879D1C0
:103300004FF44040289003208DF8A50002208DF84E
:10331000A40000208DF8A6008DF8A70028A92A484F
:10332000FDF773FC0D220E212748FDF7B9FC0D2295
:103330000F212548FDF7B4FC4FF000501B9000EE24
:10334000104AB8EE400AC8EE000ABCEEE00A8DED65
:10335000240A0120259026960820279014AB24AA41
:1033600003211848FEF707F84FF480701F900020E3
:1033700020901D901E901C90229023904FF480006E
:1033800021901CAA03210F48FDF7ACFF00200C90F0
:1033900008200D9040200E9000200F90109011906A
:1033A000129013900CAB402203210648FDF788FFD2
:1033B00001200BE04054894E581501004054094F3C
:1033C0004054894F007401400004004803900020DD
:1033D0000A9009900B904FF4967008900020069088
:1033E000059007904FF49670049003AA0321B0480B
:1033F000FDF788FD2498FDF790F841EC1A0B9FED3E
:10340000AD0B53EC102BFCF796FF41EC190BFDF7BD
:1034100091F8804642460121A548FDF7EAFD24982F
:10342000FDF77BF841EC1A0B9FEDA20B53EC102B30
:10343000FCF781FF41EC190BFDF77CF88046424612
:1034400008219B48FDF7D5FD2498FDF766F841EC6F
:103450001A0B9FED980B53EC102BFCF76CFF41EC13
:10346000190BFDF767F88046434601220321904877
:10347000FDF764FE2498FDF750F841EC1A0B9FED20
:103480008D0B53EC102BFCF756FF41EC190BFDF79D
:1034900051F880464346082203218548FDF74EFE39
:1034A0002498FDF73AF841EC1A0B9FED820B53EC90
:1034B000102BFCF740FF41EC190BFDF73BF8804661
:1034C0004346012200217A48FDF738FE2498FDF793
:1034D00024F841EC1A0B9FED770B53EC102BFCF703
:1034E0002AFF41EC190BFDF725F8804643460822D8
:1034F00000216F48FDF722FE2498FDF70EF841ECFD
:103500001A0B9FED6C0B53EC102BFCF714FF41ECE6
:10351000190BFDF70FF88046434601221146644817
:10352000FDF70CFE2498FCF7F8FF41EC1A0B9FED19
:10353000610B53EC102BFCF7FEFE41EC190BFCF772
:10354000F9FF80464346082201215948FDF7F6FD60
:103550002498FCF7E2FF41EC1A0B9FED560B53EC5D
:10356000102BFCF7E8FE41EC190BFCF7E3FF80465B
:103570004346012202214E48FDF7E0FD2498FCF766
:10358000CCFF41EC1A0B9FED4B0B53EC102BFCF7CF
:10359000D2FE41EC190BFCF7CDFF804643460822D2
:1035A00002214348FDF7CAFD2498FCF7B6FF41EC21
:1035B0001A0B9FED400B53EC102BFCF7BCFE41ECBB
:1035C000190BFCF7B7FF8046434601220321384818
:1035D000FDF7B4FD2498FCF7A0FF41EC1A0B9FED1A
:1035E000350B53EC102BFCF7A6FE41EC190BFCF746
:1035F000A1FF80464346082203212D48FDF79EFD8A
:10360000012002900020019001AA04212848FDF722
:103610000DFC102002900020019001AA01212448F5
:10362000FDF704FC43208DF8000000208DF8020017
:103630008DF8010001208DF803006846FEF710F9AF
:103640000123102205211A48FDF78DFC4FF4F011DB
:103650001748FDF731FE05F0010018B103211448A9
:10366000FDF73CFE05F00200022803D10C211048B2
:10367000FDF734FE05F00400042803D130210C4886
:10368000FDF72CFE05F00800082803D1C0210848EA
:10369000FDF724FE4FF480310548FDF70DFE074984
:1036A000249808602AB0BDEC068BBDE8F0810000CC
:1036B00000740140000000000000E03F3C000020DA
:1036C00010B52DED028BF0EE408A04461D4890EDBA
:1036D000000AB8EE400AF6EE000A20EE200ABCEE20
:1036E000C00AB0EE408AB6EE000A68EE800A90ED9D
:1036F000000AB8EE401AB8EE480A00EEC10ABCEE65
:10370000C00A10EE103A012221460F48FDF716FDBF
:10371000B6EE000A68EE800A0A4890ED000AB8EE9C
:10372000401AB8EE480A00EE810ABCEEC00A10EE5C
:10373000103A082221460448FDF700FDBDEC028B3B
:1037400010BD00003C0000200074014070B51C4812
:1037500000684FF47A72B0FBF2F1481EB0F1807F3E
:1037600000D31BE0481E4FF0E022506150170F229B
:10377000002807DA13071D0E124B00F00F04241F58
:103780001D5503E013071C0E0F4B1C5400BF0020F7
:103790004FF0E02290610720106100BF0121480432
:1037A000FEF7D8FA01218804FEF7D4FA0121C804F3
:1037B000FEF7D0FA01210805FEF7CCFA70BD000033
:1037C0001C00002018ED00E000E400E010B5024607
:1037D000012000E050430B1EA1F10104E1B2F9D138
:1037E00010BD10B541EC100BFEF71EFC51EC100B98
:1037F00010BD10B500EE100A2DED028BB1EEC08A9F
:1038000018EE100A20F00040C0F1FF40C00F0AD0AF
:1038100010EE100A20F00040C0F1FF40C00F04BFBE
:103820000120FFF789F818EE100ABDEC028B10BDDD
:103830000000000000000000002F00000000070052
:10384000070000147F147F1400242A7F2A120062CC
:103850006408132300364955225000000503000078
:1038600000001C224100000041221C000014083E00
:1038700008140008083E0808000000A060000008C6
:10388000080808080000606000000020100804021A
:10389000003E5149453E0000427F400000426151D8
:1038A0004946002141454B31001814127F10002772
:1038B00045454539003C4A49493000017109050335
:1038C00000364949493600064949291E0000363666
:1038D00000000000563600000008142241000014C9
:1038E00014141414000041221408000201510906A6
:1038F00000324959513E007C1211127C007F494927
:103900004936003E41414122007F4141221C007F57
:1039100049494941007F09090901003E4149497A65
:10392000007F0808087F0000417F410000204041DF
:103930003F01007F08142241007F40404040007F4B
:10394000020C027F007F0408107F003E4141413E8F
:10395000007F09090906003E4151215E007F0919D7
:1039600029460046494949310001017F0101003FD4
:103970004040403F001F2040201F003F4038403F54
:1039800000631408146300070870080700615149B8
:10399000454300007F41410000552A552A5500004B
:1039A00041417F00000402010204004040404040C9
:1039B000000001020400002054545478007F484461
:1039C000443800384444442000384444487F003898
:1039D0005454541800087E0901020018A4A4A47CC1
:1039E000007F080404780000447D4000004080848B
:1039F0007D00007F102844000000417F4000007CD3
:103A000004180478007C08040478003844444438DE
:103A100000FC242424180018242418FC007C08042A
:103A2000040800485454542000043F444020003C03
:103A30004040207C001C2040201C003C4030403C8A
:103A4000004428102844001CA0A0A07C004464541A
:103A50004C4414141414141400000000000000005E
:103A60000000000000000000000000F8000000005E
:103A7000000000333000000000100C06100C06009F
:103A8000000000000000000040C07840C078400006
:103A9000043F04043F040400007088FC0830000068
:103AA000001820FF211E0000F008F000E0180000C0
:103AB00000211C031E211E0000F008887000000079
:103AC0001E2123241927211010160E0000000000CB
:103AD0000000000000000000000000E018040200E8
:103AE000000000071820400000020418E000000059
:103AF0000040201807000000404080F08040400057
:103B00000202010F01020200000000F000000000AC
:103B10000101011F01010100000000000000000080
:103B200080B07000000000000000000000000000F5
:103B3000000101010101010100000000000000007E
:103B40000030300000000000000000008060180419
:103B5000006018060100000000E010080810E000F6
:103B6000000F102020100F00001010F800000000BF
:103B70000020203F20200000007008080888700006
:103B80000030282422213000003008888848300086
:103B90000018202020110E000000C02010F80000A6
:103BA00000070424243F240000F80888880808003F
:103BB0000019212020110E0000E010888818000054
:103BC000000F112020110E0000380808C838080026
:103BD0000000003F000000000070880808887000A6
:103BE000001C222121221C0000E010080810E00027
:103BF0000000312222110F00000000C0C0000000B0
:103C000000000030300000000000008000000000D4
:103C100000008060000000000000804020100800CC
:103C20000001020408102000404040404040400095
:103C30000404040404040400000810204080000070
:103C40000020100804020100007048080808F00075
:103C50000000003036010000C030C828E810E00045
:103C60000718272423140B000000C038E0000000D0
:103C7000203C23020227382008F88888887000003A
:103C8000203F202020110E00C0300808080838000E
:103C9000071820202010080008F808080810E00085
:103CA000203F202020100F0008F88888E808100026
:103CB000203F20202320180008F88888E8081000FA
:103CC000203F200003000000C03008080838000032
:103CD00007182020221E020008F808000008F80833
:103CE000203F210101213F20000808F808080000BA
:103CF0000020203F2020000000000808F8080800ED
:103D0000C08080807F00000008F888C02818080064
:103D1000203F20012638200008F80800000000009D
:103D2000203F20202020300008F8F800F8F8080094
:103D3000203F003F003F200008F830C00008F8088E
:103D4000203F200007183F00E01008080810E0009E
:103D50000F10202020100F0008F808080808F000B5
:103D6000203F210101010000E01008080810E000D8
:103D70000F18242438504F0008F88888888870006D
:103D8000203F2000030C302000708808080838000D
:103D90000038202121221C00180808F80808180003
:103DA0000000203F2000000008F808000008F80884
:103DB000001F202020201F000878880000C8380835
:103DC000000007380E010000F80800F80008F800AD
:103DD000033C0700073C0300081868808068180847
:103DE00020302C03032C30200838C800C8380800C5
:103DF0000000203F2000000010080808C838080014
:103E00002038262120201800000000FE02020200B7
:103E10000000007F40404000000C30C00000000067
:103E2000000000010638C00000020202FE0000008F
:103E3000004040407F000000000004020202040035
:103E40000000000000000000000000000000000072
:103E5000808080808080808000020204000000005A
:103E60000000000000000000000080808080000052
:103E70000019242222223F2008F800808000000040
:103E8000003F112020110E00000000808080000003
:103E9000000E112020201100000000808088F80012
:103EA000000E112020103F20000080808080000044
:103EB000001F222222221300008080F088888818A8
:103EC0000020203F202000000000808080808000B3
:103ED000006B94949493600008F800808080000048
:103EE000203F210000203F20008098980000000023
:103EF0000020203F20200000000000809898000053
:103F000000C08080807F000008F800008080800072
:103F1000203F24022D302000000808F80000000097
:103F20000020203F20200000808080808080800052
:103F3000203F20003F20003F8080008080800000E4
:103F4000203F210000203F20000080808080000072
:103F5000001F202020201F008080008080000000A3
:103F600080FFA12020110E000000008080808000D2
:103F7000000E112020A0FF808080800080808000C3
:103F800020203F21200001000000808080808000F0
:103F90000033242424241900008080E08080000065
:103FA0000000001F202000008080000000808000B2
:103FB000001F202020103F20808080000080808013
:103FC00000010E30080601008080008000808080A3
:103FD0000F300C030C300F000080800080808000C8
:103FE0000020312E0E3120008080800000808080F3
:103FF00080818E70180601000080808080808000A3
:104000000021302C2221300000000000807C0202C0
:1040100000000000003F404000000000FF000000E2
:1040200000000000FF0000000002027C8000000091
:104030000040403F000000000006010102020404AD
:1040400000000000000000004C5555555555A53F97
:104050007751C1166CC156BF9015CB19A001FA3E1D
:10406000AD529C804F7E92BEC4B1B4BD9EEE213E47
:10407000D43888BEE9FAA8BD00004054FB21F93FBE
:104080003163621A61B4D03D0000601A61B4D03D62
:104090007370032E8A19A33B0000002E8A19A33BDC
:1040A000C14920259A837B390000000000000000F0
:1040B0006E83F9A22915444ED15727FCC0DD34F593
:1040C000999562DB4190433CAB6351FE61C5BBDE19
:1040D0003A6E24B7E0D24D42EA2E49061C92D1092D
:1040E0001CEB1DFE3EA729B1F53582E88444BB2EAA
:1040F00026709CE9417E5FB439D69139F4395383F7
:104100008B5F849C3B28F9BDFF97F81F0F9805DE55
:104110008B112FEF1F6D0A5ACF7E366DB709CB2753
:10412000663F464F2DEA5F9EC7BA27757BF1E5EBE8
:10413000F739073DEA92528AB15FFB6B085D8D1F2C
:10414000A6F810111111813FD561C119A0012ABF34
:104150007DFEB157E31DC73EEB9C2B8AE6E55ABEB8
:104160007CD5CF5A3AD9E53D8841000800000020AF
:104170004400000018290008CC4100084400002039
:10418000E410000028290008000000000000204280
:10419000000000000000000000000000000000001F
:1041A0000000000000A24A0400000000000000001F
:1041B00001020304060708090000000000000000D7
:0C41C000000000000000000000000000F3
:040000050800018965
:00000001FF
