:020000040800F2
:10000000C8100020A10100085D1200081D100008A2
:1000100059120008CD0600088919000800000000E8
:100020000000000000000000000000001D18000893
:100030008B080008000000006D170008E518000894
:10004000BB010008BB010008BB010008BB010008A0
:10005000BB010008BB0100088D080008BB010008B7
:10006000BB010008BB010008BB010008BB01000880
:10007000BB010008BB010008BB010008BB01000870
:10008000BB010008BB010008BB010008BB01000860
:10009000BB010008BB010008BB010008BB01000850
:1000A000BB010008BB010008BB010008BB01000840
:1000B000BB010008BB01000800000000BB010008F4
:1000C000BB0100080000000000000000BB010008A8
:1000D00000000000BB010008BB010008BB010008D4
:1000E000BB010008BB010008000000000000000088
:1000F0000000000000000000000000000000000000
:1001000000000000000000000000000000000000EF
:100110000000000000000000BB010008BB01000857
:1001200000000000000000000000000000000000CF
:1001300000000000000000000000000000000000BF
:10014000BB010008BB010008000000008509000891
:10015000BB010008BB010008BB010008BB0100088F
:10016000BB010008BB010008000000000000000007
:10017000000000000000000000000000000000007F
:1001800000000000BB010008DFF810D000F040F9CB
:1001900000480047E91A0008AFF30080C8100020AB
:1001A0000648804706480047FEE7FEE7FEE7FEE711
:1001B000FEE7FEE7FEE7FEE7FEE7FEE7ED180008D4
:1001C00089010008D2B201E000F8012B491EFBD2E0
:1001D00070470022F6E710B513460A460446194652
:1001E000FFF7F0FF204610BD2DE9FE4F81EA030422
:1001F00004F0004421F0004100944FF0000B23F084
:10020000004350EA01045ED052EA03045BD0C3F31A
:100210000A54C1F30A552C44A4F2F3340194A0FB10
:100220000254C1F3130141F48011C3F3130343F4E7
:10023000801301FB024400FB034E840A970A44EA40
:10024000815447EA8357A4FB076802958D0A05FB92
:1002500007854FEA932C04FB0C542705029D4FEAB7
:10026000065847EA1637B5EB08056EEB070C870E04
:10027000920E47EA811742EA8312A7FB0201B6EB0E
:100280000B0164EB00042B0D43EA0C335E1844EBC6
:100290001C50DA465146E7FB0201C5F313044FEA4E
:1002A0000B3343EA14534FEA0432019C43EA06033A
:1002B000A4F10C040294009CCDE900B400F05AF8BB
:1002C00003B0BDE8F08F00200146F9E70EB540F21B
:1002D000334102910021CDE900110A460B4600F09E
:1002E00049F803B000BDC1F30A5210B5C1F31301C0
:1002F00040F2FF3341F480119A4201DA002010BD30
:1003000040F233439A42A2F2334203DC524200F0FD
:1003100012F810BD904010BD202A04DB203A00FAEC
:1003200002F1002070479140C2F1200320FA03F34C
:10033000194390407047202A04DB203A21FA02F04A
:100340000021704721FA02F3D040C2F1200291400F
:1003500008431946704710B5141E73F1000408DAFB
:10036000401C41F1000192185B411A4301D120F079
:10037000010010BD2DE9F04D92469B4611B1B1FA36
:1003800081F202E0B0FA80F220329046FFF7C4FF1B
:1003900004460F4640EA0A0041EA0B0153465A461A
:1003A000084313D0114653EA010019D0C8F14002A6
:1003B0005046FFF7C0FF05460E4650465946424696
:1003C000FFF7AAFF084305D0012004E02046394684
:1003D000BDE8F08D0020054346EAE0762C43374324
:1003E0000A986305E40AA0EB08000022FD0A44EA2B
:1003F00047540A3002D500200146E9E701051019EB
:100400006941DDE9084500196941BDE8F04DA2E701
:10041000064C074D06E0E06840F0010394E8070051
:1004200098471034AC42F6D3FFF7B2FE64310008AF
:100430008431000821B1826842F00102826003E049
:10044000826842F0020282607047000010B500220C
:10045000B0F1A04F02D0124B984204D1114B1A6850
:10046000114B1A4003E0114B1A680F4B1A40D1E9A7
:10047000003423438C682343CC6843EA04330C7C68
:1004800043EA04231A43B0F1A04F02D0044B984230
:1004900002D1044B1A6001E0044B1A6010BD000049
:1004A0000001005008030050E010FCFF0807005056
:1004B00021B1C26842F00102C26003E0C26822F0CA
:1004C0000102C2607047C26822F00202C260C268C4
:1004D0000A43C2607047000010B50446B4F1A04F53
:1004E00002D00E48844209D10121080701F068F9C1
:1004F00000214FF0805001F063F90EE0084884427B
:1005000002D00848844208D10121480701F058F977
:1005100000214FF0005001F053F910BD00010050D0
:100520000004005000050050014600208A6802F0D7
:1005300000420AB1012000E000207047024600207E
:1005400013680B400BB1012000E000207047000051
:1005500010B502460020D0680C4B1840D1E9003499
:1005600023438C682343CC6823430C6923434C69A1
:1005700023438C6923431843D060106B20F00F0095
:100580000B7F5B1E1843106310BD000007C0FFFD0A
:10059000F0B50C461D4600BF00BF052A0FDA016BFF
:1005A00002EB420677001F2606FA07F3994302EB97
:1005B0004206760004FA06F3194301633CE00A2A76
:1005C00011DA416B561F06EB460677001F2606FA26
:1005D00007F39943561F06EB4606760004FA06F326
:1005E0001943416328E00F2A13DA816BA2F10A064E
:1005F00006EB460677001F2606FA07F39943A2F199
:100600000A0606EB4606760004FA06F319438163F0
:1006100012E0C16BA2F10F0606EB460677001F261B
:1006200006FA07F39943A2F10F0606EB4606760099
:1006300004FA06F31943C163092C14DD8169A4F19E
:100640000A0606EB4607072606FA07F386699E4365
:1006500086618669A4F10A0707EB470705FA07F7E1
:100660003E43866110E04169661E06EB4607382668
:1006700006FA07F346699E434661466904EB440760
:1006800005FA07F73E434661F0BD826822F08042DA
:10069000826082680A4382607047816841F000414D
:1006A00081607047816841F0040181607047826811
:1006B00022F04052826021B1826842F08052826012
:1006C00003E0826842F000528260704700BFFEE79C
:1006D00021B1026842F00102026004E002684FF6B4
:1006E000FE731A400260704701684FF6FE721140B7
:1006F00001600021016041608160C1604B49884216
:1007000008D14A490839496841F00F01474A083A77
:1007100051608AE045491431884208D1434908397B
:10072000496841F0F001414A083A51607DE03F4993
:100730002831884208D13D490839496841F470613F
:100740003A4A083A516070E038493C31884208D151
:1007500036490839496841F47041344A083A5160D1
:1007600063E032495031884208D13049083949683C
:1007700041F470212D4A083A516056E02B4964310A
:10078000884208D129490839496841F47001274A4B
:10079000083A516049E025497831884208D1234917
:1007A0000839496841F07061204A083A51603CE0DC
:1007B0001F49884206D1011F096841F00F01021F3D
:1007C000116032E01A491431884208D11849091FD2
:1007D000096841F0F001164A121F116025E0144922
:1007E0002831884208D11249091F096841F4706113
:1007F0000F4A121F116018E00D493C31884208D1A0
:100800000B49091F096841F47041094A121F116020
:100810000BE007495031884207D10549091F096893
:1008200041F47021024A121F116070470800024013
:100830000804024010B50022026847F6F0739A439C
:100840000C6A8B6823430C6923434C6923438C69EE
:100850002343CC6923434C6A23438C6A23431A43C2
:1008600002608B8943600B6883604B68C36010BD76
:10087000002101604160816081810161416181618C
:10088000C161016241628162704770477047F0B593
:100890000A46002100240025002300BF3FE0012676
:1008A00006FA01F4166806EA0405A54236D116795F
:1008B000012E02D01679022E18D186684FEA410C1B
:1008C000032707FA0CF7BE43866056794F00BE40F7
:1008D00087683E438660868801278F40BE438680B6
:1008E000878896798E40B6B23743878006684FEA8C
:1008F000410C032707FA0CF7BE43066016794F0038
:10090000BE4007683E430660C3684F000326BE40F2
:10091000B343D6794F00BE403343C360491C10290E
:10092000BDD3F0BDF0B5002300244D07ED0E02FA53
:1009300005F3CE1000F1200555F826504E07F70EAE
:100940000F26BE40B543CF1000F1200646F82750D1
:10095000CE1000F1200555F8265045EA0304CE10CC
:1009600000F1200545F82640F0BD02460020138A1C
:100970000B400BB1012000E000207047018570475B
:100980008161704710B500F0E7FE354B9A8E598DA6
:10099000188C01F071F800EE100AF8EE400A9FED95
:1009A000311A9FED310A00EE810A304880ED000ACD
:1009B0002B4B5A8E198DD88B01F05EF800EE100A81
:1009C000F8EE400A9FED271A9FED270A00EE810AF4
:1009D000274880ED000A224B1A8FD98D988C01F0A0
:1009E0004BF800EE100AF8EE400A9FED221A9FED38
:1009F000220A00EE810A214880ED000A184BDA8EA7
:100A0000998D588C01F038F800EE100AF8EE400A83
:100A10009FED181A9FED180A00EE810A184880ED24
:100A2000000A1848D0ED000A104890ED000A164858
:100A300000F030FB154880ED000AD0ED000A0F48A9
:100A400090ED000A124800F025FB124880ED000AE4
:100A50000220104991ED000A01F0E6FE10BD0000F1
:100A600088000020DEFFC73C0000000008000020D6
:100A700010000020EF33533B3333D3C00C00002071
:100A80001400002004000020440000201800002072
:100A90005C0000200000002030B50346D3F880033E
:100AA000012906D002290DD0042915D0082927D103
:100AB0001CE020F4E020146820434FF46F74556864
:100AC000E5501EE020F46010146840EAC4004FF4C2
:100AD00070745568E55014E020F0E070146840EA46
:100AE00084104FF471745568E55000BF20F06060C9
:100AF000146840EA44204FF472745568E55000E0F1
:100B000000BF00BFC3F8800330BD10B5062918D25E
:100B1000DFE801F00708090A0B03836813438360C9
:100B200010E000BF00BF00BF00BF00F1800303EB77
:100B3000C1139B68134300F1800404EBC114A3604C
:100B400000E000BF00BF10BD02464FF47373985819
:100B50004B1C23B920F0020040F0010004E020F01B
:100B60000D0041F0020318434FF47373985070471F
:100B700010B5034603F1800404EBC114A06B0E4CC6
:100B80002040146840EA842054682043946820433D
:100B900014692043D4682043948A40EA044094694D
:100BA0002043146A2043D469204303F1800404EBFA
:100BB000C114A06310BD00000020FF3D02460020CC
:100BC0004FF462739B580B400BB1012000E00020F2
:100BD000704730B506292AD2DFE801F00C0D0E0F60
:100BE00010031BB1C4681443C46002E0C46894439A
:100BF000C4601DE000BF00BF00BF00BF5BB100F1DB
:100C0000800404EBC114E468144300F1800505EB93
:100C1000C115EC600AE000F1800404EBC114E46843
:100C2000944300F1800505EBC115EC6000E000BFC6
:100C300000BF30BD026822F00702026002688B68C4
:100C40001A430260026822F0180202600268CB6850
:100C50001A4302600A6842614A688261704701294A
:100C600006D0022906D0042906D0082908D105E0BB
:100C7000C26106E0426204E0826202E0C26200E019
:100C800000BF00BF704710B5024610684FF468748B
:100C9000A35820F020000C68204320F400604C682A
:100CA000204320F480608C68204320F0C060CC6832
:100CB000204320F000600C69204320F040404C6944
:100CC00040EA840020F00050CC69204323F48033B4
:100CD0008C69234310604FF46874A35010BDF0B5C5
:100CE00004461546002204F1800606EBC116706E1C
:100CF000202D2CD00CDC042D16D004DC012D12D0BC
:100D0000022D34D121E0082D20D0102D2FD10CE060
:100D1000402D0BD0802D1BD0B5F5807F07D0B5F5C9
:100D2000007F24D115E000BF00BF00BF00BF04F169
:100D3000800606EBC1165F68F76304F1800606EBD8
:100D4000C1169F683764002212E000BF00BF00BFD9
:100D500000BF04F1800606EBC1165F68776404F1FA
:100D6000800606EBC1169F68B764102200E000BF42
:100D700000BFFE269640B0431E6896403043DE68B2
:100D8000964030431E69964030435E69964030433A
:100D90009E6996403043DE699640304304F18006F8
:100DA00006EBC1167066F0BD10B5012A06D0022A06
:100DB0000AD0042A0ED0082A18D111E000F18004CC
:100DC00004EBC114E36112E000F1800404EBC114F0
:100DD00063620CE000F1800404EBC114A36206E03E
:100DE00000F1800404EBC114E36200E000BF00BF27
:100DF00010BD10B500F1800303EBC1131B6823F095
:100E0000070400F1800303EBC1131C6000F18003B1
:100E100003EBC1131B689468234300F1800404EBC7
:100E2000C114236000F1800303EBC1131B6823F09E
:100E3000180400F1800303EBC1131C6000F1800370
:100E400003EBC1131B68D468234300F1800404EB57
:100E5000C114236000F1800303EBC11314685C61CB
:100E600000F1800303EBC11354689C6110BD30B5E1
:100E700004460B4604F1800505EBC31528684FF4C2
:100E80006875295920F020001568284320F4006077
:100E90005568284320F480609568284320F0C0609E
:100EA000D568284320F000601569284320F0704081
:100EB0005569284320F40030D569B5F1005F01D1B0
:100EC00040F40030052B22D2DFE803F003090F15B0
:100ED0001B0021F40031956941EA450118E021F435
:100EE0008021956941EA850112E021F4002195698C
:100EF00041EAC5010CE021F48011956941EA051130
:100F000006E021F40011956941EA451100E000BFB7
:100F100000BF04F1800505EBC31528604FF4687528
:100F2000295130BD02680A43026070472DE9F04143
:100F300004460D4616461F463B4632462946204685
:100F4000FFF7CDFEBDE8F0814FF465721150704798
:100F5000F0B500F1800707EBC1173B6800F180078F
:100F600007EBC117BC6E00F1800707EBC1177D6E60
:100F700000F1800707EBC1177E6D23F0400317686F
:100F80003B4323F48023D7693B4323F0FC73576929
:100F90003B4324F01F04177907F01F073C4324F05C
:100FA000004497683C4325F48075D7683D4325F499
:100FB000F05517693D43966900F1800707EBC117AB
:100FC0003B6000F1800707EBC117BC6600F18007AA
:100FD00007EBC1177D6600F1800707EBC1177E653F
:100FE000F0BD2DE9F04107460D4616461C46052D7D
:100FF00008D131463846FFF71DFE21463846FFF737
:1010000042FE09E0324629463846FFF7F2FE224604
:1010100029463846FFF72BFFBDE8F08100BFFEE709
:1010200010B54FF480710948FFF7AAFC4FF4007126
:101030000648FFF7A5FC4FF400710448FFF79EFC3B
:101040004FF480710148FFF799FC10BD000400487F
:1010500010B54FF480710748FFF792FC4FF4007110
:101060000448FFF78BFC4FF400710248FFF788FC3F
:1010700010BD00000004004810B54FF48071044812
:10108000FFF77EFC4FF480710148FFF777FC10BD3D
:1010900000040048B0EE401AF0EE601A31EEC10ACA
:1010A000F0EE400A90ED000AD0ED042A70EEE22A3C
:1010B00020EE220AD0ED012A02EEA00AB0EE402A6C
:1010C000C0ED040A90ED050A30EE020A80ED050A33
:1010D00090ED050AD0ED022AB4EEE20AF1EE10FA24
:1010E00002DD90ED020A01E090ED050A80ED050AAF
:1010F00090ED050AD0ED032AB4EEE20AF1EE10FA03
:1011000002D290ED030A01E090ED050A80ED050A98
:1011100090ED050A704700001CB5012000900020EA
:101120008DF8040003208DF8050001208DF80700DC
:1011300069461148FFF7ABFB0220009000208DF8B4
:10114000040003208DF8050001208DF80700694692
:101150000948FFF79CFB0420009000208DF8040054
:1011600003208DF8050001208DF80700694602482C
:10117000FFF78DFB1CBD00000004004810B50446BD
:1011800001211548FFF7F1FB48B102211248FFF792
:10119000ECFB20B104211048FFF7E7FBC8B90A2097
:1011A00000F05EFC01210C48FFF7DFFB08B90120CD
:1011B00010BD02210848FFF7D8FB08B90220F7E765
:1011C00004210548FFF7D1FB08B90320F0E7002010
:1011D000EEE70020ECE70000000400481CB54FF4E7
:1011E0000040009001208DF8040000208DF80600DA
:1011F00001208DF8070003208DF805006946154889
:10120000FFF745FB4FF48040009001208DF804006B
:1012100000208DF8060001208DF8070003208DF8CE
:10122000050069460B48FFF732FB4FF40050009071
:1012300001208DF8040000208DF8060001208DF8B3
:10124000070003208DF8050069460248FFF71FFBE1
:101250001CBD00000008004800BFFEE7704700000A
:1012600070B5002100230F22C47804B3154C246804
:1012700004F4E064C4F5E064210AC1F10403CA4047
:10128000447804FA03F184781440214309010E4C98
:101290000678A155047804F01F050124AC400578B8
:1012A0006D11AD0005F1E025C5F8004109E00478B5
:1012B00004F01F050124AC40044D0678761145F872
:1012C000264070BD0CED00E000E400E080E100E0AD
:1012D00070B5002418E004F1B000002100F00AFA13
:1012E0000021084600F006FA0021102000F002FA62
:1012F000002505E00121002000F0FCF9681CC5B2C2
:10130000802DF7DB601CC4B2082CE4DB70BD00004C
:101310001CB54FF44070009001208DF804000020AF
:101320008DF8060001208DF8070003208DF80500D8
:1013300069463C48FFF7ABFA4FF440713948FFF774
:101340001FFB4FF4487000F08BFB0021AE2000F033
:10135000D1F90021084600F0CDF90021102000F05D
:10136000C9F90021402000F0C5F90021B02000F0AB
:10137000C1F90021812000F0BDF90021FF2000F01B
:10138000B9F90021A12000F0B5F90021A62000F054
:10139000B1F90021A82000F0ADF900213F2000F0B4
:1013A000A9F90021C82000F0A5F90021D32000F000
:1013B000A1F90021084600F09DF90021D52000F098
:1013C00099F90021802000F095F90021D82000F043
:1013D00091F90021052000F08DF90021D92000F0BD
:1013E00089F90021F12000F085F90021DA2000F0D0
:1013F00081F90021122000F07DF90021DB2000F0AE
:1014000079F90021302000F075F900218D2000F0DD
:1014100071F90021142000F06DF90021AF2000F0D7
:1014200069F91CBD0004004870B504460D4605F17D
:10143000B000002100F05EF9102141EA14100021F3
:1014400000F058F904F00F00002100F053F970BDCE
:101450002DE9F04707460E469046994600250024A0
:10146000A8F12000C5B27F2F02DD0027B01CC6B254
:10147000B9F1100F24D131463846FFF7D5FF0024CB
:1014800008E004EB0511194A505C012100F032F923
:10149000601CC4B2082CF4DB701CC1B23846FFF7E4
:1014A000C3FF002409E004EB051108310F4A505C2A
:1014B000012100F01FF9601CC4B2082CF3DB12E01C
:1014C00031463846FFF7B0FF00240AE005EB45013E
:1014D000074A02EB4101085D012100F00BF9601C95
:1014E000C4B2062CF2DBBDE8F0870000722B0008C6
:1014F0004A2900082DE9FF5F074691461E460E9DCA
:101500004FF0000A002437E0301B401EC1B20A2011
:1015100001F010FA99FBF0F00A2190FBF1F201FBC7
:10152000120000F0FF08BAF1000F14D1701EA042A3
:1015300011DDB8F1000F0CD1AB4605EBDB714910A2
:1015400001FB0471C8B22B4620220199FFF780FFEE
:1015500010E04FF0010AAB4605EBDB71491001FBCF
:101560000471C8B208F13001CAB22B460199FFF7E5
:101570006FFF00BF601CC4B2B442C5DBBDE8FF9F73
:101580002DE9FF5F074691461E460E9D4FF0000A6B
:10159000002435E0301B401EC1B20A2001F0CAF918
:1015A000B9FBF0F00A21B0FBF1F201FB1208BAF12D
:1015B000000F14D1701EA04211DDB8F1000F0CD144
:1015C000AB4605EBDB71491001FB0471C8B22B4639
:1015D00030220199FFF73CFF10E04FF0010AAB46C3
:1015E00005EBDB71491001FB0471C8B208F1300151
:1015F000CAB22B460199FFF72BFF00BF601CC4B293
:10160000B442C7DBBDE8FF9F2DE9FF4F2DED020B74
:101610002DED048B81B00546B0EE408A16461C467F
:101620004FF0000A4FF00109B5EEC08AF1EE10FA52
:1016300002DBF0EE488A01E0F1EE488ABDEEE80AEE
:1016400010EE107ABDEEE80AB8EEC00A38EEC09A85
:101650004FF0000A07E009EB89004FEA40090AF160
:10166000010000F0FF0AB245F5DB00EE109AB8EE7B
:10167000C00A29EE000AB0EE409ABDEEC90A10EE8B
:10168000108AB5EEC08AF1EE10FA06D223462D225A
:1016900028460899FFF7DCFE05E023462B22284662
:1016A0000899FFF7D5FEA34604EBDB7105EB61015A
:1016B000C8B202233A4600940899FFF71BFF04EBD7
:1016C000440B0BEBDB7105EB6101C8B223462E2204
:1016D0000899FFF7BDFE05EB4401C8B23346424608
:1016E00000940899FFF74CFF01B0BDEC048B06B0E5
:1016F000BDE8F08F70B504460D461DB1E0B200F0B4
:1017000089F902E0E0B200F06FF970BD80ED000AE7
:10171000C0ED010A80ED021AC0ED031A7047000007
:101720009FED0C0A80ED000A9FED0A0A80ED010A88
:101730009FED080A80ED020A9FED060A80ED030A7C
:101740009FED040A80ED040A9FED020A80ED050A70
:10175000704700000000000010B51022052102486B
:10176000FFF7D3F910BD000000740140704700007E
:101770000021010F31B1094AD26A22F47852074B95
:10178000DA6205E0054AD26A22F4F872034BDA62A3
:10179000024AD26A0243014BDA62704700100240EB
:1017A00029B1064A52690243044B5A6104E0034AD4
:1017B00052698243014B5A61704700000010024099
:1017C00029B1064A926A0243044B9A6204E0034A32
:1017D000926A8243014B9A627047000000100240F7
:1017E00029B1064A92690243044B9A6104E0034A14
:1017F00092698243014B9A617047000000100240D9
:101800000549096B21F48051034A11631146096BA4
:101810000143116370470000001002407047000050
:101820000CB50020019000902C48006840F48030F6
:101830002A49086000BF2948006800F40030009081
:101840000198401C0190009818B90198B0F5A04F7C
:10185000F1D12248006800F4003010B1012000905E
:1018600001E0002000900098012836D112201C4988
:1018700008601A484068194948600846406848604E
:101880000846406840F4806048600846406820F49C
:101890007C1048600846406840F4E81048600846FC
:1018A000006840F08070086000BF0C48006800F0DD
:1018B00000700028F9D00948406820F0030007496B
:1018C00048600846406840F00200486000BF034896
:1018D000406800F00C000828F9D10CBD001002404F
:1018E0000020024010B500F043F810BD10B51B48B1
:1018F000006840F47000194908601948006840F019
:101900000100174908600846406816490840144914
:1019100048600846006814490840114908600846B4
:10192000006820F4802008600846406820F4FE002B
:1019300048600846C06A20F00F00C8620846006B85
:101940000A4908400649086300208860FFF768FFDD
:101950004FF0006001498039086010BD88ED00E05B
:10196000001002400CC07FF8FFFFF6FECCFC00FF29
:101970000448006820B103480068401E014908601F
:10198000704700003400002000BFFEE72DE9F04161
:1019900005462C464FF480711248FEF7EFFF0026F3
:1019A0001CE0274607F08007802F04D1B9000D48BE
:1019B000FEF7E6FF04E04FF400710A48FEF7DEFF91
:1019C0006006040E4FF480710648FEF7D9FF4FF40D
:1019D00080710448FEF7D2FF701CC6B2082EE0DB0F
:1019E000BDE8F0810004004810B50446FFF718FB7D
:1019F0007820FFF7CBFFFFF73FFB0020FFF7C6FF84
:101A0000FFF73AFB2046FFF7C1FFFFF735FBFFF773
:101A10001FFB10BD10B50446FFF702FB7820FFF74F
:101A2000B5FFFFF729FB4020FFF7B0FFFFF724FBCE
:101A30002046FFF7ABFFFFF71FFBFFF709FB10BDC9
:101A400002E008C8121F08C1002AFAD17047704787
:101A5000002001E001C1121F002AFBD170470000E5
:101A600001B504490098086000BF024800680028DA
:101A7000FBD108BD3400002003468B4209DD9142B2
:101A800001DD084670479A4201DD1846FAE7104624
:101A9000F8E7914201DA0846F4E79A4201DA18467B
:101AA000F0E71046EEE700004FF4004001490880DF
:101AB00070470000280800484FF4004001490860C2
:101AC00070470000180800484FF480400149088022
:101AD00070470000280800484FF480400149086022
:101AE000704700001808004800F0B0FA01E000F06C
:101AF00001F8FCE710B54FF49670FFF7B1FF002036
:101B0000FFF73CFB3E49087008460078012809D1E0
:101B10003C4890ED000ADFED3C0A30EE200A80EDF3
:101B2000000A0CE036480078022808D1354890EDCC
:101B3000000ADFED350A30EE600A80ED000A314818
:101B400090ED000AF6EE000AB4EEE00AF1EE10FAAB
:101B500004D2B6EE000A80ED000A0DE0294890EDAF
:101B6000000ADFED2A0AB4EEE00AF1EE10FA03DD16
:101B70009FED260A80ED000A10230422244890EDF0
:101B8000000A00210846FFF73FFD102304222148E8
:101B900090ED000A02210020FFF736FD10230422F9
:101BA0001D4890ED000A11460020FFF72DFD10237F
:101BB0000422144890ED000A06210020FFF724FDBE
:101BC000154890ED000AF1EE000AB4EEE00AF1EEDD
:101BD00010FA02DDFFF770FF01E0FFF765FF0C4828
:101BE00090ED000ADFED0D0AB4EEE00AF1EE10FA16
:101BF00002D2FFF771FF01E0FFF766FF10BD0000A2
:101C00001D00002004000020CDCCCC3D0000A042EF
:101C100008000020100000200C0000209A99994034
:101C200000B59BB04FF48070FFF7A2FD01210807BB
:101C3000FFF7B6FD01210846FFF7D2FD0121084656
:101C4000FFF7AEFD3F20199003208DF868000020BB
:101C50008DF86B0003208DF8690000208DF86A0074
:101C600019A9F548FEF713FE0F20199003208DF8EF
:101C7000680000208DF86B0003208DF869000020BB
:101C80008DF86A0019A94FF09040FEF700FEEB486E
:101C9000FEF72AFDE9481430FEF726FD0EA8FEF7F0
:101CA000E7FDE7480E90E7480F90002010900F20C6
:101CB000ADF8440000201290802013904000149052
:101CC00080001590202016904FF44050179000206F
:101CD00018900EA9D9481430FEF7ACFDDA480E90E2
:101CE000D8481E300F90002010900F20ADF844000F
:101CF00000201290802013904000149080001590D6
:101D0000202016900020179018900EA9CB48FEF7BF
:101D100091FD0121C9481430FEF7DAFC0121C748C2
:101D2000FEF7D6FCC6484038FEF7D6FB4FF0A04081
:101D3000FEF7D2FB01214FF0A040FEF7B8FC0121D5
:101D4000BF484038FEF7B3FC0A20FFF789FE0021A8
:101D5000BB484038FEF799FC00214FF0A040FEF749
:101D600094FCB7484038FEF798FC4FF0A040FEF7CF
:101D700094FC00BFB2484038FEF7D6FB0028F9D1EA
:101D800000BF4FF0A040FEF7CFFB0028F9D1019033
:101D900002904FF4004003900220049001208DF83F
:101DA000140001A9A6484038FEF750FB01A94FF0E6
:101DB000A040FEF74BFB0020069007904FF4E07028
:101DC00008904FF48060099000200A900B900C90CE
:101DD0000F208DF8340006A999484038FEF7B8FB6B
:101DE0000020069007904FF4007008908000099042
:101DF00000200A900B900C900F208DF8340006A95B
:101E00004FF0A040FEF7A4FB02218D484038FEF7BA
:101E10005AFB02214FF0A040FEF755FB052301229B
:101E200011461807FEF7B4FB0523022211461807D6
:101E3000FEF7AEFB0523032211461807FEF7A8FBA9
:101E40000523042211461807FEF7A2FB05231A46B4
:101E500006211807FEF79CFB05230622012118071F
:101E6000FEF796FB0523072202211807FEF790FBD9
:101E70000523082203211807FEF78AFB0523092200
:101E800004211807FEF784FB05230A220621D00649
:101E9000FEF77EFB05230B2201211807FEF778FBD6
:101EA00005230C2202211807FEF772FB05230D22E1
:101EB00003211807FEF76CFB05230E2204211807E7
:101EC000FEF766FB05230F2206211807FEF760FBCD
:101ED000052301220B215A484038FEF759FB052300
:101EE0000222194656484038FEF752FB05230322CA
:101EF000072153484038FEF74BFB052304220821F5
:101F00004F484038FEF744FB05231A4609214C4848
:101F10004038FEF73DFB052306220B214848403898
:101F2000FEF736FB05230722194645484038FEF7E1
:101F30002FFB05230822072141484038FEF728FBE4
:101F40000523092208213E484038FEF721FB0523DE
:101F50000A2209213A484038FEF71AFB05230B22D2
:101F6000114637484038FEF713FB05230C2219466B
:101F700033484038FEF70CFB05230D22072130487B
:101F80004038FEF705FB05230E2208212C48403877
:101F9000FEF7FEFA05230F22092129484038FEF7F3
:101FA000F7FA01214FF0A040FEF781FB0121244800
:101FB0004038FEF77CFB012121484038FEF778FAD3
:101FC00001214FF0A040FEF773FA02211C4840386F
:101FD000FEF779FA02214FF0A040FEF774FA0121D2
:101FE00017484038FEF726FA01214FF0A040FEF7CF
:101FF00021FA012111481430FEF76AFB01210F4834
:10200000FEF766FB00BF01210D484038FEF796FA47
:102010000028F8D000BF01214FF0A040FEF78EFA53
:102020000028F8D006484038FEF73CFB4FF0A040AF
:10203000FEF738FB1BB000BD000800480800024056
:1020400040010050880000204000005010B500F012
:1020500031FC4FF49670FFF703FDFFF75DF8FFF7D3
:1020600057F9FFF735F9FFF7B9F8FFF7D9FD104831
:10207000FFF756FBDFED0F1AB1EE001ADFED0E0A87
:102080009FED0E0A0A48FFF741FBDFED0D1A9FEDA9
:102090000D1ADFED0D0A9FED0D0A0D48FFF736FB17
:1020A0000122042144F6206000F014F810BD000065
:1020B00044000020000000006F12033A6F12833AC0
:1020C000CDCCCC3D3333733F6F12033B0AD7A33BD8
:1020D0005C0000202DE9F0412DED068BAAB00446EE
:1020E0000D46174600202890299024902590269090
:1020F000279020211CA8FEF76CF8202114A8FEF7D9
:1021000068F820210CA8FEF764F8242103A8FEF744
:1021100060F8002001900290009049F2880084420B
:1021200003D89FEDFE8A022609E0FD48844203D8C9
:102130009FEDFC8A012602E09FEDFB8A00264FF40A
:102140008050FFF75DFB01214807FFF749FB0C2199
:10215000F648FEF7F9FC00BF4FF48031F348FEF774
:102160002DFD0028F8D0002014901590169017909F
:102170004FF000601890002019901A904FF0005016
:102180001B9000EE104AB8EE400AC8EE000ABCEE02
:10219000E00A8DED240A781E2590269608202790C7
:1021A00014AB24AA0521E148FEF71BFF05F001004E
:1021B00000286ED04FF44070289003208DF8A500C1
:1021C00002208DF8A40000208DF8A6008DF8A7004D
:1021D00028A94FF09040FEF75AFB0D2208214FF03E
:1021E0009040FEF79FFB0D220921C806FEF79AFBDF
:1021F0004FF000501B9000EE104AB8EE400AC8EEB7
:10220000000ABCEEE00A8DED240A012025902696F6
:102210000820279014AB24AA0021C448FEF7E1FE51
:102220004FF480701F90002020901D901E901C90F5
:10223000229023904FF4002021901CAA0021BB483B
:10224000FEF786FE00200C9008200D9040200E9096
:1022500000200F9010901190129013900CAB01225F
:102260000021B248FEF762FE0120039000200A9090
:1022700009900B904FF496700890002006900590FE
:1022800007904FF49670049003AA0021A748FEF728
:102290006FFC05F00200022871D14FF440602890D5
:1022A00003208DF8A50002208DF8A40000208DF8F1
:1022B000A6008DF8A70028A94FF09040FEF7E7FA96
:1022C0000D220A214FF09040FEF72CFB0D220B212E
:1022D0004FF09040FEF726FB4FF000501B9000EEB1
:1022E000104AB8EE400AC8EE000ABCEEE00A8DEDD6
:1022F000240A0120259026960820279014AB24AAB2
:1023000001218A48FEF76DFE4FF480701F90002077
:1023100020901D901E901C90102022900020239051
:102320004FF4801021901CAA01218048FEF710FE76
:1023300000200C9008200D9040200E9000200F905F
:1023400010901190129013900CAB04220121774849
:10235000FEF7ECFD0120039000200A9009900B90FD
:102360004FF49670089000200690059007904FF467
:102370009670049003AA01216C48FEF7F9FB05F062
:10238000040004286CD14FF44050289003208DF8AD
:10239000A50002208DF8A40000208DF8A6008DF87D
:1023A000A70028A96248FEF772FA0D220C216048A6
:1023B000FEF7B8FA0D2211465D48FEF7B3FA4FF06A
:1023C00000501B9000EE104AB8EE400AC8EE000A1A
:1023D000BCEEE00A8DED240A012025902696082007
:1023E000279014AB24AA02215048FEF7FAFD4FF4BF
:1023F00080701F90002020901D901E901C902290B5
:1024000023904FF4001021901CAA02214748FEF7A8
:102410009FFD00200C9008200D9040200E90002081
:102420000F9010901190129013900CAB102202217B
:102430003E48FEF77BFD0120039000200A900990A2
:102440000B904FF49670089000200690059007902E
:102450004FF49670049003AA02213448FEF788FBDB
:1024600005F00800082879D14FF440402890032057
:102470008DF8A50002208DF8A40000208DF8A6009C
:102480008DF8A70028A92A48FEF701FA0D220E218F
:102490002748FEF747FA0D220F212548FEF742FA9A
:1024A0004FF000501B9000EE104AB8EE400AC8EE04
:1024B000000ABCEEE00A8DED240A01202590269644
:1024C0000820279014AB24AA03211848FEF789FDA1
:1024D0004FF480701F90002020901D901E901C9043
:1024E000229023904FF4800021901CAA03210F48D2
:1024F000FEF72EFD00200C9008200D9040200E903D
:1025000000200F9010901190129013900CAB40226D
:1025100003210648FEF70AFD01200BE04054894ED6
:10252000581501004054094F4054894F0074014030
:1025300000040048039000200A9009900B904FF48B
:102540009670089000200690059007904FF49670C2
:10255000049003AA0321B048FEF70AFB2498FDF774
:10256000B5FE41EC1A0B9FEDAD0B53EC102BFDF7B4
:102570003BFE41EC190BFDF7B6FE804642460121B9
:10258000A548FEF76CFB2498FDF7A0FE41EC1A0B62
:102590009FEDA20B53EC102BFDF726FE41EC190B1F
:1025A000FDF7A1FE8046424608219B48FEF757FBF7
:1025B0002498FDF78BFE41EC1A0B9FED980B53EC22
:1025C000102BFDF711FE41EC190BFDF78CFE804638
:1025D0004346012203219048FEF7E6FB2498FDF7CD
:1025E00075FE41EC1A0B9FED8D0B53EC102BFDF794
:1025F000FBFD41EC190BFDF776FE804643460822B1
:1026000003218548FEF7D0FB2498FDF75FFE41ECDF
:102610001A0B9FED820B53EC102BFDF7E5FD41ECFF
:10262000190BFDF760FE80464346012200217A48DF
:10263000FEF7BAFB2498FDF749FE41EC1A0B9FED1B
:10264000770B53EC102BFDF7CFFD41EC190BFDF789
:102650004AFE80464346082200216F48FEF7A4FB4D
:102660002498FDF733FE41EC1A0B9FED6C0B53ECF5
:10267000102BFDF7B9FD41EC190BFDF734FE804638
:102680004346012211466448FEF78EFB2498FDF76D
:102690001DFE41EC1A0B9FED610B53EC102BFDF767
:1026A000A3FD41EC190BFDF71EFE804643460822B0
:1026B00001215948FEF778FB2498FDF707FE41EC0D
:1026C0001A0B9FED560B53EC102BFDF78DFD41ECD3
:1026D000190BFDF708FE80464346012202214E48B1
:1026E000FEF762FB2498FDF7F1FD41EC1A0B9FED1C
:1026F0004B0B53EC102BFDF777FD41EC190BFDF75D
:10270000F2FD80464346082202214348FEF74CFB77
:102710002498FDF7DBFD41EC1A0B9FED400B53ECC9
:10272000102BFDF761FD41EC190BFDF7DCFD804638
:102730004346012203213848FEF736FB2498FDF773
:10274000C5FD41EC1A0B9FED350B53EC102BFDF73B
:102750004BFD41EC190BFDF7C6FD804643460822B0
:1027600003212D48FEF720FB01200290002001905C
:1027700001AA04212848FEF78FF9102002900020BA
:10278000019001AA01212448FEF786F943208DF823
:10279000000000208DF802008DF8010001208DF866
:1027A00003006846FEF75CFD0123102205211A484C
:1027B000FEF70FFA4FF4F0111748FEF7B3FB05F0E0
:1027C000010018B103211448FEF7BEFB05F002001A
:1027D000022803D10C211048FEF7B6FB05F00400D7
:1027E000042803D130210C48FEF7AEFB05F00800A9
:1027F000082803D1C0210848FEF7A6FB4FF480311A
:102800000548FEF78FFB0749249808602AB0BDEC05
:10281000068BBDE8F081000000740140000000005C
:102820000000E03F4000002010B52DED028BF0EEDF
:10283000408A04461D4890ED000AB8EE400AF6EEC4
:10284000000A20EE200ABCEEC00AB0EE408AB6EEC6
:10285000000A68EE800A90ED000AB8EE401AB8EE61
:10286000480A00EEC10ABCEEC00A10EE103A01227E
:1028700021460F48FEF798FAB6EE000A68EE800A85
:102880000A4890ED000AB8EE401AB8EE480A00EE89
:10289000810ABCEEC00A10EE103A08222146044814
:1028A000FEF782FABDEC028B10BD00004000002054
:1028B0000074014070B51C4800684FF47A72B0FB98
:1028C000F2F1481EB0F1807F00D31BE0481E4FF0AC
:1028D000E022506150170F22002807DA13071D0E5F
:1028E000124B00F00F04241F1D5503E013071C0EAC
:1028F0000F4B1C5400BF00204FF0E02290610720D6
:10290000106100BF01214804FEF74AFF012188043D
:10291000FEF746FF0121C804FEF742FF012108052A
:10292000FEF73EFF70BD00002000002018ED00E023
:1029300000E400E010B50246012000E050430B1E09
:10294000A1F10104E1B2F9D110BD000000000000C6
:102950000000002F000000000700070000147F1493
:102960007F1400242A7F2A12006264081323003691
:102970004955225000000503000000001C224100C0
:10298000000041221C000014083E08140008083E04
:102990000808000000A060000008080808080000FF
:1029A00060600000002010080402003E5149453ECE
:1029B0000000427F400000426151494600214145EC
:1029C0004B31001814127F10002745454539003C53
:1029D0004A49493000017109050300364949493621
:1029E00000064949291E0000363600000000563610
:1029F00000000008142241000014141414140000F4
:102A00004122140800020151090600324959513E81
:102A1000007C1211127C007F49494936003E414139
:102A20004122007F4141221C007F49494941007FEA
:102A300009090901003E4149497A007F0808087FD9
:102A40000000417F4100002040413F01007F081409
:102A50002241007F40404040007F020C027F007F07
:102A60000408107F003E4141413E007F09090906EC
:102A7000003E4151215E007F09192946004649491F
:102A800049310001017F0101003F4040403F001FEC
:102A90002040201F003F4038403F0063140814636B
:102AA00000070870080700615149454300007F4155
:102AB000410000552A552A55000041417F0000047D
:102AC00002010204004040404040000001020400B6
:102AD000002054545478007F48444438003844441B
:102AE000442000384444487F0038545454180008A7
:102AF0007E0901020018A4A4A47C007F08040478C5
:102B00000000447D4000004080847D00007F10284C
:102B100044000000417F4000007C04180478007CE1
:102B20000804047800384444443800FC2424241861
:102B30000018242418FC007C08040408004854549D
:102B4000542000043F444020003C4040207C001CB6
:102B50002040201C003C4030403C004428102844C9
:102B6000001CA0A0A07C004464544C441414141411
:102B7000141400000000000000000000000000002D
:102B80000000000000F800000000000000333000EA
:102B9000000000100C06100C0600000000000000F1
:102BA000000040C07840C0784000043F04043F0467
:102BB0000400007088FC08300000001820FF211E6F
:102BC0000000F008F000E018000000211C031E21A6
:102BD0001E0000F00888700000001E212324192721
:102BE000211010160E000000000000000000000080
:102BF0000000000000E01804020000000007182098
:102C0000400000020418E000000000402018070007
:102C10000000404080F0804040000202010F0102AD
:102C20000200000000F0000000000101011F01018E
:102C30000100000000000000000080B070000000F3
:102C4000000000000000000000000001010101017F
:102C50000101000000000000000000303000000012
:102C600000000000000080601804006018060100E9
:102C7000000000E010080810E000000F10202010F5
:102C80000F00001010F8000000000020203F20205E
:102C900000000070080808887000003028242221F5
:102CA00030000030088888483000001820202011AB
:102CB0000E000000C02010F8000000070424243F8C
:102CC000240000F808888808080000192120201135
:102CD0000E0000E0108888180000000F112020115D
:102CE0000E0000380808C83808000000003F000047
:102CF00000000070880808887000001C2221212232
:102D00001C0000E010080810E00000003122221131
:102D10000F00000000C0C0000000000000303000C4
:102D20000000000000800000000000008060000043
:102D3000000000008040201008000001020408107C
:102D4000200040404040404040000404040404048B
:102D50000400000810204080000000201008040239
:102D60000100007048080808F0000000003036013B
:102D70000000C030C828E810E000071827242314FA
:102D80000B000000C038E0000000203C23020227B6
:102D9000382008F8888888700000203F2020201103
:102DA0000E00C0300808080838000718202020103E
:102DB000080008F808080810E000203F2020201034
:102DC0000F0008F88888E8081000203F2020232002
:102DD000180008F88888E8081000203F2000030049
:102DE0000000C03008080838000007182020221E04
:102DF000020008F808000008F808203F210101211E
:102E00003F20000808F8080800000020203F20208C
:102E1000000000000808F8080800C08080807F00DB
:102E2000000008F888C028180800203F2001263834
:102E3000200008F8080000000000203F202020208B
:102E4000300008F8F800F8F80800203F003F003F85
:102E5000200008F830C00008F808203F20000718BC
:102E60003F00E01008080810E0000F10202020109C
:102E70000F0008F808080808F000203F21010101B0
:102E80000000E01008080810E0000F182424385053
:102E90004F0008F8888888887000203F2000030CC5
:102EA00030200070880808083800003820212122CE
:102EB0001C00180808F8080818000000203F20002F
:102EC000000008F808000008F808001F2020202053
:102ED0001F000878880000C83808000007380E0175
:102EE0000000F80800F80008F800033C0700073C61
:102EF0000300081868808068180820302C03032C11
:102F000030200838C800C83808000000203F2000E2
:102F1000000010080808C8380800203826212020A2
:102F20001800000000FE020202000000007F404086
:102F30004000000C30C00000000000000001063816
:102F4000C00000020202FE000000004040407F007E
:102F50000000000004020202040000000000000063
:102F60000000000000000000000080808080808061
:102F70008080000202040000000000000000000049
:102F8000000000008080808000000019242222229E
:102F90003F2008F8008080000000003F1120201131
:102FA0000E000000008080800000000E1120202014
:102FB0001100000000808088F800000E1120201011
:102FC0003F200000808080800000001F22222222FB
:102FD0001300008080F0888888180020203F20207F
:102FE00000000000808080808000006B94949493A7
:102FF000600008F8008080800000203F2100002051
:103000003F2000809898000000000020203F2020F2
:103010000000000000809898000000C08080807F41
:10302000000008F8000080808000203F24022D303E
:103030002000000808F8000000000020203F2020A9
:1030400000008080808080808000203F20003F2022
:10305000003F8080008080800000203F2100002011
:103060003F200000808080800000001F2020202062
:103070001F00808000808000000080FFA1202011C0
:103080000E000000008080808000000E112020A033
:10309000FF80808080008080800020203F212000F1
:1030A00001000000808080808000003324242424DC
:1030B0001900008080E0808000000000001F2020B8
:1030C00000008080000000808000001F2020201071
:1030D0003F20808080000080808000010E30080644
:1030E000010080800080008080800F300C030C3055
:1030F0000F0000808000808080000020312E0E3183
:103100002000808080000080808080818E70180682
:10311000010000808080808080000021302C2221EE
:10312000300000000000807C020200000000003F30
:10313000404000000000FF00000000000000FF0011
:1031400000000002027C800000000040403F0000C0
:10315000000000060101020204040000000000005B
:10316000000000008431000800000020440000003E
:10317000401A0008C83100084400002084100000F4
:10318000501A0008000000006666A640000000001B
:10319000000000000000000000000000000000002F
:1031A0000000000000A24A0400000000000000002F
:1031B00001020304060708090000000000000000E7
:0831C000000000000000000007
:040000050800018965
:00000001FF
