:020000040800F2
:1000000068110020A1010008151600085914000805
:1000100011160008490A0008A12600080000000087
:10002000000000000000000000000000C1200008E7
:10003000070C000800000000D91A000889210008F8
:10004000BB010008BB010008BB010008BB010008A0
:10005000BB010008BB010008090C0008BB01000837
:10006000BB010008BB010008BB010008BB01000880
:10007000BB010008BB010008BB010008BB01000870
:10008000BB010008BB010008BB010008BB01000860
:10009000BB010008BB010008BB010008BB01000850
:1000A000BB010008BB010008BB010008BB01000840
:1000B000BB010008BB01000800000000BB010008F4
:1000C000BB0100080000000000000000BB010008A8
:1000D00000000000BB010008BB010008BB010008D4
:1000E000BB010008BB010008000000000000000088
:1000F0000000000000000000000000000000000000
:1001000000000000000000000000000000000000EF
:100110000000000000000000BB010008BB01000857
:1001200000000000000000000000000000000000CF
:1001300000000000000000000000000000000000BF
:10014000BB010008BB01000800000000010D000811
:10015000BB010008BB010008BB010008BB0100088F
:10016000BB010008BB010008000000000000000007
:10017000000000000000000000000000000000007F
:1001800000000000BB010008DFF810D000F0E0FA2A
:1001900000480047A5310008AFF300806811002037
:1001A0000648804706480047FEE7FEE7FEE7FEE711
:1001B000FEE7FEE7FEE7FEE7FEE7FEE79121000827
:1001C00089010008D2B201E000F8012B491EFBD2E0
:1001D00070470022F6E710B513460A460446194652
:1001E000FFF7F0FF204610BD2DE9FE4F804681EA63
:1001F0000300C00F0C46009021F0004123F00045A1
:10020000B8EB0200A94105D24046214690461C4663
:100210000B46024623F00040104347D0270DC7F39A
:100220000A00C3F30A510290401A019040286BDA89
:10023000C3F3130040F4801B0098924620B10023C2
:10024000D2EB030A63EB0B0B01985946C0F1400255
:10025000504600F0B7F906460D4650465946019AF9
:1002600000F0CFF910EB08006141002487EA115239
:1002700084EAE7731A4340D0009A62B3019A012AD4
:100280004FEA075215DC001B61EB02014FF0004200
:1002900002EA0752CDE90042001C41F580113246C6
:1002A0002B4600F006FA03B0BDE8F08F4046214629
:1002B000F9E7001B61EB0201001C41F580130018F7
:1002C0005B412018A2F5001747EB030140EAD57007
:1002D000B6196D4111E06D084FEA360645EAC07562
:1002E0004FEA0752001B61EB0201001C41F580112F
:1002F00049084FEA30000019514132462B4603B0FD
:10030000BDE8F04F00F0C6B900980122400000237C
:10031000D0EB020263EBE073009821464FEAE074F1
:10032000B8EB000061EB0401E9E783F000435BE711
:1003300081F0004158E72DE9FE4F81EA030404F003
:10034000004421F0004100944FF0000B23F00043E3
:1003500050EA01045ED052EA03045BD0C3F30A54AE
:10036000C1F30A552C44A4F2F3340194A0FB0254C7
:10037000C1F3130141F48011C3F3130343F4801359
:1003800001FB024400FB034E840A970A44EA8154AD
:1003900047EA8357A4FB076802958D0A05FB07858A
:1003A0004FEA932C04FB0C542705029D4FEA065894
:1003B00047EA1637B5EB08056EEB070C870E920E71
:1003C00047EA811742EA8312A7FB0201B6EB0B0151
:1003D00064EB00042B0D43EA0C335E1844EB1C5015
:1003E000DA465146E7FB0201C5F313044FEA0B332B
:1003F00043EA14534FEA0432019C43EA0603A4F192
:100400000C040294009CCDE900B400F052F903B052
:10041000BDE8F08F00200146F9E72DE9F04D81EAB3
:10042000030404F0004B21F0004514464FF0000A8D
:1004300023F0004150EA050220D054EA01021DD009
:10044000C5F30A570246C5F31303C1F31300C1F302
:100450000A5640F4801543F48013A7EB0608101BDE
:10046000D64608F2FD3873EB050002D308F1010807
:1004700001E092185B41B8F1000F03DA0020014659
:10048000BDE8F08D00204FF48011064684460EE052
:10049000171B73EB050705D3121B63EB050306431C
:1004A0004CEA010C49084FEA300092185B4150EACF
:1004B0000107EDD152EA030012D082EA040083EA78
:1004C0000501084305D0101BAB4106D201220023D1
:1004D00006E000224FF0004302E06FF001025310EB
:1004E0001AEB06004CEB085110EB0A0041EB0B0134
:1004F000BDE8F04D00F0CEB80EB5C10F80EAE07057
:100500000844CA07002140F233438DE80E000A4632
:100510000B4600F0CEF803B000BD0EB540F23341FB
:1005200002910021CDE900110A460B4600F0C1F806
:1005300003B000BDC1F30A5210B5C1F3130140F27C
:10054000FF3341F480119A4201DA002010BD40F2DD
:1005500033439A42A2F2334203DC524200F041F8A4
:1005600010BD904010BD00F0004230F000400AD0B5
:10057000C10D01F56071C0F3160042EA0151C208D5
:1005800040071143704700200146704701F00043C7
:1005900030B421F0004150EA010206D00A0DA2F564
:1005A0006072C1F31301002A02DC30BC00207047E6
:1005B000440F44EAC104C100E01830BC00EBC25053
:1005C00000F031B8202A04DB203A00FA02F10020C2
:1005D00070479140C2F1200320FA03F31943904081
:1005E0007047202A04DB203A21FA02F000217047EC
:1005F00021FA02F3D040C2F120029140084319468B
:100600007047202A06DBCB17203A41FA02F043EA72
:10061000E07306E041FA02F3D040C2F120029140BB
:100620000843194670470029A8BF7047401C49007D
:1006300008BF20F00100704710B4B0FA80FC00FA47
:100640000CF050EA010404BF10BC704749B1CCF172
:10065000200421FA04F411FA0CF118BF01212143FE
:100660000843A3EB0C01CB1D4FEA00614FEA1020B9
:1006700042BF002010BC704700EBC350104400295B
:10068000A4BF10BC7047401C490008BF20F0010007
:1006900010BC704710B5141E73F1000408DA401C3A
:1006A00041F1000192185B411A4301D120F0010091
:1006B00010BD2DE9F04D92469B4611B1B1FA81F281
:1006C00002E0B0FA80F220329046FFF77BFF04464A
:1006D0000F4640EA0A0041EA0B0153465A460843D6
:1006E00013D0114653EA010019D0C8F14002504618
:1006F000FFF777FF05460E46504659464246FFF73C
:1007000061FF084305D0012004E020463946BDE8DA
:10071000F08D0020054346EAE0762C4337430A98E3
:100720006305E40AA0EB08000022FD0A44EA4754EE
:100730000A3002D500200146E9E701051019694198
:10074000DDE9084500196941BDE8F04DA2E7000068
:10075000064C074D06E0E06840F0010394E807000E
:1007600098471034AC42F6D3FFF712FDD049000889
:10077000F049000870B5C1F30A5201F000450024A9
:10078000C1F3130140F2FF3341F480119A4201DAC0
:10079000002070BD40F233439A42A2F2334203DCA0
:1007A0005242FFF71EFF00E090402C43F1D0404240
:1007B00070BD21B1826842F00102826003E082686C
:1007C00042F002028260704710B50022B0F1A04FE3
:1007D00002D0124B984204D1114B1A68114B1A40A7
:1007E00003E0114B1A680F4B1A40D1E90034234340
:1007F0008C682343CC6843EA04330C7C43EA04232B
:100800001A43B0F1A04F02D0044B984202D1044BDE
:100810001A6001E0044B1A6010BD00000001005096
:1008200008030050E010FCFF0807005021B1C26827
:1008300042F00102C26003E0C26822F00102C2601D
:100840007047C26822F00202C260C2680A43C260F6
:100850007047000010B50446B4F1A04F02D00E4816
:10086000844209D10121080701F060F900214FF00D
:10087000805001F05BF90EE00848844202D008483D
:10088000844208D10121480701F050F900214FF0BE
:10089000005001F04BF910BD000100500004005061
:1008A00000050050014600208A6802F000420AB1AB
:1008B000012000E0002070470246002013680B4032
:1008C0000BB1012000E000207047000010B5024687
:1008D0000020D0680C4B1840D1E9003423438C68C9
:1008E0002343CC6823430C6923434C6923438C691D
:1008F00023431843D060106B20F00F000B7F5B1E6A
:100900001843106310BD000007C0FFFDF0B50C4692
:100910001D4600BF00BF052A0FDA016B02EB42063D
:1009200077001F2606FA07F3994302EB420676008A
:1009300004FA06F3194301633CE00A2A11DA416B19
:10094000561F06EB460677001F2606FA07F3994363
:10095000561F06EB4606760004FA06F31943416378
:1009600028E00F2A13DA816BA2F10A0606EB46068D
:1009700077001F2606FA07F39943A2F10A0606EB51
:100980004606760004FA06F31943816312E0C16B50
:10099000A2F10F0606EB460677001F2606FA07F3BC
:1009A0009943A2F10F0606EB4606760004FA06F319
:1009B0001943C163092C14DD8169A4F10A0606EB11
:1009C0004607072606FA07F386699E43866186690D
:1009D000A4F10A0707EB470705FA07F73E438661CC
:1009E00010E04169661E06EB4607382606FA07F353
:1009F00046699E434661466904EB440705FA07F7DA
:100A00003E434661F0BD826822F080428260826887
:100A10000A4382607047816841F0004181607047FD
:100A2000816841F0040181607047826822F0405281
:100A3000826021B1826842F08052826003E0826865
:100A400042F000528260704700BFFEE721B10268A9
:100A500042F00102026004E002684FF6FE731A40A1
:100A60000260704701684FF6FE721140016000217C
:100A7000016041608160C1604B49884208D14A49A8
:100A80000839496841F00F01474A083A51608AE045
:100A900045491431884208D143490839496841F031
:100AA000F001414A083A51607DE03F4928318842CF
:100AB00008D13D490839496841F470613A4A083A19
:100AC000516070E038493C31884208D136490839D4
:100AD000496841F47041344A083A516063E0324950
:100AE0005031884208D130490839496841F47021B1
:100AF0002D4A083A516056E02B496431884208D1AA
:100B000029490839496841F47001274A083A516077
:100B100049E025497831884208D123490839496894
:100B200041F07061204A083A51603CE01F49884218
:100B300006D1011F096841F00F01021F116032E068
:100B40001A491431884208D11849091F096841F02F
:100B5000F001164A121F116025E01449283188421D
:100B600008D11249091F096841F470610F4A121F28
:100B7000116018E00D493C31884208D10B49091F2A
:100B8000096841F47041094A121F11600BE00749DE
:100B90005031884207D10549091F096841F4702185
:100BA000024A121F11607047080002400804024008
:100BB00010B50022026847F6F0739A430C6A8B68FE
:100BC00023430C6923434C6923438C692343CC6939
:100BD00023434C6A23438C6A23431A4302608B8964
:100BE00043600B6883604B68C36010BD00210160E7
:100BF000416081608181016141618161C161016206
:100C000041628162704770477047F0B50A46002123
:100C100000240025002300BF3FE0012606FA01F46E
:100C2000166806EA0405A54236D11679012E02D0CF
:100C30001679022E18D186684FEA410C032707FA6D
:100C40000CF7BE43866056794F00BE4087683E432E
:100C50008660868801278F40BE4386808788967984
:100C60008E40B6B23743878006684FEA410C0327AF
:100C700007FA0CF7BE43066016794F00BE400768BE
:100C80003E430660C3684F000326BE40B343D67997
:100C90004F00BE403343C360491C1029BDD3F0BD93
:100CA000F0B5002300244D07ED0E02FA05F3CE1037
:100CB00000F1200555F826504E07F70E0F26BE40CE
:100CC000B543CF1000F1200646F82750CE1000F1B2
:100CD000200555F8265045EA0304CE1000F1200502
:100CE00045F82640F0BD02460020138A0B400BB1A8
:100CF000012000E000207047018570478161704746
:100D000010B52DED028B00F0DDFE6A4890ED000A73
:100D1000694880ED0A0A674890ED010A664880ED4F
:100D20000B0A644890ED020A634880ED0C0A634B9D
:100D30005A8E198DD88B02F0EDF900EE100AF8EEFC
:100D4000400A9FED5F1A9FED5F0A00EE810A5A4844
:100D500080ED000A594B9A8E598D188C02F0DAF901
:100D600000EE100AF8EE400A9FED551A9FED560A64
:100D700000EE810A504880ED010A504BDA8E998DC1
:100D8000588C02F0C7F900EE100AF8EE400A9FED09
:100D90004C1A9FED4D0A00EE810A474880ED020A89
:100DA000464B1A8FD98D988C02F0B4F900EE100AD8
:100DB000F8EE400A9FED421A9FED430A00EE810AC9
:100DC0003D4880ED030A3D4B9A8A5989188802F004
:100DD000A1F900EE100AF8EE400A9FED3C1ABAEEB7
:100DE000090A00EE810A344880ED040A334B5A8F19
:100DF000198ED88C02F08EF900EE100AF8EE400A37
:100E00009FED321ABAEE090A00EE810A2A4880EDF7
:100E1000050A2A4B1A8BD989988802F07BF900EED3
:100E2000100AF8EE400A9FED291ABAEE090A00EE00
:100E3000810A214880ED060A01F0A3FB01F0ECF9DC
:100E4000234890ED001BB0EE410AF0EE610A51EC30
:100E5000100BFFF79BFB08EE100A0220B0EE480AC9
:100E600003F002F81A4890ED021BB0EE410AF0EED2
:100E7000610A51EC100BFFF789FB08EE100A032002
:100E8000B0EE480A03F036F8114890ED041BB0EEBE
:100E9000410AF0EE610A51EC100BFFF777FB08EE08
:100EA000100A0020B0EE480A03F024F8BDEC028BD3
:100EB00010BD00000C010020900000202C0100203B
:100EC000DEFFC73C00000000000048C2DEFFC73B59
:100ED000C800002030B50346D3F88003012906D0AE
:100EE00002290DD0042915D0082927D11CE020F4AF
:100EF000E020146820434FF46F745568E5501EE0FD
:100F000020F46010146840EAC4004FF4707455680F
:100F1000E55014E020F0E070146840EA84104FF4CB
:100F200071745568E55000BF20F06060146840EAB5
:100F300044204FF472745568E55000E000BF00BFD4
:100F4000C3F8800330BD10B5062918D2DFE801F0E0
:100F50000708090A0B0383681343836010E000BF8E
:100F600000BF00BF00BF00F1800303EBC1139B680B
:100F7000134300F1800404EBC114A36000E000BF40
:100F800000BF10BD02464FF4737398584B1C23B931
:100F900020F0020040F0010004E020F00D0041F0DC
:100FA000020318434FF473739850704710B503460B
:100FB00003F1800404EBC114A06B0E4C20401468B4
:100FC00040EA8420546820439468204314692043F5
:100FD000D4682043948A40EA044094692043146A08
:100FE0002043D469204303F1800404EBC114A063BF
:100FF00010BD00000020FF3D024600204FF4627348
:101000009B580B400BB1012000E00020704730B529
:1010100006292AD2DFE801F00C0D0E0F10031BB1D8
:10102000C4681443C46002E0C4689443C4601DE013
:1010300000BF00BF00BF00BF5BB100F1800404EB44
:10104000C114E468144300F1800505EBC115EC60A0
:101050000AE000F1800404EBC114E468944300F159
:10106000800505EBC115EC6000E000BF00BF30BD9E
:10107000026822F00702026002688B681A4302606D
:10108000026822F0180202600268CB681A4302600C
:101090000A6842614A6882617047012906D00229C4
:1010A00006D0042906D0082908D105E0C26106E06F
:1010B000426204E0826202E0C26200E000BF00BF60
:1010C000704710B5024610684FF46874A35820F0BA
:1010D00020000C68204320F400604C68204320F47A
:1010E00080608C68204320F0C060CC68204320F0F2
:1010F00000600C69204320F040404C6940EA8400C5
:1011000020F00050CC69204323F480338C692343C2
:1011100010604FF46874A35010BDF0B50446154636
:10112000002204F1800606EBC116706E202D2CD033
:101130000CDC042D16D004DC012D12D0022D34D18C
:1011400021E0082D20D0102D2FD10CE0402D0BD008
:10115000802D1BD0B5F5807F07D0B5F5007F24D159
:1011600015E000BF00BF00BF00BF04F1800606EB22
:10117000C1165F68F76304F1800606EBC1169F682D
:101180003764002212E000BF00BF00BF00BF04F1BF
:10119000800606EBC1165F68776404F1800606EBF3
:1011A000C1169F68B764102200E000BF00BFFE2692
:1011B0009640B0431E6896403043DE689640304308
:1011C0001E69964030435E69964030439E69964062
:1011D0003043DE699640304304F1800606EBC116C9
:1011E0007066F0BD10B5012A06D0022A0AD0042A82
:1011F0000ED0082A18D111E000F1800404EBC114CC
:10120000E36112E000F1800404EBC11463620CE0BE
:1012100000F1800404EBC114A36206E000F1800435
:1012200004EBC114E36200E000BF00BF10BD10B5C5
:1012300000F1800303EBC1131B6823F0070400F1E6
:10124000800303EBC1131C6000F1800303EBC113A7
:101250001B689468234300F1800404EBC1142360ED
:1012600000F1800303EBC1131B6823F0180400F1A5
:10127000800303EBC1131C6000F1800303EBC11377
:101280001B68D468234300F1800404EBC11423607D
:1012900000F1800303EBC11314685C6100F180036B
:1012A00003EBC11354689C6110BD30B504460B4676
:1012B00004F1800505EBC31528684FF468752959BA
:1012C00020F020001568284320F40060556828436A
:1012D00020F480609568284320F0C060D5682843DA
:1012E00020F000601569284320F0704055692843BC
:1012F00020F40030D569B5F1005F01D140F4003031
:10130000052B22D2DFE803F003090F151B0021F49F
:101310000031956941EA450118E021F48021956981
:1013200041EA850112E021F40021956941EAC501F5
:101330000CE021F48011956941EA051106E021F4E1
:101340000011956941EA451100E000BF00BF04F1BA
:10135000800505EBC31528604FF46875295130BD31
:1013600002680A43026070472DE9F04104460D46C9
:1013700016461F463B46324629462046FFF7CDFE1D
:10138000BDE8F0814FF4657211507047F0B500F17F
:10139000800707EBC1173B6800F1800707EBC11717
:1013A000BC6E00F1800707EBC1177D6E00F180076E
:1013B00007EBC1177E6D23F0400317683B4323F40E
:1013C0008023D7693B4323F0FC7357693B4324F0E8
:1013D0001F04177907F01F073C4324F00044976867
:1013E0003C4325F48075D7683D4325F4F0551769D3
:1013F0003D43966900F1800707EBC1173B6000F1A0
:10140000800707EBC117BC6600F1800707EBC11727
:101410007D6600F1800707EBC1177E65F0BD2DE901
:10142000F04107460D4616461C46052D08D13146AB
:101430003846FFF71DFE21463846FFF742FE09E019
:10144000324629463846FFF7F2FE224629463846FC
:10145000FFF72BFFBDE8F08100BFFEE710B54FF4AA
:1014600080710948FFF74AFC4FF400710648FFF706
:1014700045FC4FF400710448FFF73EFC4FF48071C7
:101480000148FFF739FC10BD0004004810B54FF4C7
:1014900080710748FFF732FC4FF400710448FFF7F2
:1014A0002BFC4FF400710248FFF728FC10BD000030
:1014B0000004004810B54FF480710448FFF71EFC8B
:1014C0004FF480710148FFF717FC10BD000400487D
:1014D0001CB50120009000208DF8040003208DF839
:1014E000050001208DF8070069461148FFF78DFBC4
:1014F0000220009000208DF8040003208DF80500E4
:1015000001208DF8070069460948FFF77EFB04209B
:10151000009000208DF8040003208DF805000120C4
:101520008DF8070069460248FFF76FFB1CBD0000FD
:101530000004004810B5044601211548FFF7D3FB0D
:1015400048B102211248FFF7CEFB20B10421104818
:10155000FFF7C9FBC8B90A2001F0C4FD01210C48FE
:10156000FFF7C1FB08B9012010BD02210848FFF7B1
:10157000BAFB08B90220F7E704210548FFF7B3FBDF
:1015800008B90320F0E70020EEE70020ECE70000B8
:10159000000400481CB54FF40040009001208DF875
:1015A000040000208DF8060001208DF807000320BC
:1015B0008DF8050069461548FFF727FB4FF480407A
:1015C000009001208DF8040000208DF80600012015
:1015D0008DF8070003208DF8050069460B48FFF7DA
:1015E00014FB4FF40050009001208DF804000020FF
:1015F0008DF8060001208DF8070003208DF8050006
:1016000069460248FFF701FB1CBD000000080048C6
:1016100000BFFEE77047000070B5002100230F22D5
:10162000C47804B3154C246804F4E064C4F5E064A1
:10163000210AC1F10403CA40447804FA03F1847812
:101640001440214309010E4C0678A155047804F09A
:101650001F050124AC4005786D11AD0005F1E025B2
:10166000C5F8004109E0047804F01F050124AC40EE
:10167000044D0678761145F8264070BD0CED00E06B
:1016800000E400E080E100E070B5002418E004F11F
:10169000B000002100F00AFA0021084600F006FA26
:1016A0000021102000F002FA002505E001210020B1
:1016B00000F0FCF9681CC5B2802DF7DB601CC4B2D9
:1016C000082CE4DB70BD00001CB54FF440700090A6
:1016D00001208DF8040000208DF8060001208DF80F
:1016E000070003208DF8050069463C48FFF78DFA96
:1016F0004FF440713948FFF701FB4FF4487001F097
:10170000F1FC0021AE2000F0D1F90021084600F0E4
:10171000CDF90021102000F0C9F90021402000F08F
:10172000C5F90021B02000F0C1F90021812000F0AE
:10173000BDF90021FF2000F0B9F90021A12000F03F
:10174000B5F90021A62000F0B1F90021A82000F091
:10175000ADF900213F2000F0A9F90021C82000F0D8
:10176000A5F90021D32000F0A1F90021084600F0DE
:101770009DF90021D52000F099F90021802000F08A
:1017800095F90021D82000F091F90021052000F002
:101790008DF90021D92000F089F90021F12000F015
:1017A00085F90021DA2000F081F90021122000F0F3
:1017B0007DF90021DB2000F079F90021302000F0D4
:1017C00075F900218D2000F071F90021142000F03E
:1017D0006DF90021AF2000F069F91CBD000400483C
:1017E00070B504460D4605F1B000002100F05EF929
:1017F000102141EA1410002100F058F904F00F0004
:10180000002100F053F970BD2DE9F04707460E4660
:101810009046994600250024A8F12000C5B27F2FEC
:1018200002DD0027B01CC6B2B9F1100F24D1314639
:101830003846FFF7D5FF002408E004EB0511194AEC
:10184000505C012100F032F9601CC4B2082CF4DBBA
:10185000701CC1B23846FFF7C3FF002409E004EB57
:10186000051108310F4A505C012100F01FF9601C7E
:10187000C4B2082CF3DB12E031463846FFF7B0FF64
:1018800000240AE005EB4501074A02EB4101085D2F
:10189000012100F00BF9601CC4B2062CF2DBBDE89C
:1018A000F0870000BC420008944000082DE9FF5F6B
:1018B000074691461E460E9D4FF0000A002437E071
:1018C000301B401EC1B20A2002F09AFB99FBF0F0D7
:1018D0000A2190FBF1F201FB120000F0FF08BAF1BF
:1018E000000F14D1701EA04211DDB8F1000F0CD111
:1018F000AB4605EBDB71491001FB0471C8B22B4606
:1019000020220199FFF780FF10E04FF0010AAB465B
:1019100005EBDB71491001FB0471C8B208F130011D
:10192000CAB22B460199FFF76FFF00BF601CC4B21B
:10193000B442C5DBBDE8FF9F2DE9FF5F0746914636
:101940001E460E9D4FF0000A002435E0301B401E5D
:10195000C1B20A2002F054FBB9FBF0F00A21B0FB3F
:10196000F1F201FB1208BAF1000F14D1701EA0426F
:1019700011DDB8F1000F0CD1AB4605EBDB7149105E
:1019800001FB0471C8B22B4630220199FFF73CFFDE
:1019900010E04FF0010AAB4605EBDB71491001FB8B
:1019A0000471C8B208F13001CAB22B460199FFF7A1
:1019B0002BFF00BF601CC4B2B442C7DBBDE8FF9F71
:1019C0002DE9FF4F2DED020B2DED048B81B0054667
:1019D000B0EE408A16461C464FF0000A4FF001094F
:1019E000B5EEC08AF1EE10FA02DBF0EE488A01E0B3
:1019F000F1EE488ABDEEE80A10EE107ABDEEE80A74
:101A0000B8EEC00A38EEC09A4FF0000A07E009EBC2
:101A100089004FEA40090AF1010000F0FF0AB245CF
:101A2000F5DB00EE109AB8EEC00A29EE000AB0EE1F
:101A3000409ABDEEC90A10EE108AB5EEC08AF1EEEA
:101A400010FA06D223462D2228460899FFF7DCFE1D
:101A500005E023462B2228460899FFF7D5FEA3462A
:101A600004EBDB7105EB6101C8B202233A46009436
:101A70000899FFF71BFF04EB440B0BEBDB7105EB45
:101A80006101C8B223462E220899FFF7BDFE05EB7F
:101A90004401C8B23346424600940899FFF74CFF10
:101AA00001B0BDEC048B06B0BDE8F08F70B5044604
:101AB0000D461DB1E0B200F039FE02E0E0B200F0E8
:101AC0001FFE70BD10B5102205210248FFF73BFA3A
:101AD00010BD000000740140704700000021010F9C
:101AE00031B1094AD26A22F47852074BDA6205E032
:101AF000054AD26A22F4F872034BDA62024AD26AC9
:101B00000243014BDA6270470010024029B1064AD5
:101B100052690243044B5A6104E0034A526982430A
:101B2000014B5A61704700000010024029B1064A7B
:101B3000926A0243044B9A6204E0034A926A824327
:101B4000014B9A62704700000010024029B1064A1A
:101B500092690243044B9A6104E0034A926982430A
:101B6000014B9A6170470000001002402DE9F043DC
:101B7000002200260027944600250021002300248F
:101B8000DFF80C85D8F8048008F00C0222B1042A92
:101B900007D0082A30D109E0DFF8F884C0F80080C7
:101BA0002FE0DFF8F084C0F800802AE0DFF8E0845E
:101BB000D8F8048008F47016DFF8D484D8F80480CC
:101BC00008F480374FF0020808EB964627B9DFF893
:101BD000C88406FB08F10DE0DFF8B484D8F82C8047
:101BE00008F00F0808F1010CDFF8A884B8FBFCF836
:101BF00008FB06F1016004E0DFF89884C0F800807B
:101C000000BF00BFDFF88884D8F8048008F0F00235
:101C10001209DFF8888418F80240D0F8008028FA0A
:101C200004F8C0F80480DFF86884D8F8048008F469
:101C3000E062120ADFF8648418F80250D0F80480D9
:101C400028FA05F8C0F80880DFF84484D8F8048042
:101C500008F46052D20ADFF8448418F80230D0F851
:101C6000048028FA03F8C0F80C80DFF82484D8F840
:101C70002C8008F4F872120902F00F08DFF82094A3
:101C800039F8185002F01008B8F1000F05D025B14E
:101C9000B1FBF5F8C0F8108003E0D0F80080C0F880
:101CA0001080DFF8EC83D8F82C8008F47852520AC0
:101CB00002F00F08DFF8E89339F8185002F0100826
:101CC000B8F1000F05D025B1B1FBF5F8C0F81480CC
:101CD00003E0D0F80080C0F81480DFF8B483D8F8AF
:101CE000308008F01008B8F1100F04D0DFF8A4839A
:101CF000C0F8188003E0D0F80080C0F81880DFF842
:101D00009083D8F8308008F02008B8F1200F04D074
:101D1000DFF88083C0F81C8003E0D0F80080C0F8B2
:101D20001C80DFF86C83D8F8308008F04008B8F1E8
:101D3000400F04D0DFF85C83C0F8208003E0D0F8C7
:101D40000080C0F82080DFF84883D8F8308008F49D
:101D50008078B8F5807F0AD1D0F80080884506D118
:101D6000A34204D14FEA4108C0F8248003E0D0F830
:101D70000C80C0F82480DFF81883D8F8308008F48D
:101D80008058B8F5805F0AD1D0F80080884506D128
:101D9000A34204D14FEA4108C0F8288003E0D0F8FC
:101DA0000C80C0F82880DFF8E882D8F8308008F48A
:101DB0000078B8F5007F0AD1D0F80080884506D1B8
:101DC000A34204D14FEA4108C0F82C8003E0D0F8C8
:101DD0000C80C0F82C80DFF8B882D8F8308008F486
:101DE0008068B8F5806F0AD1D0F80080884506D1A8
:101DF000A34204D14FEA4108C0F8448003E0D0F880
:101E00000C80C0F84480DFF88882D8F8308008F46D
:101E10000068B8F5006F0AD1D0F80080884506D177
:101E2000A34204D14FEA4108C0F8488003E0D0F84B
:101E30000C80C0F84880DFF85882D8F8308008F469
:101E40000058B8F5005F0AD1D0F80080884506D167
:101E5000A34204D14FEA4108C0F84C8003E0D0F817
:101E60000C80C0F84880DFF82882D8F8308008F06D
:101E70000308B8F1000F04D1D0F80880C0F8308012
:101E800028E0DFF80C82D8F8308008F00308B8F1B9
:101E9000010F04D1D0F80080C0F830801AE0DFF8DC
:101EA000F081D8F8308008F00308B8F1020F04D1AF
:101EB0004FF40048C0F830800CE0DFF8D481D8F847
:101EC000308008F00308B8F1030F03D1DFF8C481B4
:101ED000C0F83080DFF8B881D8F8308008F4403896
:101EE000B8F1000F04D1D0F80880C0F8348028E0A1
:101EF000DFF89C81D8F8308008F44038B8F5803F8E
:101F000004D1D0F80080C0F834801AE0DFF8808176
:101F1000D8F8308008F44038B8F5003F04D14FF4C9
:101F20000048C0F834800CE0DFF86481D8F83080D5
:101F300008F44038B8F5403F03D1DFF85881C0F8C5
:101F40003480DFF84C81D8F8308008F44028B8F1AC
:101F5000000F04D1D0F80880C0F8388028E0DFF8FE
:101F60003081D8F8308008F44028B8F5802F04D1AB
:101F7000D0F80080C0F838801AE0DFF81481D8F873
:101F8000308008F44028B8F5002F04D14FF4004801
:101F9000C0F838800CE0DFF8F880D8F8308008F41A
:101FA0004028B8F5402F03D1DFF8E880C0F838802A
:101FB000DFF8DC80D8F8308008F44018B8F1000F62
:101FC00004D1D0F80880C0F83C8028E0DFF8C08059
:101FD000D8F8308008F44018B8F5801F04D1D0F844
:101FE0000080C0F83C801AE0DFF8A480D8F8308088
:101FF00008F44018B8F5001F04D14FF40048C0F8A9
:102000003C800CE0DFF88880D8F8308008F4401875
:10201000B8F5401F03D1DFF87C80C0F83C80DFF8C2
:102020007080D8F8308008F44008B8F1000F04D16F
:10203000D0F80880C0F8408028E0DFF85480D8F855
:10204000308008F44008B8F5800F04D1D0F8008043
:10205000C0F840801AE0DFF83880D8F8308008F403
:102060004008B8F5000F04D14FF40048C0F8408094
:102070000CE0DFF81C80D8F8308008F44008B8F590
:10208000400F03D1DFF80C80C0F84080BDE8F0833A
:102090000010024000127A0000093D0040000020BC
:1020A000500000200549096B21F48051034A116357
:1020B0001146096B01431163704700000010024094
:1020C000704700000CB50020019000902C4800687B
:1020D00040F480302A49086000BF2948006800F4B5
:1020E000003000900198401C0190009818B90198A8
:1020F000B0F5A04FF1D12248006800F4003010B1D3
:102100000120009001E0002000900098012836D1C5
:1021100012201C4908601A4840681949486008465E
:10212000406848600846406840F48060486008465F
:10213000406820F47C1048600846406840F4E8108D
:1021400048600846006840F08070086000BF0C4896
:10215000006800F000700028F9D00948406820F0BD
:102160000300074948600846406840F002004860A4
:1021700000BF0348406800F00C000828F9D10CBDEE
:10218000001002400020024010B500F0FBF910BD25
:1021900010B51B48006840F47000194908601948E0
:1021A000006840F001001749086008464068164979
:1021B000084014494860084600681449084011491D
:1021C00008600846006820F48020086008464068DF
:1021D00020F4FE0048600846C06A20F00F00C86284
:1021E0000846006B0A4908400649086300208860D9
:1021F000FFF768FF4FF0006001498039086010BDAB
:1022000088ED00E0001002400CC07FF8FFFFF6FEF2
:10221000CCFC00FF7047000000B52DED108B85B0A1
:10222000BF4890ED020AB0EEC00AF0EE408A28EEF8
:10223000A80ABC48D0ED000A9FEDBB1A01EE600A67
:10224000DFEDBA0A80EE201AB0EE419AD0ED000A16
:1022500070EE890AB0EE600A00F0FAFAF2EE0E0AA9
:1022600030EE600AF0EE408AAE4890ED020ADFEDF3
:10227000B00A10EEA80ADFEDAF0A20EE200AF0EE59
:10228000409A90ED010ADFEDAC0A00EEA80A30EEAC
:10229000290AB0EE408A9FEDA90AB4EEC08AF1EE99
:1022A00010FA04DD9FEDA50AB0EE408A0AE09FED2A
:1022B000A40AB4EEC08AF1EE10FA03D29FEDA00A90
:1022C000B0EE408A18EE100AFEF74DF9CDE9020192
:1022D0009449C868FEF710F941EC1E0B9FED990B6D
:1022E00053EC102BFEF727F841EC1D0B9FED970BDD
:1022F00053EC102BFEF71FF841EC1F0B9FED950BD5
:1023000053EC102BFEF789F841EC1C0BB0EE4C0A95
:10231000F0EE6C0A00F038FAB0EE40BAF0EE60BAB7
:102320009DED020B53EC102B51EC1B0BFEF703F849
:1023300041EC1A0B9FED890B53EC102BFDF754FF6A
:10234000884A03C218EE100AFEF70DF9CDE9020122
:1023500074490869FEF7D0F841EC1E0B9FED820B23
:1023600053EC102BFDF740FF41EC1D0B9FED750B5F
:1023700053EC102BFDF7DFFF41EC1C0B9FED730BB3
:1023800053EC102BFDF7D7FF41EC1B0B9FED710BAE
:1023900053EC102BFEF741F841EC1A0BB0EE4A0A51
:1023A000F0EE6A0A00F0F0F98DED000B9DED020BE6
:1023B00053EC102B9DED000B51EC100BFDF7BBFF08
:1023C00041EC1F0B9FED650B53EC102BFDF70CFF41
:1023D000644AC2E9020118EE100AFEF7C4F841ECA3
:1023E0001E0B50494869FEF787F89FED610B53ECCF
:1023F000102BCDE900019DED000B51EC100BFDF70A
:10240000F3FE41EC1D0B9FED4F0B53EC102BFDF732
:1024100092FF41EC1C0B9FED4D0B53EC102BFDF785
:102420008AFF41EC1B0B9FED4B0B53EC102BFDF780
:10243000F4FF41EC1A0BB0EE4A0AF0EE6A0A00F023
:10244000A3F9B0EE40FAF0EE60FA53EC1E2B51EC1B
:102450001F0BFDF770FF9FED410B53EC102BCDE9E7
:1024600002019DED020B51EC100BFDF7BDFE3D4A44
:10247000C2E904012A4890ED020A104680ED070ADD
:10248000274890ED040A104680ED080A244890ED94
:10249000050A104680ED090A214890ED060A10460B
:1024A00080ED0A0A1F4880ED009A90ED010ADFEDE9
:1024B000320A68EEA00A9FED311A00EE810A80ED23
:1024C000010A90ED020ADFED2D0A00EEA90A80ED67
:1024D000020AC068401C1349C8600846C068B0F5CD
:1024E000C87F01D10020C8600E480069401C0D491A
:1024F000086108460069B0F5C87F01D10020086175
:1025000008484069401C0749486108464069B0F5E1
:10251000C87F01D10020486105B0BDEC108B00BD23
:10252000900000207800002000E0F9C40020FA4468
:10253000000000000000C842ACC5A7376666E63E52
:102540006666E6BE0000000000000040182D4454FE
:10255000FB2109400000000000007940000000005D
:102560000000E03FC8000020ABAAAAAAAAAA6040C7
:10257000ABAAAAAAAAAA7040CDCC4C3E17B7513834
:10258000704770470448006820B103480068401E47
:1025900001490860704700003000002021B1026846
:1025A00042F00102026003E0026822F001020260D0
:1025B000704700002DE9F04194B004460D46002715
:1025C000B8460026206820F001002060666826F4E6
:1025D0004056A86806436660266841F20C60864350
:1025E000E968686808432969084306432660A668C5
:1025F00026F4407668690643A6606846FFF7B6FA97
:102600002348844202D1DDF8308013E0214884421F
:1026100002D1DDF834800DE01F48844202D1DDF89C
:10262000388007E01D48844202D1DDF83C8001E09B
:10263000DDF84080206800F4004060B14FEA4800B7
:102640002968B0FBF1F74FEA48002968B0FBF1F2C6
:1026500001FB120607E02868B8FBF0F72868B8FB12
:10266000F0F100FB11862868B6EB500F00D37F1CF9
:10267000206800F4004038B1C7F342064FF6F0710D
:1026800007EA010040EA0607A78114B0BDE8F0811F
:10269000003801400044004000480040004C004029
:1026A00000BFFEE72DE9F04105462C464FF480714E
:1026B0001248FEF721FB00261CE0274607F08007A2
:1026C000802F04D1B9000D48FEF718FB04E04FF449
:1026D00000710A48FEF710FB6006040E4FF480718B
:1026E0000648FEF70BFB4FF480710448FEF704FB2D
:1026F000701CC6B2082EE0DBBDE8F0810004004883
:1027000010B50446FEF7AAFE7820FFF7CBFFFEF7D0
:10271000D1FE0020FFF7C6FFFEF7CCFE2046FFF7F4
:10272000C1FFFEF7C7FEFEF7B1FE10BD10B50446AF
:10273000FEF794FE7820FFF7B5FFFEF7BBFE4020C2
:10274000FFF7B0FFFEF7B6FE2046FFF7ABFFFEF740
:10275000B1FEFEF79BFE10BD03B401984100009846
:1027600050EAC12018BF04204A0D18BF40F00100F4
:1027700040F2FF72B2EB515F08BF40F00200012847
:1027800008BF052002B0704710B52F499FED2C1BE4
:102790002DED020B84B0059820F000408842DCBF8C
:1027A00000209DED040B32DD2849884209D10498B0
:1027B00040B94FF0010000F08FFC00F05DFC06B066
:1027C00010BD05DB9DED040B00F04AFC06B010BD0A
:1027D00068469DED040B00F05BF810F0030011D08B
:1027E000012818D09DED021B9DED000B02281AD088
:1027F00000F06AFA51EC100B81F0004106B041EC98
:10280000100B10BD9DED021B9DED000B012000F093
:102810008FFB06B010BD9DED021B9DED000B00F07F
:1028200053FA06B010BD012000F082FB51EC100BF2
:1028300081F0004106B041EC100B10BD000000001B
:102840000000000000000000FB21E93F0000F07FD5
:1028500010B52DED028BB1EEC08A18EE100A20F0F3
:102860000040C0F1FF40C00F0AD010EE100A20F067
:102870000040C0F1FF40C00F04BF012000F02CFC5D
:10288000B0EE480ABDEC028B10BD00000000000055
:102890002DE9F14F04462DED020B2DED088B8AB08A
:1028A0009FEDE70B80ED020B139EE74826F00045F5
:1028B00085420ADC9DED120B002084ED000B0AB06E
:1028C000BDEC088B03B0BDE8F08FE0489FEDE0ABB6
:1028D0009FEDE1BBA84247DDE14F9FEDE39B9FEDFC
:1028E000E48B9DED120B53EC1A2B51EC100B002EC8
:1028F0001CDDFDF71AFD41EC100BBD4208D053EC76
:102900001B2B51EC100BFDF710FDC4E900010BE08F
:1029100053EC192B51EC100BFDF707FD53EC182B62
:10292000FDF703FDC4E900010120C8E7FDF75CFCE9
:1029300041EC100BBD4208D053EC1B2B51EC100B9B
:10294000FDF752FCC4E900010BE053EC192B51ECEC
:10295000100BFDF749FC53EC182BFDF745FCC4E9BF
:1029600000014FF0FF30AAE7C348A84279DB9DED94
:10297000120B51EC100B00F0C1FB41EC180B9FED5A
:10298000C00B53EC102BFDF7D6FC9FEDBF1B53EC97
:10299000112BFDF729FCFDF7EDFE0746FDF7ACFD19
:1029A00041EC190B53EC1A2BFDF7C5FC53EC182B1B
:1029B000FDF7BEFC41EC180B53EC1B2B51EC190B33
:1029C000FDF7B9FCDFF8C8A241EC100B4FEA15582F
:1029D0000125FA4453EC102B51EC180BFDF7A5FC24
:1029E000032DC4E900013DD0C1F30A5005EB4511A8
:1029F000A8EB00001139814234DA0AEB051BB0EE76
:102A000048AA9BED000BF0EE68AA53EC102B51EC9A
:102A1000190BFDF790FC41EC1B0B51EC1A0B53EC1E
:102A20001B2BFDF782FC41EC180B51EC1A0B53ECFD
:102A3000182BFDF77AFC53EC1B2BFDF776FC9BED76
:102A4000020B41EC1A0B53EC102B51EC190BFDF758
:102A500072FC53EC1A2BFDF768FC41EC100B6D1C5B
:102A6000B8E70EE0002EA8BF3846BFF628AF94EDB9
:102A7000000B51EC100B81F00041C4E900017842D9
:102A80001DE7C6F3130040F4801EC6F30A50A0F2FF
:102A9000F530471100F01F05C5F12000DDF848B002
:102AA00008900020069007900520EC467949002DFB
:102AB00007EB0002794408BF51F8221009D051F801
:102AC000223001EB8201AB404A68089922FA01F1F9
:102AD0001943A1FB0E26A1FB0B131A449A4234BFE3
:102AE0000123002303EB06080CEB8003D3E901A6C6
:102AF0000E448E4234BF0121002192448A4411B118
:102B0000924502D903E0924501D2012100E0002163
:102B1000C3E901A641444CF82010011EA0F10100B8
:102B2000C4DC029800F10050850F0298DDE90367CC
:102B30008000DDF81480FDF7DFFC41EC1A0B304615
:102B4000FDF7EBFC9FED541B53EC112BFDF7F3FB52
:102B500041EC1B0B3846FDF7E0FC9FED511B53EC9D
:102B6000112BFDF7E8FB41EC180B4046FDF7D5FCB7
:102B70009FED4D1B53EC112BFDF7DDFB41EC190BC9
:102B800051EC180B53EC192BFDF72EFB53EC1B2BC0
:102B9000FDF72AFB53EC1A2BFDF726FBCDE90801C4
:102BA000002008909DED080B53EC1A2B51EC100BF4
:102BB000FDF7BBFB53EC1B2BFDF7B7FB53EC182BBE
:102BC000FDF7B3FB53EC192BFDF7B2FB9FED381B60
:102BD00053EC112BFDF7AFFB9FED370B41EC180BBE
:102BE00053EC102B9DED080B51EC100BFDF7A3FBE4
:102BF00053EC182BFDF7F8FA9FED310B41EC180B55
:102C000053EC102B9DED080B51EC100BFDF793FBD3
:102C100053EC182BFDF7E8FA41EC100B139810F069
:102C2000004F06D06D4251EC100B81F0004141EC99
:102C3000100B284684ED000B41E600000000000068
:102C40000000000000000000FB21E93F7CD90240A9
:102C500000004054FB21F93F3163621A61B4D03D5A
:102C6000FB21F93F000000000000601A61B4D03D74
:102C70007370032E8A19A33BFB2139410000000029
:102C800083C8C96D305FE43F000000000000E03FF2
:102C90000A1F0000581E0000000000000000103E47
:102CA000000000000000103C000000000000103A8E
:102CB000182D4454FB21F93D3326A611460B113C37
:102CC00000000054FB21F93D10B52DED040B2DED56
:102CD000088B82B0B0EE419AF0EE619A0B9820F02A
:102CE00000449FED4BABB4F1795F11DA9DED0A0B17
:102CF00051EC100BFDF73EFD002801BFB0EE4A0A73
:102D0000F0EE6A0A02B0BDEC088B04BF04B010BD3F
:102D10009DED0A0B53EC102B51EC100BFDF70BFB48
:102D200041EC180B3C480621B0EE480AF0EE680A68
:102D3000784400F081F853EC182B51EC100BFDF7A0
:102D4000FAFA9DED0A0B41EC1B0B53EC192B51ECDD
:102D5000100BFDF7F0FA41EC190B53EC1B2B51EC67
:102D6000180BFDF7E8FA53EC192BFDF7DEFA9FED8F
:102D70002C0B41EC190B53EC102B51EC180BFDF7FD
:102D8000DAFA41EC100B2848844210DA53EC192B84
:102D900051EC100BFDF7C9FA53EC1A2BFDF7C8FAEA
:102DA00041EC100B02B0BDEC088B04B010BD1F4805
:102DB000A042BCBF9FED1E1B8DED001B06DBA4F5E2
:102DC00000100190002000909DED001B51EC100BB5
:102DD00053EC112BFDF7A9FA9DED000B41EC180BFC
:102DE00053EC102B51EC1A0BFDF79FFA41EC1A0B28
:102DF00053EC192B51EC180BFDF797FA53EC1A2BE7
:102E0000FDF796FA41EC100BCCE700000000000043
:102E1000000000000000F03F7C1B000000000000EC
:102E2000000000000000E03F3333D33F0000E93FE3
:102E3000000000000000D23F70B504462DED028B6B
:102E40004D1E00EBC500B0EE408AF0EE608A90EDBA
:102E5000000B35F0060017D053EC182B51EC100B7B
:102E6000FDF769FA41EC100B6D1E04EBC50090ED07
:102E7000001B51EC100B53EC112BFDF7B5F941EC95
:102E8000100B35F00600E7D1022D36D0042D1CD0F2
:102E9000062D1CBFBDEC028B70BD53EC182B51EC02
:102EA000100BFDF748FA94ED0A1B53EC112BFDF7BC
:102EB0009BF953EC182BFDF73EFA94ED081B53ECED
:102EC000112BFDF791F941EC100B53EC182B51EC41
:102ED000100BFDF730FA94ED061B53EC112BFDF7A8
:102EE00083F953EC182BFDF726FA94ED040B53EC01
:102EF000102BFDF779F941EC100B53EC182B51EC2A
:102F0000100BFDF718FA94ED021B53EC112BFDF793
:102F10006BF953EC182BFDF70EFA94ED001B53ECF4
:102F2000112BFDF761F9BDEC028B41EC100B70BD6C
:102F300031B504462DED040B2DED0A8BB0EE41BAF0
:102F4000F0EE61BA0B989DED0A0B20F00040B0F155
:102F5000795F0DDA51EC100BFFF7FEFB042808BF78
:102F600000F09AF89DED0A0BBDEC0A8B05B030BD60
:102F700053EC102B51EC100BFDF7DDF941EC180B65
:102F80009DED0A0B53EC182B51EC100BFDF7D3F908
:102F900041EC190B2C48B0EE480AF0EE680A052106
:102FA0007844FFF749FF9FED2ACBB0EE40AAF0EE40
:102FB00060AA9CB353EC1C2B51EC190BFDF7BBF929
:102FC00041EC1C0B53EC1A2B51EC190BFDF7B3F928
:102FD0009FED210B41EC190B53EC102B51EC1B0B0B
:102FE000FDF7A9F953EC192BFDF79FF953EC182BBA
:102FF000FDF7A1F953EC1B2BFDF797F953EC1C2BB4
:10300000FDF793F99DED0A1B53EC112BFDF790F999
:10301000BDEC0A8B05B041EC100B30BDFFE753EC63
:103020001A2B51EC180BFDF786F953EC1C2BFDF70E
:10303000DBF853EC192BFDF77EF99DED0A1B53ECE1
:10304000112BFDF7D1F8E3E7041A0000000000009F
:10305000495555555555C5BF000000000000E03FDB
:1030600010B553EC102B51EC100BFDF7BDF841ECF3
:10307000100B10BD000000009FED050B10B553ECC8
:10308000102B51EC100BFDF7C8F941EC100B10BDE3
:1030900000000000000000009FED050B10B553EC90
:1030A000102B51EC100BFDF746F941EC100B10BD45
:1030B000000000000000001002E008C8121F08C154
:1030C000002AFAD170477047002001E001C1121FA9
:1030D000002AFBD1704700000149086070470000DA
:1030E0007000002001B504490098086000BF024844
:1030F00000680028FBD108BD3000002082B0CDE977
:10310000000121F0004001909DED000B02B051EC58
:10311000100B704703468B4209DD914201DD0846E2
:1031200070479A4201DD1846FAE71046F8E79142E7
:1031300001DA0846F4E79A4201DA1846F0E7104649
:10314000EEE700004FF4004001490880704700009E
:10315000280800484FF4004001490860704700000B
:10316000180800484FF4804001490880704700006B
:10317000280800484FF4804001490860704700006B
:10318000180800484FF400500149088070470000BB
:10319000280800484FF400500149086070470000BB
:1031A0001808004800F096FA01E000F001F8FCE78A
:1031B00010B56420FFF796FF0020FEF7BBF94449E5
:1031C00008700846007801280CD1B7EE000A414883
:1031D00080ED000A9FED400A80ED010A9FED3E0A56
:1031E00080ED020A3A48007802280CD19FED3A0A95
:1031F000384880ED000AB7EE000A80ED010A9FED25
:10320000360A80ED020A3248007803280CD19FED7F
:10321000320A304880ED000A9FED2F0A80ED010A46
:10322000B7EE000A80ED020A2C48D0ED070AB0EE96
:10323000600A1023042200210846FEF7C1FB27483C
:10324000D0ED080AB0EE600A10230422022100200B
:10325000FEF7B6FB2148D0ED090AB0EE600A102354
:10326000042211460020FEF7ABFB1C48D0ED0A0AF1
:10327000B0EE600A1023042206210020FEF7A0FB16
:10328000164890ED0B0AB5EEC00AF1EE10FA02D026
:10329000FFF760FF01E0FFF755FF104890ED0C0AC3
:1032A000B5EEC00AF1EE10FA02D0FFF763FF01E0BD
:1032B000FFF758FF094890ED0D0AB5EEC00AF1EE90
:1032C00010FA02D0FFF766FF01E0FFF75BFF10BDC9
:1032D000190000200001002000000000C8000020AC
:1032E00000B59BB04FF48070FEF7F8FB0121080792
:1032F000FEF70CFC01210846FEF728FC01210846D8
:10330000FEF704FC3F20199003208DF86800002090
:103310008DF86B0003208DF8690000208DF86A009D
:1033200019A9E748FDF771FC0F20199003208DF8CB
:10333000680000208DF86B0003208DF869000020E4
:103340008DF86A0019A94FF09040FDF75EFCDD484A
:10335000FDF788FBDB481430FDF784FB0EA8FDF772
:1033600045FCD9480E90D9480F90002010900F20AE
:10337000ADF844000020129080201390400014907B
:1033800080001590202016904FF440501790002098
:1033900018900EA9CB481430FDF70AFCCC480E90CB
:1033A000CA481E300F90002010900F20ADF8440046
:1033B00000201290802013904000149080001590FF
:1033C000202016900020179018900EA9BD48FDF7F8
:1033D000EFFB0121BB481430FDF738FB0121B94850
:1033E000FDF734FBB8484038FDF734FA4FF0A04001
:1033F000FDF730FA01214FF0A040FDF716FB012147
:10340000B1484038FDF711FB0A20FFF76BFE0021A1
:10341000AD484038FDF7F7FA00214FF0A040FDF726
:10342000F2FAA9484038FDF7F6FA4FF0A040FDF750
:10343000F2FA00BFA4484038FDF734FA0028F9D169
:1034400000BF4FF0A040FDF72DFA0028F9D1019000
:1034500002904FF4004003900220049001208DF868
:10346000140001A998484038FDF7AEF901A94FF0C2
:10347000A040FDF7A9F90020069007904FF4E070F6
:1034800008904FF48060099000200A900B900C90F7
:103490000F208DF8340006A98B484038FDF716FA46
:1034A0000020069007904FF400700890800009906B
:1034B00000200A900B900C900F208DF8340006A984
:1034C0004FF0A040FDF702FA02217F484038FDF797
:1034D000B8F902214FF0A040FDF7B3F9052301220E
:1034E00011461807FDF712FA0523022211461807A4
:1034F000FDF70CFA0523032211461807FDF706FA1B
:103500000523042211461807FDF700FA05231A4681
:1035100006211807FDF7FAF90523062201211807ED
:10352000FDF7F4F90523072202211807FDF7EEF94C
:103530000523082203211807FDF7E8F905230922CE
:1035400004211807FDF7E2F905230A220621D00617
:10355000FDF7DCF905230B2201211807FDF7D6F949
:1035600005230C2202211807FDF7D0F905230D22AF
:1035700003211807FDF7CAF905230E2204211807B5
:10358000FDF7C4F905230F2206211807FDF7BEF940
:10359000052301220B214C484038FDF7B7F90523DC
:1035A0000222194648484038FDF7B0F905230322A6
:1035B000072145484038FDF7A9F9052304220821D1
:1035C00041484038FDF7A2F905231A4609213E4833
:1035D0004038FDF79BF9052306220B213A48403875
:1035E000FDF794F905230722194637484038FDF7BF
:1035F0008DF905230822072133484038FDF786F965
:1036000005230922082130484038FDF77FF90523BA
:103610000A2209212C484038FDF778F905230B22AE
:10362000114629484038FDF771F905230C22194647
:1036300025484038FDF76AF905230D220721224865
:103640004038FDF763F905230E2208211E48403853
:10365000FDF75CF905230F2209211B484038FDF7CF
:1036600055F9012118484038FDF7E0F801214FF0E5
:10367000A040FDF7DBF8012113484038FDF799F829
:1036800001214FF0A040FDF794F800BF01210E4842
:103690004038FDF711F90028F8D000BF01214FF0A4
:1036A000A040FDF709F90028F8D007484038FDF799
:1036B000B7F94FF0A040FDF7B3F91BB000BD000013
:1036C0000008004808000240400100502C01002082
:1036D0004000005010B500F053FC4FF49670FFF717
:1036E00001FD4FF4E13000F097FCFFF7F9FDFEF724
:1036F00091FDFEF745FFFDF7EBFEFDF7E5FFFDF75A
:1037000049FFFDF7C1FF01220D2144F6206000F0C2
:1037100001F810BD2DE9F0412DED068BAAB004464D
:103720000D46174600202890299024902590269039
:10373000279020211CA8FCF74CFD202114A8FCF7A1
:1037400048FD20210CA8FCF744FD242103A8FCF728
:1037500040FD002001900290009049F288008442D0
:1037600003D89FEDFE8A022609E0FD48844203D873
:103770009FEDFC8A012602E09FEDFB8A00264FF4B4
:103780008050FEF78FFC01214807FEF7DFF90C217E
:10379000F648FDF7F7FB00BF4FF48031F348FDF723
:1037A0002BFC0028F8D0002014901590169017904C
:1037B0004FF000601890002019901A904FF00050C0
:1037C0001B9000EE104AB8EE400AC8EE000ABCEEAC
:1037D000E00A8DED240A781E259026960820279071
:1037E00014AB24AA0521E148FDF719FE05F00100FC
:1037F00000286ED04FF44070289003208DF8A5006B
:1038000002208DF8A40000208DF8A6008DF8A700F6
:1038100028A94FF09040FDF7F8F90D2208214FF04C
:103820009040FDF73DFA0D220921C806FDF738FA50
:103830004FF000501B9000EE104AB8EE400AC8EE60
:10384000000ABCEEE00A8DED240A012025902696A0
:103850000820279014AB24AA0021C448FDF7DFFDFF
:103860004FF480701F90002020901D901E901C909F
:10387000229023904FF4002021901CAA0021BB48E5
:10388000FDF784FD00200C9040200D9008200E9044
:1038900000200F9010901190129013900CAB012209
:1038A0000021B248FDF760FD0120039000200A903E
:1038B00009900B904FF496700890002006900590A8
:1038C00007904FF49670049003AA0021A748FDF7D3
:1038D0006DFB05F00200022871D14FF44060289082
:1038E00003208DF8A50002208DF8A40000208DF89B
:1038F000A6008DF8A70028A94FF09040FDF785F9A4
:103900000D220A214FF09040FDF7CAF90D220B213C
:103910004FF09040FDF7C4F94FF000501B9000EEBF
:10392000104AB8EE400AC8EE000ABCEEE00A8DED7F
:10393000240A0120259026960820279014AB24AA5B
:1039400001218A48FDF76BFD4FF480701F90002025
:1039500020901D901E901C901020229000202390FB
:103960004FF4801021901CAA01218048FDF70EFD24
:1039700000200C9008200D9040200E9000200F9009
:1039800010901190129013900CAB042201217748F3
:10399000FDF7EAFC0120039000200A9009900B90AB
:1039A0004FF49670089000200690059007904FF411
:1039B0009670049003AA01216C48FDF7F7FA05F010
:1039C000040004286CD14FF44050289003208DF857
:1039D000A50002208DF8A40000208DF8A6008DF827
:1039E000A70028A96248FDF710F90D220C216048B4
:1039F000FDF756F90D2211465D48FDF751F94FF0DC
:103A000000501B9000EE104AB8EE400AC8EE000AC3
:103A1000BCEEE00A8DED240A0120259026960820B0
:103A2000279014AB24AA02215048FDF7F8FC4FF46C
:103A300080701F90002020901D901E901C9022905E
:103A400023904FF4001021901CAA02214748FDF753
:103A50009DFC00200C9008200D9040200E9000202E
:103A60000F9010901190129013900CAB1022022125
:103A70003E48FDF779FC0120039000200A90099050
:103A80000B904FF4967008900020069005900790D8
:103A90004FF49670049003AA02213448FDF786FA89
:103AA00005F00800082879D14FF440402890032001
:103AB0008DF8A50002208DF8A40000208DF8A60046
:103AC0008DF8A70028A92A48FDF79FF80D220E219E
:103AD0002748FDF7E5F80D220F212548FDF7E0F80E
:103AE0004FF000501B9000EE104AB8EE400AC8EEAE
:103AF000000ABCEEE00A8DED240A012025902696EE
:103B00000820279014AB24AA03211848FDF787FC4E
:103B10004FF480701F90002020901D901E901C90EC
:103B2000229023904FF4800021901CAA03210F487B
:103B3000FDF72CFC00200C9040200D9008200E90EA
:103B400000200F9010901190129013900CAB402217
:103B500003210648FDF708FC01200BE04054894E84
:103B6000581501004054094F4054894F00740140DA
:103B700000040048039000200A9009900B904FF435
:103B80009670089000200690059007904FF496706C
:103B9000049003AA0321B048FDF708FA2498FCF723
:103BA000BCFC41EC1A0B9FEDAD0B53EC102BFCF75A
:103BB000C2FB41EC190BFCF7BDFC804642460121DB
:103BC000A548FDF76AFA2498FCF7A7FC41EC1A0B0C
:103BD0009FEDA20B53EC102BFCF7ADFB41EC190B46
:103BE000FCF7A8FC8046424608219B48FDF755FAA1
:103BF0002498FCF792FC41EC1A0B9FED980B53ECC8
:103C0000102BFCF798FB41EC190BFCF793FC80465A
:103C10004346012203219048FDF7E4FA2498FCF77B
:103C20007CFC41EC1A0B9FED8D0B53EC102BFCF739
:103C300082FB41EC190BFCF77DFC804643460822D1
:103C400003218548FDF7CEFA2498FCF766FC41EC89
:103C50001A0B9FED820B53EC102BFCF76CFB41EC25
:103C6000190BFCF767FC80464346012200217A4885
:103C7000FDF7B8FA2498FCF750FC41EC1A0B9FEDC5
:103C8000770B53EC102BFCF756FB41EC190BFCF7B0
:103C900051FC80464346082200216F48FDF7A2FAF6
:103CA0002498FCF73AFC41EC1A0B9FED6C0B53EC9B
:103CB000102BFCF740FB41EC190BFCF73BFC80465A
:103CC0004346012211466448FDF78CFA2498FCF71C
:103CD00024FC41EC1A0B9FED610B53EC102BFCF70D
:103CE0002AFB41EC190BFCF725FC804643460822D1
:103CF00001215948FDF776FA2498FCF70EFC41ECB7
:103D00001A0B9FED560B53EC102BFCF714FB41ECF8
:103D1000190BFCF70FFC80464346012202214E4856
:103D2000FDF760FA2498FCF7F8FB41EC1A0B9FEDC5
:103D30004B0B53EC102BFCF7FEFA41EC190BFCF784
:103D4000F9FB80464346082202214348FDF74AFA20
:103D50002498FCF7E2FB41EC1A0B9FED400B53EC6F
:103D6000102BFCF7E8FA41EC190BFCF7E3FB80465B
:103D70004346012203213848FDF734FA2498FCF722
:103D8000CCFB41EC1A0B9FED350B53EC102BFCF7E1
:103D9000D2FA41EC190BFCF7CDFB804643460822D2
:103DA00003212D48FDF71EFA01200290002001900A
:103DB00001AA04212848FDF78DF810200290002068
:103DC000019001AA01212448FDF784F843208DF8D1
:103DD000000000208DF802008DF8010001208DF810
:103DE00003006846FDF718FC0123102205211A483C
:103DF000FDF70DF94FF4F0111748FDF7B1FA05F092
:103E0000010018B103211448FDF7BCFA05F00200C7
:103E1000022803D10C211048FDF7B4FA05F0040084
:103E2000042803D130210C48FDF7ACFA05F0080056
:103E3000082803D1C0210848FDF7A4FA4FF48031C7
:103E40000548FDF78DFA0749249808602AB0BDECB3
:103E5000068BBDE8F0810000007401400000000006
:103E60000000E03F3C00002010B52DED028BF0EE8D
:103E7000408A04461D4890ED000AB8EE400AF6EE6E
:103E8000000A20EE200ABCEEC00AB0EE408AB6EE70
:103E9000000A68EE800A90ED000AB8EE401AB8EE0B
:103EA000480A00EEC10ABCEEC00A10EE103A012228
:103EB00021460F48FDF796F9B6EE000A68EE800A33
:103EC0000A4890ED000AB8EE401AB8EE480A00EE33
:103ED000810ABCEEC00A10EE103A082221460448BE
:103EE000FDF780F9BDEC028B10BD00003C00002006
:103EF0000074014010B52DED028BF0EE408A0446AF
:103F00001D4890ED000AB8EE400AF6EE000A20EED9
:103F1000200ABCEEC00AB0EE408AB6EE000A68EE97
:103F2000800A90ED000AB8EE401AB8EE480A00EE9A
:103F3000C10ABCEEC00A10EE103A082221460F4812
:103F4000FDF750F9B6EE000A68EE800A0A4890EDD7
:103F5000000AB8EE401AB8EE480A00EE810ABCEE3C
:103F6000C00A10EE103A012221460448FDF73AF942
:103F7000BDEC028B10BD00003C000020007401402D
:103F800070B51C4800684FF47A72B0FBF2F1481E1D
:103F9000B0F1807F00D31BE0481E4FF0E02250615B
:103FA00050170F22002807DA13071D0E124B00F0DE
:103FB0000F04241F1D5503E013071C0E0F4B1C5448
:103FC00000BF00204FF0E02290610720106100BF89
:103FD00001214804FDF79AFD01218804FDF796FDB3
:103FE0000121C804FDF792FD01210805FDF78EFDB2
:103FF00070BD00001C00002018ED00E000E400E0AF
:1040000010B50246012000E050430B1EA1F101044F
:10401000E1B2F9D110BD000010B588B0044601210D
:104020008804FDF773FD01218803FDF78FFD022051
:104030008DF8040000208DF80600C02000900120BB
:104040008DF8070003208DF8050069460F48FCF73E
:10405000DCFD072206210D48FCF722FE072211464F
:104060000A48FCF71DFE0294002007900C200690E1
:10407000002005900490039002A90548FEF79AFAE3
:1040800001210348FEF78AFA08B010BD0004004879
:10409000003801400000000000000000002F000078
:1040A00000000700070000147F147F1400242A7FFB
:1040B0002A1200626408132300364955225000007A
:1040C0000503000000001C224100000041221C00EA
:1040D0000014083E08140008083E0808000000A06C
:1040E0006000000808080808000060600000002068
:1040F00010080402003E5149453E0000427F400046
:10410000004261514946002141454B3100181412CB
:104110007F10002745454539003C4A494930000198
:104120007109050300364949493600064949291EE7
:104130000000363600000000563600000008142249
:104140004100001414141414000041221408000249
:104150000151090600324959513E007C1211127C6E
:10416000007F49494936003E41414122007F41419B
:10417000221C007F49494941007F09090901003E8D
:104180004149497A007F0808087F0000417F4100CB
:10419000002040413F01007F08142241007F404041
:1041A0004040007F020C027F007F0408107F003E29
:1041B0004141413E007F09090906003E4151215E0F
:1041C000007F091929460046494949310001017F0C
:1041D0000101003F4040403F001F2040201F003FA2
:1041E0004038403F00631408146300070870080754
:1041F00000615149454300007F41410000552A5567
:104200002A55000041417F000004020102040040E1
:104210004040404000000102040000205454547803
:10422000007F484444380038444444200038444423
:10423000487F00385454541800087E0901020018C1
:10424000A4A4A47C007F080404780000447D4000FE
:10425000004080847D00007F102844000000417FE2
:104260004000007C04180478007C080404780038BE
:104270004444443800FC242424180018242418FC46
:10428000007C0804040800485454542000043F44AF
:104290004020003C4040207C001C2040201C003C72
:1042A0004030403C004428102844001CA0A0A07CC2
:1042B000004464544C4414141414141400000000FA
:1042C000000000000000000000000000000000F8F6
:1042D00000000000000000333000000000100C0659
:1042E000100C0600000000000000000040C07840F4
:1042F000C0784000043F04043F040400007088FCC0
:1043000008300000001820FF211E0000F008F00017
:10431000E018000000211C031E211E0000F0088888
:10432000700000001E2123241927211010160E00F2
:10433000000000000000000000000000000000E09D
:1043400018040200000000071820400000020418B2
:10435000E00000000040201807000000404080F00E
:10436000804040000202010F01020200000000F044
:10437000000000000101011F010101000000000018
:104380000000000080B0700000000000000000008D
:104390000000000000010101010101010000000016
:1043A00000000000003030000000000000000000AD
:1043B00080601804006018060100000000E010088A
:1043C0000810E000000F102020100F00001010F85F
:1043D000000000000020203F20200000007008089E
:1043E000088870000030282422213000003008881E
:1043F000884830000018202020110E000000C02046
:1044000010F8000000070424243F240000F8088866
:10441000880808000019212020110E0000E01088F3
:1044200088180000000F112020110E000038080825
:10443000C83808000000003F000000000070880835
:1044400008887000001C222121221C0000E01008B6
:104450000810E0000000312222110F00000000C00F
:10446000C0000000000000303000000000000080AC
:10447000000000000000806000000000000080409C
:1044800020100800000102040810200040404040B5
:104490004040400004040404040404000008102008
:1044A000408000000020100804020100007048084D
:1044B0000808F0000000003036010000C030C828B5
:1044C000E810E0000718272423140B000000C03870
:1044D000E0000000203C23020227382008F88888EA
:1044E00088700000203F202020110E00C0300808F6
:1044F00008083800071820202010080008F80808CD
:104500000810E000203F202020100F0008F88888C5
:10451000E8081000203F20202320180008F8888891
:10452000E8081000203F200003000000C030080809
:104530000838000007182020221E020008F8080092
:104540000008F808203F210101213F20000808F859
:10455000080800000020203F20200000000008087C
:10456000F8080800C08080807F00000008F888C03C
:1045700028180800203F20012638200008F80800ED
:1045800000000000203F20202020300008F8F80024
:10459000F8F80800203F003F003F200008F830C036
:1045A0000008F808203F200007183F00E010080826
:1045B0000810E0000F10202020100F0008F8080855
:1045C0000808F000203F210101010000E010080868
:1045D0000810E0000F18242438504F0008F888888D
:1045E00088887000203F2000030C3020007088086D
:1045F000080838000038202121221C00180808F87B
:10460000080818000000203F2000000008F80800FB
:104610000008F808001F202020201F0008788800CC
:1046200000C83808000007380E010000F80800F83C
:104630000008F800033C0700073C030008186880E6
:104640008068180820302C03032C30200838C8005C
:10465000C83808000000203F2000000010080808AB
:10466000C83808002038262120201800000000FE4D
:10467000020202000000007F40404000000C30C0F9
:1046800000000000000000010638C0000002020225
:10469000FE000000004040407F00000000000402D7
:1046A0000202040000000000000000000000000002
:1046B00000000000808080808080808000020204F2
:1046C00000000000000000000000000000008080EA
:1046D000808000000019242222223F2008F8008058
:1046E00080000000003F112020110E00000000801B
:1046F00080800000000E11202020110000000080AA
:104700008088F800000E112020103F2000008080DB
:1047100080800000001F222222221300008080F0EF
:10472000888888180020203F20200000000080801A
:1047300080808000006B94949493600008F800805F
:1047400080800000203F210000203F2000809898BA
:10475000000000000020203F20200000000000801A
:104760009898000000C08080807F000008F800005A
:1047700080808000203F24022D302000000808F8AF
:10478000000000000020203F20200000808080806A
:1047900080808000203F20003F20003F80800080FC
:1047A00080800000203F210000203F20000080800A
:1047B00080800000001F202020201F0080800080BB
:1047C0008000000080FFA12020110E00000000806A
:1047D00080808000000E112020A0FF80808080005B
:1047E0008080800020203F21200001000000808088
:1047F000808080000033242424241900008080E07D
:10480000808000000000001F202000008080000049
:1048100000808000001F202020103F20808080002A
:104820000080808000010E3008060100808000803A
:10483000008080800F300C030C300F00008080005F
:10484000808080000020312E0E312000808080008A
:104850000080808080818E7018060100008080803A
:10486000808080000021302C2221300000000000D8
:10487000807C020200000000003F40400000000079
:10488000FF00000000000000FF0000000002027CAA
:10489000800000000040403F0000000000060101D1
:1048A00002020404000000000000000000000000FC
:1048B0004C5555555555A53F7751C1166CC156BF3E
:1048C0009015CB19A001FA3EAD529C804F7E92BE4E
:1048D000C4B1B4BD9EEE213ED43888BEE9FAA8BD6D
:1048E00000004054FB21F93F3163621A61B4D03DAE
:1048F0000000601A61B4D03D7370032E8A19A33B87
:104900000000002E8A19A33BC14920259A837B39D8
:1049100000000000000000006E83F9A22915444E3B
:10492000D15727FCC0DD34F5999562DB4190433CBB
:10493000AB6351FE61C5BBDE3A6E24B7E0D24D4297
:10494000EA2E49061C92D1091CEB1DFE3EA729B197
:10495000F53582E88444BB2E26709CE9417E5FB425
:1049600039D69139F43953838B5F849C3B28F9BD48
:10497000FF97F81F0F9805DE8B112FEF1F6D0A5A56
:10498000CF7E366DB709CB27663F464F2DEA5F9E37
:10499000C7BA27757BF1E5EBF739073DEA92528AF2
:1049A000B15FFB6B085D8D1FA6F810111111813FDF
:1049B000D561C119A0012ABF7DFEB157E31DC73ED5
:1049C000EB9C2B8AE6E55ABE7CD5CF5A3AD9E53D19
:1049D000F04900080000002074000000B830000812
:1049E000644A000874000020F4100000C830000879
:1049F000000000000000A0410000000000000000D6
:104A000000000000000000000000000000A24A04B6
:104A1000000000000000000001020304060708096E
:104A20000000000000000000000000000000000086
:104A30000000000001020304010203040607080944
:104A4000010002000400060008000A000C0010002B
:104A50002000400080000001000000000000000075
:044A60000000000052
:040000050800018965
:00000001FF
